{
  "_format": "hh-sol-artifact-1",
  "contractName": "Authorizable",
  "sourceName": "contracts/Authorizable.sol",
  "abi": [
    {
      "inputs": [],
      "stateMutability": "nonpayable",
      "type": "constructor"
    },
    {
      "inputs": [
        {
          "internalType": "address",
          "name": "who",
          "type": "address"
        }
      ],
      "name": "authorize",
      "outputs": [],
      "stateMutability": "nonpayable",
      "type": "function"
    },
    {
      "inputs": [
        {
          "internalType": "address",
          "name": "",
          "type": "address"
        }
      ],
      "name": "authorized",
      "outputs": [
        {
          "internalType": "bool",
          "name": "",
          "type": "bool"
        }
      ],
      "stateMutability": "view",
      "type": "function"
    },
    {
      "inputs": [
        {
          "internalType": "address",
          "name": "who",
          "type": "address"
        }
      ],
      "name": "deauthorize",
      "outputs": [],
      "stateMutability": "nonpayable",
      "type": "function"
    },
    {
      "inputs": [
        {
          "internalType": "address",
          "name": "who",
          "type": "address"
        }
      ],
      "name": "isAuthorized",
      "outputs": [
        {
          "internalType": "bool",
          "name": "",
          "type": "bool"
        }
      ],
      "stateMutability": "view",
      "type": "function"
    },
    {
      "inputs": [],
      "name": "owner",
      "outputs": [
        {
          "internalType": "address",
          "name": "",
          "type": "address"
        }
      ],
      "stateMutability": "view",
      "type": "function"
    },
    {
      "inputs": [
        {
          "internalType": "address",
          "name": "who",
          "type": "address"
        }
      ],
      "name": "setOwner",
      "outputs": [],
      "stateMutability": "nonpayable",
      "type": "function"
    }
  ],
  "bytecode": "0x608060405234801561001057600080fd5b50600080546001600160a01b03191633179055610311806100326000396000f3fe608060405234801561001057600080fd5b50600436106100625760003560e01c806313af40351461006757806327c97fa51461007c5780638da5cb5b1461008f578063b6a5d7de146100b8578063b9181611146100cb578063fe9fbb80146100fb575b600080fd5b61007a610075366004610251565b610127565b005b61007a61008a366004610251565b61017c565b6000546100a2906001600160a01b031681565b6040516100af9190610289565b60405180910390f35b61007a6100c6366004610251565b6101c7565b6100ee6100d9366004610251565b60016020526000908152604090205460ff1681565b6040516100af919061029f565b6100ee610109366004610251565b6001600160a01b031660009081526001602052604090205460ff1690565b6000546001600160a01b0316331461015a5760405162461bcd60e51b8152600401610151906102ad565b60405180910390fd5b600080546001600160a01b0319166001600160a01b0392909216919091179055565b6000546001600160a01b031633146101a65760405162461bcd60e51b8152600401610151906102ad565b6001600160a01b03166000908152600160205260409020805460ff19169055565b6000546001600160a01b031633146101f15760405162461bcd60e51b8152600401610151906102ad565b61021c816001600160a01b03166000908152600160208190526040909120805460ff19169091179055565b50565b60006001600160a01b0382165b92915050565b61023b8161021f565b811461021c57600080fd5b803561022c81610232565b60006020828403121561026657610266600080fd5b60006102728484610246565b949350505050565b6102838161021f565b82525050565b6020810161022c828461027a565b801515610283565b6020810161022c8284610297565b6020808252810161022c81601081526f29b2b73232b9103737ba1037bbb732b960811b60208201526040019056fea2646970667358221220a5bb505295f968b809a377b87c6282884067b9f6259faa197776e6d216e6b90164736f6c634300080a0033",
  "linkReferences": {},
  "deployedLinkReferences": {}
}