{
  "_format": "hh-sol-artifact-1",
  "contractName": "MockWeth",
  "sourceName": "contracts/mockWeth.sol",
  "abi": [
    {
      "inputs": [
        {
          "internalType": "string",
          "name": "name_",
          "type": "string"
        },
        {
          "internalType": "string",
          "name": "symbol_",
          "type": "string"
        },
        {
          "internalType": "address",
          "name": "owner_",
          "type": "address"
        }
      ],
      "stateMutability": "nonpayable",
      "type": "constructor"
    },
    {
      "anonymous": false,
      "inputs": [
        {
          "indexed": true,
          "internalType": "address",
          "name": "owner",
          "type": "address"
        },
        {
          "indexed": true,
          "internalType": "address",
          "name": "spender",
          "type": "address"
        },
        {
          "indexed": false,
          "internalType": "uint256",
          "name": "value",
          "type": "uint256"
        }
      ],
      "name": "Approval",
      "type": "event"
    },
    {
      "anonymous": false,
      "inputs": [
        {
          "indexed": true,
          "internalType": "address",
          "name": "from",
          "type": "address"
        },
        {
          "indexed": true,
          "internalType": "address",
          "name": "to",
          "type": "address"
        },
        {
          "indexed": false,
          "internalType": "uint256",
          "name": "value",
          "type": "uint256"
        }
      ],
      "name": "Transfer",
      "type": "event"
    },
    {
      "inputs": [],
      "name": "DOMAIN_SEPARATOR",
      "outputs": [
        {
          "internalType": "bytes32",
          "name": "",
          "type": "bytes32"
        }
      ],
      "stateMutability": "view",
      "type": "function"
    },
    {
      "inputs": [],
      "name": "PERMIT_TYPEHASH",
      "outputs": [
        {
          "internalType": "bytes32",
          "name": "",
          "type": "bytes32"
        }
      ],
      "stateMutability": "view",
      "type": "function"
    },
    {
      "inputs": [
        {
          "internalType": "address",
          "name": "",
          "type": "address"
        },
        {
          "internalType": "address",
          "name": "",
          "type": "address"
        }
      ],
      "name": "allowance",
      "outputs": [
        {
          "internalType": "uint256",
          "name": "",
          "type": "uint256"
        }
      ],
      "stateMutability": "view",
      "type": "function"
    },
    {
      "inputs": [
        {
          "internalType": "address",
          "name": "account",
          "type": "address"
        },
        {
          "internalType": "uint256",
          "name": "amount",
          "type": "uint256"
        }
      ],
      "name": "approve",
      "outputs": [
        {
          "internalType": "bool",
          "name": "",
          "type": "bool"
        }
      ],
      "stateMutability": "nonpayable",
      "type": "function"
    },
    {
      "inputs": [
        {
          "internalType": "address",
          "name": "who",
          "type": "address"
        }
      ],
      "name": "authorize",
      "outputs": [],
      "stateMutability": "nonpayable",
      "type": "function"
    },
    {
      "inputs": [
        {
          "internalType": "address",
          "name": "",
          "type": "address"
        }
      ],
      "name": "authorized",
      "outputs": [
        {
          "internalType": "bool",
          "name": "",
          "type": "bool"
        }
      ],
      "stateMutability": "view",
      "type": "function"
    },
    {
      "inputs": [
        {
          "internalType": "address",
          "name": "",
          "type": "address"
        }
      ],
      "name": "balanceOf",
      "outputs": [
        {
          "internalType": "uint256",
          "name": "",
          "type": "uint256"
        }
      ],
      "stateMutability": "view",
      "type": "function"
    },
    {
      "inputs": [
        {
          "internalType": "address",
          "name": "account",
          "type": "address"
        },
        {
          "internalType": "uint256",
          "name": "amount",
          "type": "uint256"
        }
      ],
      "name": "burn",
      "outputs": [],
      "stateMutability": "nonpayable",
      "type": "function"
    },
    {
      "inputs": [
        {
          "internalType": "address",
          "name": "who",
          "type": "address"
        }
      ],
      "name": "deauthorize",
      "outputs": [],
      "stateMutability": "nonpayable",
      "type": "function"
    },
    {
      "inputs": [],
      "name": "decimals",
      "outputs": [
        {
          "internalType": "uint8",
          "name": "",
          "type": "uint8"
        }
      ],
      "stateMutability": "view",
      "type": "function"
    },
    {
      "inputs": [
        {
          "internalType": "address",
          "name": "who",
          "type": "address"
        }
      ],
      "name": "isAuthorized",
      "outputs": [
        {
          "internalType": "bool",
          "name": "",
          "type": "bool"
        }
      ],
      "stateMutability": "view",
      "type": "function"
    },
    {
      "inputs": [
        {
          "internalType": "address",
          "name": "account",
          "type": "address"
        },
        {
          "internalType": "uint256",
          "name": "amount",
          "type": "uint256"
        }
      ],
      "name": "mint",
      "outputs": [],
      "stateMutability": "nonpayable",
      "type": "function"
    },
    {
      "inputs": [],
      "name": "name",
      "outputs": [
        {
          "internalType": "string",
          "name": "",
          "type": "string"
        }
      ],
      "stateMutability": "view",
      "type": "function"
    },
    {
      "inputs": [
        {
          "internalType": "address",
          "name": "",
          "type": "address"
        }
      ],
      "name": "nonces",
      "outputs": [
        {
          "internalType": "uint256",
          "name": "",
          "type": "uint256"
        }
      ],
      "stateMutability": "view",
      "type": "function"
    },
    {
      "inputs": [],
      "name": "owner",
      "outputs": [
        {
          "internalType": "address",
          "name": "",
          "type": "address"
        }
      ],
      "stateMutability": "view",
      "type": "function"
    },
    {
      "inputs": [
        {
          "internalType": "address",
          "name": "owner",
          "type": "address"
        },
        {
          "internalType": "address",
          "name": "spender",
          "type": "address"
        },
        {
          "internalType": "uint256",
          "name": "value",
          "type": "uint256"
        },
        {
          "internalType": "uint256",
          "name": "deadline",
          "type": "uint256"
        },
        {
          "internalType": "uint8",
          "name": "v",
          "type": "uint8"
        },
        {
          "internalType": "bytes32",
          "name": "r",
          "type": "bytes32"
        },
        {
          "internalType": "bytes32",
          "name": "s",
          "type": "bytes32"
        }
      ],
      "name": "permit",
      "outputs": [],
      "stateMutability": "nonpayable",
      "type": "function"
    },
    {
      "inputs": [
        {
          "internalType": "address",
          "name": "source",
          "type": "address"
        },
        {
          "internalType": "address",
          "name": "spender",
          "type": "address"
        },
        {
          "internalType": "uint256",
          "name": "amount",
          "type": "uint256"
        }
      ],
      "name": "setAllowance",
      "outputs": [],
      "stateMutability": "nonpayable",
      "type": "function"
    },
    {
      "inputs": [
        {
          "internalType": "address",
          "name": "who",
          "type": "address"
        },
        {
          "internalType": "uint256",
          "name": "amount",
          "type": "uint256"
        }
      ],
      "name": "setBalance",
      "outputs": [],
      "stateMutability": "nonpayable",
      "type": "function"
    },
    {
      "inputs": [
        {
          "internalType": "address",
          "name": "who",
          "type": "address"
        }
      ],
      "name": "setOwner",
      "outputs": [],
      "stateMutability": "nonpayable",
      "type": "function"
    },
    {
      "inputs": [],
      "name": "symbol",
      "outputs": [
        {
          "internalType": "string",
          "name": "",
          "type": "string"
        }
      ],
      "stateMutability": "view",
      "type": "function"
    },
    {
      "inputs": [],
      "name": "totalSupply",
      "outputs": [
        {
          "internalType": "uint256",
          "name": "",
          "type": "uint256"
        }
      ],
      "stateMutability": "view",
      "type": "function"
    },
    {
      "inputs": [
        {
          "internalType": "address",
          "name": "recipient",
          "type": "address"
        },
        {
          "internalType": "uint256",
          "name": "amount",
          "type": "uint256"
        }
      ],
      "name": "transfer",
      "outputs": [
        {
          "internalType": "bool",
          "name": "",
          "type": "bool"
        }
      ],
      "stateMutability": "nonpayable",
      "type": "function"
    },
    {
      "inputs": [
        {
          "internalType": "address",
          "name": "spender",
          "type": "address"
        },
        {
          "internalType": "address",
          "name": "recipient",
          "type": "address"
        },
        {
          "internalType": "uint256",
          "name": "amount",
          "type": "uint256"
        }
      ],
      "name": "transferFrom",
      "outputs": [
        {
          "internalType": "bool",
          "name": "",
          "type": "bool"
        }
      ],
      "stateMutability": "nonpayable",
      "type": "function"
    }
  ],
  "bytecode": "0x60806040523480156200001157600080fd5b506040516200170b3803806200170b8339810160408190526200003491620003fc565b8282828282816000908051906020019062000051929190620001cf565b50805162000067906001906020840190620001cf565b506002805460ff1916601217905560036020526000197f3617319a054d772f909f7c479a2cebe5066e836a939412e32403c99029b92eff81905530600090815260409020557f8b73c3c69bb8fe3d512ecc4cf759cc79239f7b179b0ffacaa9a75d522b39400f6000604051620000de919062000548565b60408051918290038220828201825260018352603160f81b60209384015290516200013193927fc89efdaa54c0f20c7adf612882df0950f5a951637e0307cdcb4c672f298b8bc691469130910162000570565b60408051601f1981840301815291905280516020909101206006555050600780546001600160a01b031916331790556200016b8162000177565b505050505050620005f5565b6007546001600160a01b03163314620001ad5760405162461bcd60e51b8152600401620001a490620005c6565b60405180910390fd5b600780546001600160a01b0319166001600160a01b0392909216919091179055565b828054620001dd90620004a1565b90600052602060002090601f0160209004810192826200020157600085556200024c565b82601f106200021c57805160ff19168380011785556200024c565b828001600101855582156200024c579182015b828111156200024c5782518255916020019190600101906200022f565b506200025a9291506200025e565b5090565b5b808211156200025a57600081556001016200025f565b601f01601f191690565b634e487b7160e01b600052604160045260246000fd5b620002a08262000275565b81018181106001600160401b0382111715620002c057620002c06200027f565b6040525050565b6000620002d360405190565b9050620002e1828262000295565b919050565b60006001600160401b038211156200030257620003026200027f565b6200030d8262000275565b60200192915050565b60005b838110156200033357818101518382015260200162000319565b8381111562000343576000848401525b50505050565b6000620003606200035a84620002e6565b620002c7565b9050828152602081018484840111156200037d576200037d600080fd5b6200038a84828562000316565b509392505050565b600082601f830112620003a857620003a8600080fd5b8151620003ba84826020860162000349565b949350505050565b60006001600160a01b0382165b92915050565b620003e081620003c2565b8114620003ec57600080fd5b50565b8051620003cf81620003d5565b600080600060608486031215620004165762000416600080fd5b83516001600160401b03811115620004315762000431600080fd5b6200043f8682870162000392565b93505060208401516001600160401b03811115620004605762000460600080fd5b6200046e8682870162000392565b92505060406200048186828701620003ef565b9150509250925092565b634e487b7160e01b600052602260045260246000fd5b600281046001821680620004b657607f821691505b60208210811415620004cc57620004cc6200048b565b50919050565b60008154620004e181620004a1565b600182168015620004fb57600181146200050d576200053f565b60ff198316865281860193506200053f565b60008581526020902060005b83811015620005375781548882015260019091019060200162000519565b838801955050505b50505092915050565b6000620005568284620004d2565b9392505050565b805b82525050565b6200055f81620003c2565b60a081016200058082886200055d565b6200058f60208301876200055d565b6200059e60408301866200055d565b620005ad60608301856200055d565b620005bc608083018462000565565b9695505050505050565b60208082528101620003cf81601081526f29b2b73232b9103737ba1037bbb732b960811b602082015260400190565b61110680620006056000396000f3fe608060405234801561001057600080fd5b506004361061011d5760003560e01c806306fdde0314610122578063095ea7b31461014057806313af40351461016057806318160ddd1461017557806323b872dd1461018b57806327c97fa51461019e57806330adf81f146101b1578063313ce567146101c65780633644e515146101e057806340c10f19146101e957806370a08231146101fc5780637ecebe001461021c5780638da5cb5b1461023c57806395d89b411461025c5780639dc29fac14610264578063a9059cbb14610277578063b6a5d7de1461028a578063b91816111461029d578063d505accf146102c0578063da46098c146102d3578063dd62ed3e1461030d578063e30443bc14610338578063fe9fbb8014610362575b600080fd5b61012a61038e565b6040516101379190610aff565b60405180910390f35b61015361014e366004610b51565b61041c565b6040516101379190610b98565b61017361016e366004610ba6565b610475565b005b61017e60095481565b6040516101379190610bd5565b610153610199366004610be3565b6104ca565b6101736101ac366004610ba6565b61061e565b61017e60008051602061109183398151915281565b6002546101d39060ff1681565b6040516101379190610c3c565b61017e60065481565b6101736101f7366004610b51565b610669565b61017e61020a366004610ba6565b60036020526000908152604090205481565b61017e61022a366004610ba6565b60056020526000908152604090205481565b60075461024f906001600160a01b031681565b6040516101379190610c53565b61012a6106a1565b610173610272366004610b51565b6106ae565b610153610285366004610b51565b6106e2565b610173610298366004610ba6565b6106f6565b6101536102ab366004610ba6565b60086020526000908152604090205460ff1681565b6101736102ce366004610c75565b61074b565b6101736102e1366004610be3565b6001600160a01b0392831660009081526004602090815260408083209490951682529290925291902055565b61017e61031b366004610d14565b600460209081526000928352604080842090915290825290205481565b610173610346366004610b51565b6001600160a01b03909116600090815260036020526040902055565b610153610370366004610ba6565b6001600160a01b031660009081526008602052604090205460ff1690565b6000805461039b90610d5d565b80601f01602080910402602001604051908101604052809291908181526020018280546103c790610d5d565b80156104145780601f106103e957610100808354040283529160200191610414565b820191906000526020600020905b8154815290600101906020018083116103f757829003601f168201915b505050505081565b3360008181526004602090815260408083206001600160a01b038716808552925280832085905551919290916000805160206110b183398151915290610463908690610bd5565b60405180910390a35060015b92915050565b6007546001600160a01b031633146104a85760405162461bcd60e51b815260040161049f90610db4565b60405180910390fd5b600780546001600160a01b0319166001600160a01b0392909216919091179055565b6001600160a01b038316600090815260036020526040812054828110156105035760405162461bcd60e51b815260040161049f90610df6565b6001600160a01b0385163314610591576001600160a01b0385166000908152600460209081526040808320338452909152902054600019811461058f57838110156105605760405162461bcd60e51b815260040161049f90610e3a565b61056a8482610e60565b6001600160a01b03871660009081526004602090815260408083203384529091529020555b505b61059b8382610e60565b6001600160a01b0380871660009081526003602052604080822093909355908616815220546105cb908490610e77565b6001600160a01b0380861660008181526003602052604090819020939093559151908716906000805160206110718339815191529061060b908790610bd5565b60405180910390a3506001949350505050565b6007546001600160a01b031633146106485760405162461bcd60e51b815260040161049f90610db4565b6001600160a01b03166000908152600860205260409020805460ff19169055565b6007546001600160a01b031633146106935760405162461bcd60e51b815260040161049f90610db4565b61069d828261095b565b5050565b6001805461039b90610d5d565b6007546001600160a01b031633146106d85760405162461bcd60e51b815260040161049f90610db4565b61069d82826109ea565b60006106ef3384846104ca565b9392505050565b6007546001600160a01b031633146107205760405162461bcd60e51b815260040161049f90610db4565b610748816001600160a01b03166000908152600860205260409020805460ff19166001179055565b50565b6006546001600160a01b038816600090815260056020908152604080832054905192939261079292600080516020611091833981519152928d928d928d92918d9101610e8f565b604051602081830303815290604052805190602001206040516020016107b9929190610ee9565b60408051601f19818403018152919052805160209091012090506001600160a01b0388166107f95760405162461bcd60e51b815260040161049f90610f49565b6001818585856040516000815260200160405260405161081c9493929190610f59565b6020604051602081039080840390855afa15801561083e573d6000803e3d6000fd5b505050602060405103516001600160a01b0316886001600160a01b0316146108785760405162461bcd60e51b815260040161049f90610fc3565b8415806108855750844211155b6108a15760405162461bcd60e51b815260040161049f90610fff565b6fa2a8918ca85bafe22016d0b997e4df60600160ff1b038211156108d75760405162461bcd60e51b815260040161049f9061100f565b6001600160a01b03881660009081526005602052604081208054916108fb83611055565b90915550506001600160a01b038089166000818152600460209081526040808320948c168084529490915290819020899055516000805160206110b183398151915290610949908a90610bd5565b60405180910390a35050505050505050565b6001600160a01b03821660009081526003602052604090205461097f908290610e77565b6001600160a01b038316600090815260036020526040812091909155600980548392906109ad908490610e77565b90915550506040516001600160a01b03831690600090600080516020611071833981519152906109de908590610bd5565b60405180910390a35050565b6001600160a01b03821660009081526003602052604090205481811015610a29576001600160a01b038316600090815260036020526040812055610a4d565b610a338282610e60565b6001600160a01b0384166000908152600360205260409020555b8160096000828254610a5f9190610e60565b90915550506040516000906001600160a01b0385169060008051602061107183398151915290610a90908690610bd5565b60405180910390a3505050565b60005b83811015610ab8578181015183820152602001610aa0565b83811115610ac7576000848401525b50505050565b6000610ad7825190565b808452602084019350610aee818560208601610a9d565b601f01601f19169290920192915050565b602080825281016106ef8184610acd565b60006001600160a01b03821661046f565b610b2a81610b10565b811461074857600080fd5b803561046f81610b21565b80610b2a565b803561046f81610b40565b60008060408385031215610b6757610b67600080fd5b6000610b738585610b35565b9250506020610b8485828601610b46565b9150509250929050565b8015155b82525050565b6020810161046f8284610b8e565b600060208284031215610bbb57610bbb600080fd5b6000610bc78484610b35565b949350505050565b80610b92565b6020810161046f8284610bcf565b600080600060608486031215610bfb57610bfb600080fd5b6000610c078686610b35565b9350506020610c1886828701610b35565b9250506040610c2986828701610b46565b9150509250925092565b60ff8116610b92565b6020810161046f8284610c33565b610b9281610b10565b6020810161046f8284610c4a565b60ff8116610b2a565b803561046f81610c61565b600080600080600080600060e0888a031215610c9357610c93600080fd5b6000610c9f8a8a610b35565b9750506020610cb08a828b01610b35565b9650506040610cc18a828b01610b46565b9550506060610cd28a828b01610b46565b9450506080610ce38a828b01610c6a565b93505060a0610cf48a828b01610b46565b92505060c0610d058a828b01610b46565b91505092959891949750929550565b60008060408385031215610d2a57610d2a600080fd5b6000610d368585610b35565b9250506020610b8485828601610b35565b634e487b7160e01b600052602260045260246000fd5b600281046001821680610d7157607f821691505b60208210811415610d8457610d84610d47565b50919050565b601081526000602082016f29b2b73232b9103737ba1037bbb732b960811b815291505b5060200190565b6020808252810161046f81610d8a565b601b81526000602082017a45524332303a20696e73756666696369656e742d62616c616e636560281b81529150610dad565b6020808252810161046f81610dc4565b601d81526000602082017f45524332303a20696e73756666696369656e742d616c6c6f77616e636500000081529150610dad565b6020808252810161046f81610e06565b634e487b7160e01b600052601160045260246000fd5b600082821015610e7257610e72610e4a565b500390565b60008219821115610e8a57610e8a610e4a565b500190565b60c08101610e9d8289610bcf565b610eaa6020830188610c4a565b610eb76040830187610c4a565b610ec46060830186610bcf565b610ed16080830185610bcf565b610ede60a0830184610bcf565b979650505050505050565b61190160f01b81526002016000610f008285610bcf565b602082019150610f108284610bcf565b5060200192915050565b6018815260006020820177045524332303a20696e76616c69642d616464726573732d360441b81529150610dad565b6020808252810161046f81610f1a565b60808101610f678287610bcf565b610f746020830186610c33565b610f816040830185610bcf565b610f8e6060830184610bcf565b95945050505050565b6015815260006020820174115490cc8c0e881a5b9d985b1a590b5c195c9b5a5d605a1b81529150610dad565b6020808252810161046f81610f97565b6015815260006020820174115490cc8c0e881c195c9b5a5d0b595e1c1a5c9959605a1b81529150610dad565b6020808252810161046f81610fd3565b6020808252810161046f81602281527f45524332303a20696e76616c6964207369676e6174757265202773272076616c602082015261756560f01b604082015260600190565b600060001982141561106957611069610e4a565b506001019056feddf252ad1be2c89b69c2b068fc378daa952ba7f163c4a11628f55a4df523b3ef6e71edae12b1b97f4d1f60370fef10105fa2faae0126114a169c64845d6126c98c5be1e5ebec7d5bd14f71427d1e84f3dd0314c0f7b2291e5b200ac8c7c3b925a2646970667358221220b3f5bdfd605c4631e8004877dcba4af83031f2c8e597356681e0be90481d773a64736f6c634300080a0033",
  "linkReferences": {},
  "deployedLinkReferences": {}
}