{
    "_format": "hh-sol-artifact-1",
    "contractName": "PrimeNumberFacet",
    "sourceName": "contracts/Facets/PrimeNumberFacet.sol",
    "abi": [
        {
            "inputs": [
                {
                    "internalType": "uint256[]",
                    "name": "num",
                    "type": "uint256[]"
                }
            ],
            "name": "addPrimeNumbers",
            "outputs": [],
            "stateMutability": "nonpayable",
            "type": "function"
        },
        {
            "inputs": [
                {
                    "internalType": "address[]",
                    "name": "routes",
                    "type": "address[]"
                }
            ],
            "name": "createRoutePrimeProduct",
            "outputs": [
                {
                    "components": [
                        {
                            "internalType": "bytes",
                            "name": "val",
                            "type": "bytes"
                        },
                        {
                            "internalType": "bool",
                            "name": "neg",
                            "type": "bool"
                        },
                        {
                            "internalType": "uint256",
                            "name": "bitlen",
                            "type": "uint256"
                        }
                    ],
                    "internalType": "struct BigNumber",
                    "name": "result",
                    "type": "tuple"
                }
            ],
            "stateMutability": "view",
            "type": "function"
        },
        {
            "inputs": [
                {
                    "internalType": "address[]",
                    "name": "tokens",
                    "type": "address[]"
                }
            ],
            "name": "createTokenPrimeProduct",
            "outputs": [
                {
                    "components": [
                        {
                            "internalType": "bytes",
                            "name": "val",
                            "type": "bytes"
                        },
                        {
                            "internalType": "bool",
                            "name": "neg",
                            "type": "bool"
                        },
                        {
                            "internalType": "uint256",
                            "name": "bitlen",
                            "type": "uint256"
                        }
                    ],
                    "internalType": "struct BigNumber",
                    "name": "result",
                    "type": "tuple"
                }
            ],
            "stateMutability": "view",
            "type": "function"
        },
        {
            "inputs": [
                {
                    "internalType": "uint256",
                    "name": "num",
                    "type": "uint256"
                }
            ],
            "name": "getPrime",
            "outputs": [
                {
                    "internalType": "uint256",
                    "name": "",
                    "type": "uint256"
                }
            ],
            "stateMutability": "view",
            "type": "function"
        },
        {
            "inputs": [
                {
                    "internalType": "address",
                    "name": "routeAddress",
                    "type": "address"
                }
            ],
            "name": "getRoutePrime",
            "outputs": [
                {
                    "components": [
                        {
                            "internalType": "bytes",
                            "name": "val",
                            "type": "bytes"
                        },
                        {
                            "internalType": "bool",
                            "name": "neg",
                            "type": "bool"
                        },
                        {
                            "internalType": "uint256",
                            "name": "bitlen",
                            "type": "uint256"
                        }
                    ],
                    "internalType": "struct BigNumber",
                    "name": "",
                    "type": "tuple"
                }
            ],
            "stateMutability": "view",
            "type": "function"
        },
        {
            "inputs": [],
            "name": "getTokenID",
            "outputs": [
                {
                    "internalType": "uint256",
                    "name": "",
                    "type": "uint256"
                }
            ],
            "stateMutability": "view",
            "type": "function"
        },
        {
            "inputs": [
                {
                    "internalType": "address",
                    "name": "tokenAddress",
                    "type": "address"
                }
            ],
            "name": "getTokenPrime",
            "outputs": [
                {
                    "components": [
                        {
                            "internalType": "bytes",
                            "name": "val",
                            "type": "bytes"
                        },
                        {
                            "internalType": "bool",
                            "name": "neg",
                            "type": "bool"
                        },
                        {
                            "internalType": "uint256",
                            "name": "bitlen",
                            "type": "uint256"
                        }
                    ],
                    "internalType": "struct BigNumber",
                    "name": "",
                    "type": "tuple"
                }
            ],
            "stateMutability": "view",
            "type": "function"
        },
        {
            "inputs": [
                {
                    "components": [
                        {
                            "internalType": "bytes",
                            "name": "val",
                            "type": "bytes"
                        },
                        {
                            "internalType": "bool",
                            "name": "neg",
                            "type": "bool"
                        },
                        {
                            "internalType": "uint256",
                            "name": "bitlen",
                            "type": "uint256"
                        }
                    ],
                    "internalType": "struct BigNumber",
                    "name": "bigProduct",
                    "type": "tuple"
                },
                {
                    "components": [
                        {
                            "internalType": "bytes",
                            "name": "val",
                            "type": "bytes"
                        },
                        {
                            "internalType": "bool",
                            "name": "neg",
                            "type": "bool"
                        },
                        {
                            "internalType": "uint256",
                            "name": "bitlen",
                            "type": "uint256"
                        }
                    ],
                    "internalType": "struct BigNumber",
                    "name": "x",
                    "type": "tuple"
                }
            ],
            "name": "isMod",
            "outputs": [
                {
                    "internalType": "bool",
                    "name": "result",
                    "type": "bool"
                }
            ],
            "stateMutability": "view",
            "type": "function"
        },
        {
            "inputs": [
                {
                    "internalType": "address",
                    "name": "routeAddress",
                    "type": "address"
                }
            ],
            "name": "registerRoute",
            "outputs": [],
            "stateMutability": "nonpayable",
            "type": "function"
        },
        {
            "inputs": [
                {
                    "internalType": "address",
                    "name": "tokenAddress",
                    "type": "address"
                }
            ],
            "name": "registerToken",
            "outputs": [],
            "stateMutability": "nonpayable",
            "type": "function"
        }
    ],
    "bytecode": "0x608060405234801561001057600080fd5b50611ed2806100206000396000f3fe608060405234801561001057600080fd5b506004361061008e5760003560e01c806309824a801461009357806331978ad7146100a857806343eea3fd146100bb5780636990def1146100e45780636ba367a3146101045780637063c520146101195780637665c6721461012c578063a70c5f301461013f578063b75a618b1461012c578063dc38daf814610152575b600080fd5b6100a66100a1366004611880565b610165565b005b6100a66100b63660046119c6565b610171565b6100ce6100c9366004611b21565b61017a565b6040516100db9190611b9b565b60405180910390f35b6100f76100f2366004611880565b61018d565b6040516100db9190611c58565b61010c6101a4565b6040516100db9190611c69565b6100f7610127366004611880565b6101b3565b6100f761013a366004611cec565b6101c4565b6100a661014d366004611880565b6101d5565b61010c610160366004611d26565b6101de565b61016e816101e9565b50565b61016e81610317565b60006101868383610376565b9392505050565b610195611719565b61019e8261038b565b92915050565b60006101ae610478565b905090565b6101bb611719565b61019e8261048d565b6101cc611719565b61019e826104d7565b61016e8161070c565b600061019e82610831565b60006101f3610865565b905060006102048260020154610831565b6040516020016102149190611d47565b6040516020818303038152906040529050610230816000610889565b6001600160a01b0384166000908152600484016020526040902081518190805161025e92916020019061173c565b50602082015160018201805460ff19169115159190911790556040820151600290910155506001600160a01b03831660009081526004830160205260018301906040902081546001810183556000928352909160209020825460039092020190819083906102cb90611d72565b6102d69291906117c0565b50600182810154908201805460ff191660ff9092161515919091179055600291820154908201558201805490600061030d83611daf565b9190505550505050565b6000610321610865565b905060005b8251811015610371578183828151811061034257610342611dca565b60200260200101518154600181018355600092835290916020902001558061036981611daf565b915050610326565b505050565b6000610186610385848461089d565b516108b7565b610393611719565b600061039d610865565b6001600160a01b038416600090815260048201602052909150604090206040518060600160405290816000820180546103d590611d72565b80601f016020809104026020016040519081016040528092919081815260200182805461040190611d72565b801561044e5780601f106104235761010080835404028352916020019161044e565b820191906000526020600020905b81548152906001019060200180831161043157829003601f168201915b5050509183525050600182015460ff16151560208201526002909101546040909101529392505050565b600080610483610865565b6002015492915050565b610495611719565b600061049f610865565b6001600160a01b038416600090815260058201602052909150604090206040518060600160405290816000820180546103d590611d72565b6104df611719565b60006104e9610865565b90508060050160008460008151811061050457610504611dca565b60200260200101516001600160a01b03166001600160a01b0316815260200190815260200160002060405180606001604052908160008201805461054790611d72565b80601f016020809104026020016040519081016040528092919081815260200182805461057390611d72565b80156105c05780601f10610595576101008083540402835291602001916105c0565b820191906000526020600020905b8154815290600101906020018083116105a357829003601f168201915b505050918352505060018281015460ff16151560208301526002909201546040909101529092505b8351811015610705576106f18383600501600087858151811061060d5761060d611dca565b60200260200101516001600160a01b03166001600160a01b0316815260200190815260200160002060405180606001604052908160008201805461065090611d72565b80601f016020809104026020016040519081016040528092919081815260200182805461067c90611d72565b80156106c95780601f1061069e576101008083540402835291602001916106c9565b820191906000526020600020905b8154815290600101906020018083116106ac57829003601f168201915b5050509183525050600182015460ff1615156020820152600290910154604090910152610900565b9250806106fd81611daf565b9150506105e8565b5050919050565b6000610716610865565b905060006107278260030154610831565b6040516020016107379190611d47565b6040516020818303038152906040529050610753816000610889565b6001600160a01b0384166000908152600584016020526040902081518190805161078192916020019061173c565b50602082015160018201805460ff19169115159190911790556040820151600290910155506001600160a01b03831660009081526005830160205260018301906040902081546001810183556000928352909160209020825460039092020190819083906107ee90611d72565b6107f99291906117c0565b50600182810154908201805460ff191660ff909216151591909117905560029182015491015560038201805490600061030d83611daf565b60008061083c610865565b905080600001838154811061085357610853611dca565b90600052602060002001549392505050565b7f0d43da364a0638960305dfe50a31885563d74a8f7db015249711452bd02d5f7f90565b610891611719565b61018683836000610995565b6108a5611719565b610186836108b1610a4c565b84610a8e565b60008060208301815b84518110156108f5578151925082156108de57506000949350505050565b6020918201916108ee9082611de0565b90506108c0565b506001949350505050565b610908611719565b60006109148484610b6a565b9050600061093482610924610cf9565b61092f856002610d3b565b610a8e565b90506109408585610db0565b61097f5760006109508686610dd9565b9050600061096082610924610cf9565b905061097661096f8483610dd9565b6002610f2f565b9450505061098d565b61098a816002610f2f565b92505b505092915050565b61099d611719565b602084018451600059601f831615600181146109cb57601f84166020908103808601845283010192506109d5565b6020820192508382525b508282848660046101c2fa506020815101810160405280515b60208114610a1c57600060208301511460018114610a0c5750610a1c565b60208301925050601f19016109ee565b81528452505050602081018390528115610a365781610a40565b610a40815161107e565b60408201529392505050565b610a54611719565b6040518060600160405280604051806040016040528060208152602001600181525081526020016000151581526020016001815250905090565b610a96611719565b8260200151158015610aaa57508160200151155b8015610abd5750610abb82516108b7565b155b610ac657600080fd5b6000610ad68551855185516110bc565b90506000610ae38261107e565b905080610afb57610af2611186565b92505050610186565b85602001518015610b1f5750610b1f85600081515182510160028151069392505050565b15610b4857610af260405160608101604090815284825260016020830152810183905285610b6a565b6040516060810160409081529281526000602082015291820152949350505050565b610b72611719565b8260400151158015610b8657508160400151155b15610b9a57610b93611186565b905061019e565b8260400151610baa57508061019e565b8160400151610bba57508161019e565b6060600080610bcb868660006111c8565b9050856020015180610bde575084602001515b15610ca85785602001518015610bf5575084602001515b15610c405760008112610c1d57610c13865186518860400151611308565b9093509150610c34565b610c2e855187518760400151611308565b90935091505b60016020850152610cea565b8060011415610c6b57610c558651865161142d565b9093509150602086015115156020850152610cea565b806000191415610c9657610c818551875161142d565b90935091506020860151156020850152610cea565b610c9e611186565b935050505061019e565b60008112610ccb57610cc1865186518860400151611308565b9093509150610ce2565b610cdc855187518760400151611308565b90935091505b600060208501525b50908252604082015292915050565b610d01611719565b6040518060600160405280604051806040016040528060208152602001600281525081526020016000151581526020016002815250905090565b610d43611719565b6000604051806040016040528060208152602001600081525090506000836040860151029050600161010082061b60206001610100840401028352806020840152602083510183016040525060405160608101604090815292815260006020820152918201529392505050565b600080610dbf848460016111c8565b90508015610dce576000610dd1565b60015b949350505050565b610de1611719565b8260400151158015610df557508160400151155b15610e0257610b93611186565b6060600080610e13868660006111c8565b9150856020015180610e26575084602001515b15610ee85785602001518015610e3d575084602001515b15610e8f578160011415610e6857610e578651865161142d565b600160208701529093509050610f20565b816000191415610c9657610e7e8551875161142d565b600060208701529093509050610f20565b60008212610eb257610ea8865186518860400151611308565b9093509050610ec9565b610ec3855187518760400151611308565b90935090505b8560200151610ed9576000610edc565b60015b15156020850152610f20565b8160011415610efd57610e7e8651865161142d565b816000191415610c9657610f138551875161142d565b6001602087015290935090505b91835250604082015292915050565b610f37611719565b6000835151905083604001518310610f8657604051806060016040528060405180604001604052806020815260200160008152508152602001600015158152602001600081525091505061019e565b828460400151610f969190611df8565b60408501526101008084119084141715610fc0576101008304602002900380845152610100830692505b8351600784161560018114611026576000808661010003858501865b801561101c576020811460018114610ffa5760208303519550610fff565b600095505b50815194831b948a1c85811783529350601f199182019101610fdc565b5050505050611051565b6008850486518051602081018383018482038282848760046101c2fa6000601f840153505050915250505b506020810160008151146001811461106857611073565b602083510382528187525b509495945050505050565b6000611089826108b7565b1561109657506000919050565b6000602083015190506110a881611528565b915060086020845103028201915050919050565b606083518351835160405183815282602082015281604082015283606082018560208b0160046101c2fa84606001848184018660208c0160046101c2fa91508401838382018160208b0160046101c2fa915081801561111a5761111c565bfe5b5083018360608401828560056105465a03fa915081801561111a575083606084015b60208214611169576000815114600181146111595750611169565b50601f199091019060200161113e565b601f19019081529290930160600160405250979650505050505050565b61118e611719565b6040518060600160405280604051806040016040528060208152602001600081525081526020016000151581526020016000815250905090565b60006001821561124157846020015180156111e4575083602001515b156111f25750600019611241565b846020015115801561120a5750836020015115156001145b15611219576001915050610186565b84602001511515600114801561123157508360200151155b1561124157600019915050610186565b836040015185604001511115611258579050610186565b84604001518460400151111561127c5761127481600019611e0f565b915050610186565b600080808080895151905060208a510194506020895101935060005b818110156112f757808601519350808501519250828411156112c35786975050505050505050610186565b838311156112e5576112d787600019611e0f565b975050505050505050610186565b6112f0602082611de0565b9050611298565b5060009a9950505050505050505050565b60606000606059600060001988518901885189018a5160208601018b515b80156113c85783518c518e510382116001811461136657878201845260018814828814166001811461135b5760009850611360565b600198505b506113b5565b84518881840101855288810388038311600181146113a7576000821160008b1117898514166001811461139c5760009a506113a1565b60019a505b506113ac565b600199505b50602086039550505b5050601f19938401939182019101611326565b508415600181146113dc57600182526113e3565b6020870196505b50859650846020028c510187526020875101870160405260208701516001816101008d061c1460018214171561141a5760018b019a505b50959b989a509798505050505050505050565b6060600081816000195987518751808203828b01828b0184860160208101865b80156114d35784518682116001811461148a578c8203855260018d1460008314166001811461147f5760009d50611484565b60019d505b506114c0565b85518d81840303865260018e148d8214168e8201841017600181146114b25760009e506114b7565b60019e505b50602087039650505b5050601f1994850194928301920161144d565b506020820191505b6000825114156114fc576020880197506020870396506020820191506114db565b879a50868b5280604052505050505050505060006115198461107e565b93989397509295505050505050565b600081156001811461170e57600160801b600160401b600160201b620100006101006010600460026000198b019081041790810417908104179081041790810417908104179081041790810417600101926040517ff8f9cbfae6cc78fbefe7cdc3a1793dfcf4f0e8bbd8cec470b6a28a7a5a3e1efd81527ff5ecf1b3e9debc68e1d9cfabc5997135bfb7a7a3938b7b606b5b4b3f2f1f0ffe60208201527ff6e4ed9ff2d6b458eadcdf97bd91692de2d4da8fd2d0ac50c6ae9a827252361660408201527fc8c0b887b0a8a4489c948c7f847c6125746c645c544c444038302820181008ff60608201527ff7cae577eec2a03cf3bad76fb589591debb2dd67e0aa9834bea6925f6a4a2e0e60808201527fe39ed557db96902cd38ed14fad815115c786af479b7e8324736353433727170760a08201527fc976c13bb96e881cb166a933a55e490d9d56952b8d4e801485467d236242260660c08201527f753a6d1b65325d0c552a4d1345224105391a310b29122104190a11030902010060e082015261010081016040527e818283848586878898a8b8c8d8e8f929395969799a9b9d9e9faaeb6bedeeff600160f81b8082880204818160ff0385015104600160ff1b86116101000201965060001985018516611704576001870196505b5050505050611713565b600091505b50919050565b604051806060016040528060608152602001600015158152602001600081525090565b82805461174890611d72565b90600052602060002090601f01602090048101928261176a57600085556117b0565b82601f1061178357805160ff19168380011785556117b0565b828001600101855582156117b0579182015b828111156117b0578251825591602001919060010190611795565b506117bc92915061183b565b5090565b8280546117cc90611d72565b90600052602060002090601f0160209004810192826117ee57600085556117b0565b82601f106117ff57805485556117b0565b828001600101855582156117b057600052602060002091601f016020900482015b828111156117b0578254825591600101919060010190611820565b5b808211156117bc576000815560010161183c565b60006001600160a01b03821661019e565b61186a81611850565b811461016e57600080fd5b803561019e81611861565b60006020828403121561189557611895600080fd5b6000610dd18484611875565b601f01601f191690565b634e487b7160e01b600052604160045260246000fd5b6118ca826118a1565b81018181106001600160401b03821117156118e7576118e76118ab565b6040525050565b60006118fd6000604051905090565b905061190982826118c1565b919050565b60006001600160401b03821115611927576119276118ab565b5060209081020190565b8061186a565b803561019e81611931565b60006119556119508461190e565b6118ee565b8381529050602080820190840283018581111561197457611974600080fd5b835b8181101561199857806119898882611937565b84525060209283019201611976565b5050509392505050565b600082601f8301126119b6576119b6600080fd5b8135610dd1848260208601611942565b6000602082840312156119db576119db600080fd5b81356001600160401b038111156119f4576119f4600080fd5b610dd1848285016119a2565b60006001600160401b03821115611a1957611a196118ab565b611a22826118a1565b60200192915050565b82818337506000910152565b6000611a4561195084611a00565b905082815260208101848484011115611a6057611a60600080fd5b611a6b848285611a2b565b509392505050565b600082601f830112611a8757611a87600080fd5b8135610dd1848260208601611a37565b80151561186a565b803561019e81611a97565b600060608284031215611abf57611abf600080fd5b611ac960606118ee565b905081356001600160401b03811115611ae457611ae4600080fd5b611af084828501611a73565b8252506020611b0184848301611a9f565b6020830152506040611b1584828501611937565b60408301525092915050565b60008060408385031215611b3757611b37600080fd5b82356001600160401b03811115611b5057611b50600080fd5b611b5c85828601611aaa565b92505060208301356001600160401b03811115611b7b57611b7b600080fd5b611b8785828601611aaa565b9150509250929050565b8015155b82525050565b6020810161019e8284611b91565b60005b83811015611bc4578082015183820152602001611bac565b83811115611bd3576000848401525b50505050565b6000611be9826000815192915050565b808452602084019350611c00818560208601611ba9565b611c09816118a1565b9093019392505050565b80611b95565b60006060830182518482038552611c308282611bd9565b9150506020830151611c456020860182611b91565b506040830151611a6b6040860182611c13565b602080825281016101868184611c19565b6020810161019e8284611c13565b6000611c856119508461190e565b83815290506020808201908402830185811115611ca457611ca4600080fd5b835b818110156119985780611cb98882611875565b84525060209283019201611ca6565b600082601f830112611cdc57611cdc600080fd5b8135610dd1848260208601611c77565b600060208284031215611d0157611d01600080fd5b81356001600160401b03811115611d1a57611d1a600080fd5b610dd184828501611cc8565b600060208284031215611d3b57611d3b600080fd5b6000610dd18484611937565b6000611d538284611c13565b50602001919050565b634e487b7160e01b600052602260045260246000fd5b600281046001821680611d8657607f821691505b6020821081141561171357611713611d5c565b634e487b7160e01b600052601160045260246000fd5b6000600019821415611dc357611dc3611d99565b5060010190565b634e487b7160e01b600052603260045260246000fd5b60008219821115611df357611df3611d99565b500190565b600082821015611e0a57611e0a611d99565b500390565b6000826001600160ff1b030482116000841360008413161615611e3457611e34611d99565b81600160ff1b0583126000841260008413161615611e5457611e54611d99565b82600160ff1b0582126000841360008412161615611e7457611e74611d99565b826001600160ff1b030582126000841260008412161615611e9757611e97611d99565b50029056fea2646970667358221220763c4fecf634ff0a41665c082e867dc1968ae3c9503b6b8fb862c0c0da0f402d64736f6c634300080a0033",
    "linkReferences": {},
    "deployedLinkReferences": {}
}