{"contracts/Authorizable.sol":{"Authorizable":{"abi":[{"inputs":[],"stateMutability":"nonpayable","type":"constructor"},{"inputs":[{"internalType":"address","name":"who","type":"address"}],"name":"authorize","outputs":[],"stateMutability":"nonpayable","type":"function"},{"inputs":[{"internalType":"address","name":"","type":"address"}],"name":"authorized","outputs":[{"internalType":"bool","name":"","type":"bool"}],"stateMutability":"view","type":"function"},{"inputs":[{"internalType":"address","name":"who","type":"address"}],"name":"deauthorize","outputs":[],"stateMutability":"nonpayable","type":"function"},{"inputs":[{"internalType":"address","name":"who","type":"address"}],"name":"isAuthorized","outputs":[{"internalType":"bool","name":"","type":"bool"}],"stateMutability":"view","type":"function"},{"inputs":[],"name":"owner","outputs":[{"internalType":"address","name":"","type":"address"}],"stateMutability":"view","type":"function"},{"inputs":[{"internalType":"address","name":"who","type":"address"}],"name":"setOwner","outputs":[],"stateMutability":"nonpayable","type":"function"}],"devdoc":{"kind":"dev","methods":{"authorize(address)":{"details":"Privileged function authorize an address","params":{"who":"the address to authorize"}},"constructor":{"details":"We set the deployer to the owner"},"deauthorize(address)":{"details":"Privileged function to de authorize an address","params":{"who":"The address to remove authorization from"}},"isAuthorized(address)":{"details":"Returns true if an address is authorized","params":{"who":"the address to check"},"returns":{"_0":"true if authorized false if not"}},"setOwner(address)":{"details":"Function to change owner","params":{"who":"The new owner address"}}},"version":1},"evm":{"bytecode":{"linkReferences":{},"object":"608060405234801561001057600080fd5b50600080546001600160a01b03191633179055610311806100326000396000f3fe608060405234801561001057600080fd5b50600436106100625760003560e01c806313af40351461006757806327c97fa51461007c5780638da5cb5b1461008f578063b6a5d7de146100b8578063b9181611146100cb578063fe9fbb80146100fb575b600080fd5b61007a610075366004610251565b610127565b005b61007a61008a366004610251565b61017c565b6000546100a2906001600160a01b031681565b6040516100af9190610289565b60405180910390f35b61007a6100c6366004610251565b6101c7565b6100ee6100d9366004610251565b60016020526000908152604090205460ff1681565b6040516100af919061029f565b6100ee610109366004610251565b6001600160a01b031660009081526001602052604090205460ff1690565b6000546001600160a01b0316331461015a5760405162461bcd60e51b8152600401610151906102ad565b60405180910390fd5b600080546001600160a01b0319166001600160a01b0392909216919091179055565b6000546001600160a01b031633146101a65760405162461bcd60e51b8152600401610151906102ad565b6001600160a01b03166000908152600160205260409020805460ff19169055565b6000546001600160a01b031633146101f15760405162461bcd60e51b8152600401610151906102ad565b61021c816001600160a01b03166000908152600160208190526040909120805460ff19169091179055565b50565b60006001600160a01b0382165b92915050565b61023b8161021f565b811461021c57600080fd5b803561022c81610232565b60006020828403121561026657610266600080fd5b60006102728484610246565b949350505050565b6102838161021f565b82525050565b6020810161022c828461027a565b801515610283565b6020810161022c8284610297565b6020808252810161022c81601081526f29b2b73232b9103737ba1037bbb732b960811b60208201526040019056fea2646970667358221220a5bb505295f968b809a377b87c6282884067b9f6259faa197776e6d216e6b90164736f6c634300080a0033","opcodes":"PUSH1 0x80 PUSH1 0x40 MSTORE CALLVALUE DUP1 ISZERO PUSH2 0x10 JUMPI PUSH1 0x0 DUP1 REVERT JUMPDEST POP PUSH1 0x0 DUP1 SLOAD PUSH1 0x1 PUSH1 0x1 PUSH1 0xA0 SHL SUB NOT AND CALLER OR SWAP1 SSTORE PUSH2 0x311 DUP1 PUSH2 0x32 PUSH1 0x0 CODECOPY PUSH1 0x0 RETURN INVALID PUSH1 0x80 PUSH1 0x40 MSTORE CALLVALUE DUP1 ISZERO PUSH2 0x10 JUMPI PUSH1 0x0 DUP1 REVERT JUMPDEST POP PUSH1 0x4 CALLDATASIZE LT PUSH2 0x62 JUMPI PUSH1 0x0 CALLDATALOAD PUSH1 0xE0 SHR DUP1 PUSH4 0x13AF4035 EQ PUSH2 0x67 JUMPI DUP1 PUSH4 0x27C97FA5 EQ PUSH2 0x7C JUMPI DUP1 PUSH4 0x8DA5CB5B EQ PUSH2 0x8F JUMPI DUP1 PUSH4 0xB6A5D7DE EQ PUSH2 0xB8 JUMPI DUP1 PUSH4 0xB9181611 EQ PUSH2 0xCB JUMPI DUP1 PUSH4 0xFE9FBB80 EQ PUSH2 0xFB JUMPI JUMPDEST PUSH1 0x0 DUP1 REVERT JUMPDEST PUSH2 0x7A PUSH2 0x75 CALLDATASIZE PUSH1 0x4 PUSH2 0x251 JUMP JUMPDEST PUSH2 0x127 JUMP JUMPDEST STOP JUMPDEST PUSH2 0x7A PUSH2 0x8A CALLDATASIZE PUSH1 0x4 PUSH2 0x251 JUMP JUMPDEST PUSH2 0x17C JUMP JUMPDEST PUSH1 0x0 SLOAD PUSH2 0xA2 SWAP1 PUSH1 0x1 PUSH1 0x1 PUSH1 0xA0 SHL SUB AND DUP2 JUMP JUMPDEST PUSH1 0x40 MLOAD PUSH2 0xAF SWAP2 SWAP1 PUSH2 0x289 JUMP JUMPDEST PUSH1 0x40 MLOAD DUP1 SWAP2 SUB SWAP1 RETURN JUMPDEST PUSH2 0x7A PUSH2 0xC6 CALLDATASIZE PUSH1 0x4 PUSH2 0x251 JUMP JUMPDEST PUSH2 0x1C7 JUMP JUMPDEST PUSH2 0xEE PUSH2 0xD9 CALLDATASIZE PUSH1 0x4 PUSH2 0x251 JUMP JUMPDEST PUSH1 0x1 PUSH1 0x20 MSTORE PUSH1 0x0 SWAP1 DUP2 MSTORE PUSH1 0x40 SWAP1 KECCAK256 SLOAD PUSH1 0xFF AND DUP2 JUMP JUMPDEST PUSH1 0x40 MLOAD PUSH2 0xAF SWAP2 SWAP1 PUSH2 0x29F JUMP JUMPDEST PUSH2 0xEE PUSH2 0x109 CALLDATASIZE PUSH1 0x4 PUSH2 0x251 JUMP JUMPDEST PUSH1 0x1 PUSH1 0x1 PUSH1 0xA0 SHL SUB AND PUSH1 0x0 SWAP1 DUP2 MSTORE PUSH1 0x1 PUSH1 0x20 MSTORE PUSH1 0x40 SWAP1 KECCAK256 SLOAD PUSH1 0xFF AND SWAP1 JUMP JUMPDEST PUSH1 0x0 SLOAD PUSH1 0x1 PUSH1 0x1 PUSH1 0xA0 SHL SUB AND CALLER EQ PUSH2 0x15A JUMPI PUSH1 0x40 MLOAD PUSH3 0x461BCD PUSH1 0xE5 SHL DUP2 MSTORE PUSH1 0x4 ADD PUSH2 0x151 SWAP1 PUSH2 0x2AD JUMP JUMPDEST PUSH1 0x40 MLOAD DUP1 SWAP2 SUB SWAP1 REVERT JUMPDEST PUSH1 0x0 DUP1 SLOAD PUSH1 0x1 PUSH1 0x1 PUSH1 0xA0 SHL SUB NOT AND PUSH1 0x1 PUSH1 0x1 PUSH1 0xA0 SHL SUB SWAP3 SWAP1 SWAP3 AND SWAP2 SWAP1 SWAP2 OR SWAP1 SSTORE JUMP JUMPDEST PUSH1 0x0 SLOAD PUSH1 0x1 PUSH1 0x1 PUSH1 0xA0 SHL SUB AND CALLER EQ PUSH2 0x1A6 JUMPI PUSH1 0x40 MLOAD PUSH3 0x461BCD PUSH1 0xE5 SHL DUP2 MSTORE PUSH1 0x4 ADD PUSH2 0x151 SWAP1 PUSH2 0x2AD JUMP JUMPDEST PUSH1 0x1 PUSH1 0x1 PUSH1 0xA0 SHL SUB AND PUSH1 0x0 SWAP1 DUP2 MSTORE PUSH1 0x1 PUSH1 0x20 MSTORE PUSH1 0x40 SWAP1 KECCAK256 DUP1 SLOAD PUSH1 0xFF NOT AND SWAP1 SSTORE JUMP JUMPDEST PUSH1 0x0 SLOAD PUSH1 0x1 PUSH1 0x1 PUSH1 0xA0 SHL SUB AND CALLER EQ PUSH2 0x1F1 JUMPI PUSH1 0x40 MLOAD PUSH3 0x461BCD PUSH1 0xE5 SHL DUP2 MSTORE PUSH1 0x4 ADD PUSH2 0x151 SWAP1 PUSH2 0x2AD JUMP JUMPDEST PUSH2 0x21C DUP2 PUSH1 0x1 PUSH1 0x1 PUSH1 0xA0 SHL SUB AND PUSH1 0x0 SWAP1 DUP2 MSTORE PUSH1 0x1 PUSH1 0x20 DUP2 SWAP1 MSTORE PUSH1 0x40 SWAP1 SWAP2 KECCAK256 DUP1 SLOAD PUSH1 0xFF NOT AND SWAP1 SWAP2 OR SWAP1 SSTORE JUMP JUMPDEST POP JUMP JUMPDEST PUSH1 0x0 PUSH1 0x1 PUSH1 0x1 PUSH1 0xA0 SHL SUB DUP3 AND JUMPDEST SWAP3 SWAP2 POP POP JUMP JUMPDEST PUSH2 0x23B DUP2 PUSH2 0x21F JUMP JUMPDEST DUP2 EQ PUSH2 0x21C JUMPI PUSH1 0x0 DUP1 REVERT JUMPDEST DUP1 CALLDATALOAD PUSH2 0x22C DUP2 PUSH2 0x232 JUMP JUMPDEST PUSH1 0x0 PUSH1 0x20 DUP3 DUP5 SUB SLT ISZERO PUSH2 0x266 JUMPI PUSH2 0x266 PUSH1 0x0 DUP1 REVERT JUMPDEST PUSH1 0x0 PUSH2 0x272 DUP5 DUP5 PUSH2 0x246 JUMP JUMPDEST SWAP5 SWAP4 POP POP POP POP JUMP JUMPDEST PUSH2 0x283 DUP2 PUSH2 0x21F JUMP JUMPDEST DUP3 MSTORE POP POP JUMP JUMPDEST PUSH1 0x20 DUP2 ADD PUSH2 0x22C DUP3 DUP5 PUSH2 0x27A JUMP JUMPDEST DUP1 ISZERO ISZERO PUSH2 0x283 JUMP JUMPDEST PUSH1 0x20 DUP2 ADD PUSH2 0x22C DUP3 DUP5 PUSH2 0x297 JUMP JUMPDEST PUSH1 0x20 DUP1 DUP3 MSTORE DUP2 ADD PUSH2 0x22C DUP2 PUSH1 0x10 DUP2 MSTORE PUSH16 0x29B2B73232B9103737BA1037BBB732B9 PUSH1 0x81 SHL PUSH1 0x20 DUP3 ADD MSTORE PUSH1 0x40 ADD SWAP1 JUMP INVALID LOG2 PUSH5 0x6970667358 0x22 SLT KECCAK256 0xA5 0xBB POP MSTORE SWAP6 0xF9 PUSH9 0xB809A377B87C628288 BLOCKHASH PUSH8 0xB9F6259FAA197776 0xE6 0xD2 AND 0xE6 0xB9 ADD PUSH5 0x736F6C6343 STOP ADDMOD EXP STOP CALLER "},"gasEstimates":{"creation":{"codeDepositCost":"157000","executionCost":"21037","totalCost":"178037"},"external":{"authorize(address)":"infinite","authorized(address)":"infinite","deauthorize(address)":"infinite","isAuthorized(address)":"infinite","owner()":"infinite","setOwner(address)":"infinite"},"internal":{"_authorize(address)":"infinite"}},"methodIdentifiers":{"authorize(address)":"b6a5d7de","authorized(address)":"b9181611","deauthorize(address)":"27c97fa5","isAuthorized(address)":"fe9fbb80","owner()":"8da5cb5b","setOwner(address)":"13af4035"}},"storageLayout":{"storage":[{"astId":3,"contract":"contracts/Authorizable.sol:Authorizable","label":"owner","offset":0,"slot":"0","type":"t_address"},{"astId":7,"contract":"contracts/Authorizable.sol:Authorizable","label":"authorized","offset":0,"slot":"1","type":"t_mapping(t_address,t_bool)"}],"types":{"t_address":{"encoding":"inplace","label":"address","numberOfBytes":"20"},"t_bool":{"encoding":"inplace","label":"bool","numberOfBytes":"1"},"t_mapping(t_address,t_bool)":{"encoding":"mapping","key":"t_address","label":"mapping(address => bool)","numberOfBytes":"32","value":"t_bool"}}},"userdoc":{"kind":"user","methods":{},"version":1}}}}