{"contracts/mockHog.sol":{"MockHog":{"abi":[{"inputs":[{"internalType":"string","name":"name_","type":"string"},{"internalType":"string","name":"symbol_","type":"string"},{"internalType":"address","name":"owner_","type":"address"}],"stateMutability":"nonpayable","type":"constructor"},{"anonymous":false,"inputs":[{"indexed":true,"internalType":"address","name":"owner","type":"address"},{"indexed":true,"internalType":"address","name":"spender","type":"address"},{"indexed":false,"internalType":"uint256","name":"value","type":"uint256"}],"name":"Approval","type":"event"},{"anonymous":false,"inputs":[{"indexed":true,"internalType":"address","name":"from","type":"address"},{"indexed":true,"internalType":"address","name":"to","type":"address"},{"indexed":false,"internalType":"uint256","name":"value","type":"uint256"}],"name":"Transfer","type":"event"},{"inputs":[],"name":"DOMAIN_SEPARATOR","outputs":[{"internalType":"bytes32","name":"","type":"bytes32"}],"stateMutability":"view","type":"function"},{"inputs":[],"name":"PERMIT_TYPEHASH","outputs":[{"internalType":"bytes32","name":"","type":"bytes32"}],"stateMutability":"view","type":"function"},{"inputs":[{"internalType":"address","name":"","type":"address"},{"internalType":"address","name":"","type":"address"}],"name":"allowance","outputs":[{"internalType":"uint256","name":"","type":"uint256"}],"stateMutability":"view","type":"function"},{"inputs":[{"internalType":"address","name":"account","type":"address"},{"internalType":"uint256","name":"amount","type":"uint256"}],"name":"approve","outputs":[{"internalType":"bool","name":"","type":"bool"}],"stateMutability":"nonpayable","type":"function"},{"inputs":[{"internalType":"address","name":"who","type":"address"}],"name":"authorize","outputs":[],"stateMutability":"nonpayable","type":"function"},{"inputs":[{"internalType":"address","name":"","type":"address"}],"name":"authorized","outputs":[{"internalType":"bool","name":"","type":"bool"}],"stateMutability":"view","type":"function"},{"inputs":[{"internalType":"address","name":"","type":"address"}],"name":"balanceOf","outputs":[{"internalType":"uint256","name":"","type":"uint256"}],"stateMutability":"view","type":"function"},{"inputs":[{"internalType":"address","name":"account","type":"address"},{"internalType":"uint256","name":"amount","type":"uint256"}],"name":"burn","outputs":[],"stateMutability":"nonpayable","type":"function"},{"inputs":[{"internalType":"address","name":"who","type":"address"}],"name":"deauthorize","outputs":[],"stateMutability":"nonpayable","type":"function"},{"inputs":[],"name":"decimals","outputs":[{"internalType":"uint8","name":"","type":"uint8"}],"stateMutability":"view","type":"function"},{"inputs":[{"internalType":"address","name":"who","type":"address"}],"name":"isAuthorized","outputs":[{"internalType":"bool","name":"","type":"bool"}],"stateMutability":"view","type":"function"},{"inputs":[{"internalType":"address","name":"account","type":"address"},{"internalType":"uint256","name":"amount","type":"uint256"}],"name":"mint","outputs":[],"stateMutability":"nonpayable","type":"function"},{"inputs":[],"name":"name","outputs":[{"internalType":"string","name":"","type":"string"}],"stateMutability":"view","type":"function"},{"inputs":[{"internalType":"address","name":"","type":"address"}],"name":"nonces","outputs":[{"internalType":"uint256","name":"","type":"uint256"}],"stateMutability":"view","type":"function"},{"inputs":[],"name":"owner","outputs":[{"internalType":"address","name":"","type":"address"}],"stateMutability":"view","type":"function"},{"inputs":[{"internalType":"address","name":"owner","type":"address"},{"internalType":"address","name":"spender","type":"address"},{"internalType":"uint256","name":"value","type":"uint256"},{"internalType":"uint256","name":"deadline","type":"uint256"},{"internalType":"uint8","name":"v","type":"uint8"},{"internalType":"bytes32","name":"r","type":"bytes32"},{"internalType":"bytes32","name":"s","type":"bytes32"}],"name":"permit","outputs":[],"stateMutability":"nonpayable","type":"function"},{"inputs":[{"internalType":"address","name":"source","type":"address"},{"internalType":"address","name":"spender","type":"address"},{"internalType":"uint256","name":"amount","type":"uint256"}],"name":"setAllowance","outputs":[],"stateMutability":"nonpayable","type":"function"},{"inputs":[{"internalType":"address","name":"who","type":"address"},{"internalType":"uint256","name":"amount","type":"uint256"}],"name":"setBalance","outputs":[],"stateMutability":"nonpayable","type":"function"},{"inputs":[{"internalType":"address","name":"who","type":"address"}],"name":"setOwner","outputs":[],"stateMutability":"nonpayable","type":"function"},{"inputs":[],"name":"symbol","outputs":[{"internalType":"string","name":"","type":"string"}],"stateMutability":"view","type":"function"},{"inputs":[],"name":"totalSupply","outputs":[{"internalType":"uint256","name":"","type":"uint256"}],"stateMutability":"view","type":"function"},{"inputs":[{"internalType":"address","name":"recipient","type":"address"},{"internalType":"uint256","name":"amount","type":"uint256"}],"name":"transfer","outputs":[{"internalType":"bool","name":"","type":"bool"}],"stateMutability":"nonpayable","type":"function"},{"inputs":[{"internalType":"address","name":"spender","type":"address"},{"internalType":"address","name":"recipient","type":"address"},{"internalType":"uint256","name":"amount","type":"uint256"}],"name":"transferFrom","outputs":[{"internalType":"bool","name":"","type":"bool"}],"stateMutability":"nonpayable","type":"function"}],"devdoc":{"kind":"dev","methods":{"approve(address,uint256)":{"params":{"account":"The account which will be approve to transfer tokens","amount":"The approval amount, if set to uint256.max the allowance does not go down on transfers."},"returns":{"_0":"returns true for compatibility with the ERC20 standard"}},"authorize(address)":{"details":"Privileged function authorize an address","params":{"who":"the address to authorize"}},"burn(address,uint256)":{"params":{"account":"the account to burn from","amount":"the amount of token to burn"}},"deauthorize(address)":{"details":"Privileged function to de authorize an address","params":{"who":"The address to remove authorization from"}},"isAuthorized(address)":{"details":"Returns true if an address is authorized","params":{"who":"the address to check"},"returns":{"_0":"true if authorized false if not"}},"mint(address,uint256)":{"params":{"account":"the account to addd tokens to","amount":"the amount of tokens to add"}},"permit(address,address,uint256,uint256,uint8,bytes32,bytes32)":{"details":"The signature for this function follows EIP 712 standard and should be generated with the      eth_signTypedData JSON RPC call instead of the eth_sign JSON RPC call. If using out of date      parity signing libraries the v component may need to be adjusted. Also it is very rare but possible      for v to be other values, those values are not supported.","params":{"deadline":"the timestamp which the signature must be submitted by to be valid","owner":"the owner of the account which is having the new approval set","r":"The r component of the ECDSA signature","s":"The s component of the ECDSA signature","spender":"the address which will be allowed to spend owner's tokens","v":"Extra ECDSA data which allows public key recovery from signature assumed to be 27 or 28","value":"the new allowance value"}},"setOwner(address)":{"details":"Function to change owner","params":{"who":"The new owner address"}},"transfer(address,uint256)":{"details":"transfers to this contract address or 0 will fail","params":{"amount":"The amount user token to send","recipient":"The address which will be credited with the tokens"},"returns":{"_0":"returns true on success, reverts on failure so cannot return false."}},"transferFrom(address,address,uint256)":{"details":"will fail transfers which send funds to this contract or 0","params":{"amount":"the number of tokens to send","recipient":"The destination of the ERC20 tokens","spender":"The source of the ERC20 tokens"},"returns":{"_0":"returns true on success and reverts on failure"}}},"version":1},"evm":{"bytecode":{"linkReferences":{},"object":"60806040523480156200001157600080fd5b506040516200170b3803806200170b8339810160408190526200003491620003fc565b8282828282816000908051906020019062000051929190620001cf565b50805162000067906001906020840190620001cf565b506002805460ff1916601217905560036020526000197f3617319a054d772f909f7c479a2cebe5066e836a939412e32403c99029b92eff81905530600090815260409020557f8b73c3c69bb8fe3d512ecc4cf759cc79239f7b179b0ffacaa9a75d522b39400f6000604051620000de919062000548565b60408051918290038220828201825260018352603160f81b60209384015290516200013193927fc89efdaa54c0f20c7adf612882df0950f5a951637e0307cdcb4c672f298b8bc691469130910162000570565b60408051601f1981840301815291905280516020909101206006555050600780546001600160a01b031916331790556200016b8162000177565b505050505050620005f5565b6007546001600160a01b03163314620001ad5760405162461bcd60e51b8152600401620001a490620005c6565b60405180910390fd5b600780546001600160a01b0319166001600160a01b0392909216919091179055565b828054620001dd90620004a1565b90600052602060002090601f0160209004810192826200020157600085556200024c565b82601f106200021c57805160ff19168380011785556200024c565b828001600101855582156200024c579182015b828111156200024c5782518255916020019190600101906200022f565b506200025a9291506200025e565b5090565b5b808211156200025a57600081556001016200025f565b601f01601f191690565b634e487b7160e01b600052604160045260246000fd5b620002a08262000275565b81018181106001600160401b0382111715620002c057620002c06200027f565b6040525050565b6000620002d360405190565b9050620002e1828262000295565b919050565b60006001600160401b038211156200030257620003026200027f565b6200030d8262000275565b60200192915050565b60005b838110156200033357818101518382015260200162000319565b8381111562000343576000848401525b50505050565b6000620003606200035a84620002e6565b620002c7565b9050828152602081018484840111156200037d576200037d600080fd5b6200038a84828562000316565b509392505050565b600082601f830112620003a857620003a8600080fd5b8151620003ba84826020860162000349565b949350505050565b60006001600160a01b0382165b92915050565b620003e081620003c2565b8114620003ec57600080fd5b50565b8051620003cf81620003d5565b600080600060608486031215620004165762000416600080fd5b83516001600160401b03811115620004315762000431600080fd5b6200043f8682870162000392565b93505060208401516001600160401b03811115620004605762000460600080fd5b6200046e8682870162000392565b92505060406200048186828701620003ef565b9150509250925092565b634e487b7160e01b600052602260045260246000fd5b600281046001821680620004b657607f821691505b60208210811415620004cc57620004cc6200048b565b50919050565b60008154620004e181620004a1565b600182168015620004fb57600181146200050d576200053f565b60ff198316865281860193506200053f565b60008581526020902060005b83811015620005375781548882015260019091019060200162000519565b838801955050505b50505092915050565b6000620005568284620004d2565b9392505050565b805b82525050565b6200055f81620003c2565b60a081016200058082886200055d565b6200058f60208301876200055d565b6200059e60408301866200055d565b620005ad60608301856200055d565b620005bc608083018462000565565b9695505050505050565b60208082528101620003cf81601081526f29b2b73232b9103737ba1037bbb732b960811b602082015260400190565b61110680620006056000396000f3fe608060405234801561001057600080fd5b506004361061011d5760003560e01c806306fdde0314610122578063095ea7b31461014057806313af40351461016057806318160ddd1461017557806323b872dd1461018b57806327c97fa51461019e57806330adf81f146101b1578063313ce567146101c65780633644e515146101e057806340c10f19146101e957806370a08231146101fc5780637ecebe001461021c5780638da5cb5b1461023c57806395d89b411461025c5780639dc29fac14610264578063a9059cbb14610277578063b6a5d7de1461028a578063b91816111461029d578063d505accf146102c0578063da46098c146102d3578063dd62ed3e1461030d578063e30443bc14610338578063fe9fbb8014610362575b600080fd5b61012a61038e565b6040516101379190610aff565b60405180910390f35b61015361014e366004610b51565b61041c565b6040516101379190610b98565b61017361016e366004610ba6565b610475565b005b61017e60095481565b6040516101379190610bd5565b610153610199366004610be3565b6104ca565b6101736101ac366004610ba6565b61061e565b61017e60008051602061109183398151915281565b6002546101d39060ff1681565b6040516101379190610c3c565b61017e60065481565b6101736101f7366004610b51565b610669565b61017e61020a366004610ba6565b60036020526000908152604090205481565b61017e61022a366004610ba6565b60056020526000908152604090205481565b60075461024f906001600160a01b031681565b6040516101379190610c53565b61012a6106a1565b610173610272366004610b51565b6106ae565b610153610285366004610b51565b6106e2565b610173610298366004610ba6565b6106f6565b6101536102ab366004610ba6565b60086020526000908152604090205460ff1681565b6101736102ce366004610c75565b61074b565b6101736102e1366004610be3565b6001600160a01b0392831660009081526004602090815260408083209490951682529290925291902055565b61017e61031b366004610d14565b600460209081526000928352604080842090915290825290205481565b610173610346366004610b51565b6001600160a01b03909116600090815260036020526040902055565b610153610370366004610ba6565b6001600160a01b031660009081526008602052604090205460ff1690565b6000805461039b90610d5d565b80601f01602080910402602001604051908101604052809291908181526020018280546103c790610d5d565b80156104145780601f106103e957610100808354040283529160200191610414565b820191906000526020600020905b8154815290600101906020018083116103f757829003601f168201915b505050505081565b3360008181526004602090815260408083206001600160a01b038716808552925280832085905551919290916000805160206110b183398151915290610463908690610bd5565b60405180910390a35060015b92915050565b6007546001600160a01b031633146104a85760405162461bcd60e51b815260040161049f90610db4565b60405180910390fd5b600780546001600160a01b0319166001600160a01b0392909216919091179055565b6001600160a01b038316600090815260036020526040812054828110156105035760405162461bcd60e51b815260040161049f90610df6565b6001600160a01b0385163314610591576001600160a01b0385166000908152600460209081526040808320338452909152902054600019811461058f57838110156105605760405162461bcd60e51b815260040161049f90610e3a565b61056a8482610e60565b6001600160a01b03871660009081526004602090815260408083203384529091529020555b505b61059b8382610e60565b6001600160a01b0380871660009081526003602052604080822093909355908616815220546105cb908490610e77565b6001600160a01b0380861660008181526003602052604090819020939093559151908716906000805160206110718339815191529061060b908790610bd5565b60405180910390a3506001949350505050565b6007546001600160a01b031633146106485760405162461bcd60e51b815260040161049f90610db4565b6001600160a01b03166000908152600860205260409020805460ff19169055565b6007546001600160a01b031633146106935760405162461bcd60e51b815260040161049f90610db4565b61069d828261095b565b5050565b6001805461039b90610d5d565b6007546001600160a01b031633146106d85760405162461bcd60e51b815260040161049f90610db4565b61069d82826109ea565b60006106ef3384846104ca565b9392505050565b6007546001600160a01b031633146107205760405162461bcd60e51b815260040161049f90610db4565b610748816001600160a01b03166000908152600860205260409020805460ff19166001179055565b50565b6006546001600160a01b038816600090815260056020908152604080832054905192939261079292600080516020611091833981519152928d928d928d92918d9101610e8f565b604051602081830303815290604052805190602001206040516020016107b9929190610ee9565b60408051601f19818403018152919052805160209091012090506001600160a01b0388166107f95760405162461bcd60e51b815260040161049f90610f49565b6001818585856040516000815260200160405260405161081c9493929190610f59565b6020604051602081039080840390855afa15801561083e573d6000803e3d6000fd5b505050602060405103516001600160a01b0316886001600160a01b0316146108785760405162461bcd60e51b815260040161049f90610fc3565b8415806108855750844211155b6108a15760405162461bcd60e51b815260040161049f90610fff565b6fa2a8918ca85bafe22016d0b997e4df60600160ff1b038211156108d75760405162461bcd60e51b815260040161049f9061100f565b6001600160a01b03881660009081526005602052604081208054916108fb83611055565b90915550506001600160a01b038089166000818152600460209081526040808320948c168084529490915290819020899055516000805160206110b183398151915290610949908a90610bd5565b60405180910390a35050505050505050565b6001600160a01b03821660009081526003602052604090205461097f908290610e77565b6001600160a01b038316600090815260036020526040812091909155600980548392906109ad908490610e77565b90915550506040516001600160a01b03831690600090600080516020611071833981519152906109de908590610bd5565b60405180910390a35050565b6001600160a01b03821660009081526003602052604090205481811015610a29576001600160a01b038316600090815260036020526040812055610a4d565b610a338282610e60565b6001600160a01b0384166000908152600360205260409020555b8160096000828254610a5f9190610e60565b90915550506040516000906001600160a01b0385169060008051602061107183398151915290610a90908690610bd5565b60405180910390a3505050565b60005b83811015610ab8578181015183820152602001610aa0565b83811115610ac7576000848401525b50505050565b6000610ad7825190565b808452602084019350610aee818560208601610a9d565b601f01601f19169290920192915050565b602080825281016106ef8184610acd565b60006001600160a01b03821661046f565b610b2a81610b10565b811461074857600080fd5b803561046f81610b21565b80610b2a565b803561046f81610b40565b60008060408385031215610b6757610b67600080fd5b6000610b738585610b35565b9250506020610b8485828601610b46565b9150509250929050565b8015155b82525050565b6020810161046f8284610b8e565b600060208284031215610bbb57610bbb600080fd5b6000610bc78484610b35565b949350505050565b80610b92565b6020810161046f8284610bcf565b600080600060608486031215610bfb57610bfb600080fd5b6000610c078686610b35565b9350506020610c1886828701610b35565b9250506040610c2986828701610b46565b9150509250925092565b60ff8116610b92565b6020810161046f8284610c33565b610b9281610b10565b6020810161046f8284610c4a565b60ff8116610b2a565b803561046f81610c61565b600080600080600080600060e0888a031215610c9357610c93600080fd5b6000610c9f8a8a610b35565b9750506020610cb08a828b01610b35565b9650506040610cc18a828b01610b46565b9550506060610cd28a828b01610b46565b9450506080610ce38a828b01610c6a565b93505060a0610cf48a828b01610b46565b92505060c0610d058a828b01610b46565b91505092959891949750929550565b60008060408385031215610d2a57610d2a600080fd5b6000610d368585610b35565b9250506020610b8485828601610b35565b634e487b7160e01b600052602260045260246000fd5b600281046001821680610d7157607f821691505b60208210811415610d8457610d84610d47565b50919050565b601081526000602082016f29b2b73232b9103737ba1037bbb732b960811b815291505b5060200190565b6020808252810161046f81610d8a565b601b81526000602082017a45524332303a20696e73756666696369656e742d62616c616e636560281b81529150610dad565b6020808252810161046f81610dc4565b601d81526000602082017f45524332303a20696e73756666696369656e742d616c6c6f77616e636500000081529150610dad565b6020808252810161046f81610e06565b634e487b7160e01b600052601160045260246000fd5b600082821015610e7257610e72610e4a565b500390565b60008219821115610e8a57610e8a610e4a565b500190565b60c08101610e9d8289610bcf565b610eaa6020830188610c4a565b610eb76040830187610c4a565b610ec46060830186610bcf565b610ed16080830185610bcf565b610ede60a0830184610bcf565b979650505050505050565b61190160f01b81526002016000610f008285610bcf565b602082019150610f108284610bcf565b5060200192915050565b6018815260006020820177045524332303a20696e76616c69642d616464726573732d360441b81529150610dad565b6020808252810161046f81610f1a565b60808101610f678287610bcf565b610f746020830186610c33565b610f816040830185610bcf565b610f8e6060830184610bcf565b95945050505050565b6015815260006020820174115490cc8c0e881a5b9d985b1a590b5c195c9b5a5d605a1b81529150610dad565b6020808252810161046f81610f97565b6015815260006020820174115490cc8c0e881c195c9b5a5d0b595e1c1a5c9959605a1b81529150610dad565b6020808252810161046f81610fd3565b6020808252810161046f81602281527f45524332303a20696e76616c6964207369676e6174757265202773272076616c602082015261756560f01b604082015260600190565b600060001982141561106957611069610e4a565b506001019056feddf252ad1be2c89b69c2b068fc378daa952ba7f163c4a11628f55a4df523b3ef6e71edae12b1b97f4d1f60370fef10105fa2faae0126114a169c64845d6126c98c5be1e5ebec7d5bd14f71427d1e84f3dd0314c0f7b2291e5b200ac8c7c3b925a264697066735822122021b3e723863cf2ee6eee678ac7f02b75d0460ff7a269b85f12e6516d6cffd61e64736f6c634300080a0033","opcodes":"PUSH1 0x80 PUSH1 0x40 MSTORE CALLVALUE DUP1 ISZERO PUSH3 0x11 JUMPI PUSH1 0x0 DUP1 REVERT JUMPDEST POP PUSH1 0x40 MLOAD PUSH3 0x170B CODESIZE SUB DUP1 PUSH3 0x170B DUP4 CODECOPY DUP2 ADD PUSH1 0x40 DUP2 SWAP1 MSTORE PUSH3 0x34 SWAP2 PUSH3 0x3FC JUMP JUMPDEST DUP3 DUP3 DUP3 DUP3 DUP3 DUP2 PUSH1 0x0 SWAP1 DUP1 MLOAD SWAP1 PUSH1 0x20 ADD SWAP1 PUSH3 0x51 SWAP3 SWAP2 SWAP1 PUSH3 0x1CF JUMP JUMPDEST POP DUP1 MLOAD PUSH3 0x67 SWAP1 PUSH1 0x1 SWAP1 PUSH1 0x20 DUP5 ADD SWAP1 PUSH3 0x1CF JUMP JUMPDEST POP PUSH1 0x2 DUP1 SLOAD PUSH1 0xFF NOT AND PUSH1 0x12 OR SWAP1 SSTORE PUSH1 0x3 PUSH1 0x20 MSTORE PUSH1 0x0 NOT PUSH32 0x3617319A054D772F909F7C479A2CEBE5066E836A939412E32403C99029B92EFF DUP2 SWAP1 SSTORE ADDRESS PUSH1 0x0 SWAP1 DUP2 MSTORE PUSH1 0x40 SWAP1 KECCAK256 SSTORE PUSH32 0x8B73C3C69BB8FE3D512ECC4CF759CC79239F7B179B0FFACAA9A75D522B39400F PUSH1 0x0 PUSH1 0x40 MLOAD PUSH3 0xDE SWAP2 SWAP1 PUSH3 0x548 JUMP JUMPDEST PUSH1 0x40 DUP1 MLOAD SWAP2 DUP3 SWAP1 SUB DUP3 KECCAK256 DUP3 DUP3 ADD DUP3 MSTORE PUSH1 0x1 DUP4 MSTORE PUSH1 0x31 PUSH1 0xF8 SHL PUSH1 0x20 SWAP4 DUP5 ADD MSTORE SWAP1 MLOAD PUSH3 0x131 SWAP4 SWAP3 PUSH32 0xC89EFDAA54C0F20C7ADF612882DF0950F5A951637E0307CDCB4C672F298B8BC6 SWAP2 CHAINID SWAP2 ADDRESS SWAP2 ADD PUSH3 0x570 JUMP JUMPDEST PUSH1 0x40 DUP1 MLOAD PUSH1 0x1F NOT DUP2 DUP5 SUB ADD DUP2 MSTORE SWAP2 SWAP1 MSTORE DUP1 MLOAD PUSH1 0x20 SWAP1 SWAP2 ADD KECCAK256 PUSH1 0x6 SSTORE POP POP PUSH1 0x7 DUP1 SLOAD PUSH1 0x1 PUSH1 0x1 PUSH1 0xA0 SHL SUB NOT AND CALLER OR SWAP1 SSTORE PUSH3 0x16B DUP2 PUSH3 0x177 JUMP JUMPDEST POP POP POP POP POP POP PUSH3 0x5F5 JUMP JUMPDEST PUSH1 0x7 SLOAD PUSH1 0x1 PUSH1 0x1 PUSH1 0xA0 SHL SUB AND CALLER EQ PUSH3 0x1AD JUMPI PUSH1 0x40 MLOAD PUSH3 0x461BCD PUSH1 0xE5 SHL DUP2 MSTORE PUSH1 0x4 ADD PUSH3 0x1A4 SWAP1 PUSH3 0x5C6 JUMP JUMPDEST PUSH1 0x40 MLOAD DUP1 SWAP2 SUB SWAP1 REVERT JUMPDEST PUSH1 0x7 DUP1 SLOAD PUSH1 0x1 PUSH1 0x1 PUSH1 0xA0 SHL SUB NOT AND PUSH1 0x1 PUSH1 0x1 PUSH1 0xA0 SHL SUB SWAP3 SWAP1 SWAP3 AND SWAP2 SWAP1 SWAP2 OR SWAP1 SSTORE JUMP JUMPDEST DUP3 DUP1 SLOAD PUSH3 0x1DD SWAP1 PUSH3 0x4A1 JUMP JUMPDEST SWAP1 PUSH1 0x0 MSTORE PUSH1 0x20 PUSH1 0x0 KECCAK256 SWAP1 PUSH1 0x1F ADD PUSH1 0x20 SWAP1 DIV DUP2 ADD SWAP3 DUP3 PUSH3 0x201 JUMPI PUSH1 0x0 DUP6 SSTORE PUSH3 0x24C JUMP JUMPDEST DUP3 PUSH1 0x1F LT PUSH3 0x21C JUMPI DUP1 MLOAD PUSH1 0xFF NOT AND DUP4 DUP1 ADD OR DUP6 SSTORE PUSH3 0x24C JUMP JUMPDEST DUP3 DUP1 ADD PUSH1 0x1 ADD DUP6 SSTORE DUP3 ISZERO PUSH3 0x24C JUMPI SWAP2 DUP3 ADD JUMPDEST DUP3 DUP2 GT ISZERO PUSH3 0x24C JUMPI DUP3 MLOAD DUP3 SSTORE SWAP2 PUSH1 0x20 ADD SWAP2 SWAP1 PUSH1 0x1 ADD SWAP1 PUSH3 0x22F JUMP JUMPDEST POP PUSH3 0x25A SWAP3 SWAP2 POP PUSH3 0x25E JUMP JUMPDEST POP SWAP1 JUMP JUMPDEST JUMPDEST DUP1 DUP3 GT ISZERO PUSH3 0x25A JUMPI PUSH1 0x0 DUP2 SSTORE PUSH1 0x1 ADD PUSH3 0x25F JUMP JUMPDEST PUSH1 0x1F ADD PUSH1 0x1F NOT AND SWAP1 JUMP JUMPDEST PUSH4 0x4E487B71 PUSH1 0xE0 SHL PUSH1 0x0 MSTORE PUSH1 0x41 PUSH1 0x4 MSTORE PUSH1 0x24 PUSH1 0x0 REVERT JUMPDEST PUSH3 0x2A0 DUP3 PUSH3 0x275 JUMP JUMPDEST DUP2 ADD DUP2 DUP2 LT PUSH1 0x1 PUSH1 0x1 PUSH1 0x40 SHL SUB DUP3 GT OR ISZERO PUSH3 0x2C0 JUMPI PUSH3 0x2C0 PUSH3 0x27F JUMP JUMPDEST PUSH1 0x40 MSTORE POP POP JUMP JUMPDEST PUSH1 0x0 PUSH3 0x2D3 PUSH1 0x40 MLOAD SWAP1 JUMP JUMPDEST SWAP1 POP PUSH3 0x2E1 DUP3 DUP3 PUSH3 0x295 JUMP JUMPDEST SWAP2 SWAP1 POP JUMP JUMPDEST PUSH1 0x0 PUSH1 0x1 PUSH1 0x1 PUSH1 0x40 SHL SUB DUP3 GT ISZERO PUSH3 0x302 JUMPI PUSH3 0x302 PUSH3 0x27F JUMP JUMPDEST PUSH3 0x30D DUP3 PUSH3 0x275 JUMP JUMPDEST PUSH1 0x20 ADD SWAP3 SWAP2 POP POP JUMP JUMPDEST PUSH1 0x0 JUMPDEST DUP4 DUP2 LT ISZERO PUSH3 0x333 JUMPI DUP2 DUP2 ADD MLOAD DUP4 DUP3 ADD MSTORE PUSH1 0x20 ADD PUSH3 0x319 JUMP JUMPDEST DUP4 DUP2 GT ISZERO PUSH3 0x343 JUMPI PUSH1 0x0 DUP5 DUP5 ADD MSTORE JUMPDEST POP POP POP POP JUMP JUMPDEST PUSH1 0x0 PUSH3 0x360 PUSH3 0x35A DUP5 PUSH3 0x2E6 JUMP JUMPDEST PUSH3 0x2C7 JUMP JUMPDEST SWAP1 POP DUP3 DUP2 MSTORE PUSH1 0x20 DUP2 ADD DUP5 DUP5 DUP5 ADD GT ISZERO PUSH3 0x37D JUMPI PUSH3 0x37D PUSH1 0x0 DUP1 REVERT JUMPDEST PUSH3 0x38A DUP5 DUP3 DUP6 PUSH3 0x316 JUMP JUMPDEST POP SWAP4 SWAP3 POP POP POP JUMP JUMPDEST PUSH1 0x0 DUP3 PUSH1 0x1F DUP4 ADD SLT PUSH3 0x3A8 JUMPI PUSH3 0x3A8 PUSH1 0x0 DUP1 REVERT JUMPDEST DUP2 MLOAD PUSH3 0x3BA DUP5 DUP3 PUSH1 0x20 DUP7 ADD PUSH3 0x349 JUMP JUMPDEST SWAP5 SWAP4 POP POP POP POP JUMP JUMPDEST PUSH1 0x0 PUSH1 0x1 PUSH1 0x1 PUSH1 0xA0 SHL SUB DUP3 AND JUMPDEST SWAP3 SWAP2 POP POP JUMP JUMPDEST PUSH3 0x3E0 DUP2 PUSH3 0x3C2 JUMP JUMPDEST DUP2 EQ PUSH3 0x3EC JUMPI PUSH1 0x0 DUP1 REVERT JUMPDEST POP JUMP JUMPDEST DUP1 MLOAD PUSH3 0x3CF DUP2 PUSH3 0x3D5 JUMP JUMPDEST PUSH1 0x0 DUP1 PUSH1 0x0 PUSH1 0x60 DUP5 DUP7 SUB SLT ISZERO PUSH3 0x416 JUMPI PUSH3 0x416 PUSH1 0x0 DUP1 REVERT JUMPDEST DUP4 MLOAD PUSH1 0x1 PUSH1 0x1 PUSH1 0x40 SHL SUB DUP2 GT ISZERO PUSH3 0x431 JUMPI PUSH3 0x431 PUSH1 0x0 DUP1 REVERT JUMPDEST PUSH3 0x43F DUP7 DUP3 DUP8 ADD PUSH3 0x392 JUMP JUMPDEST SWAP4 POP POP PUSH1 0x20 DUP5 ADD MLOAD PUSH1 0x1 PUSH1 0x1 PUSH1 0x40 SHL SUB DUP2 GT ISZERO PUSH3 0x460 JUMPI PUSH3 0x460 PUSH1 0x0 DUP1 REVERT JUMPDEST PUSH3 0x46E DUP7 DUP3 DUP8 ADD PUSH3 0x392 JUMP JUMPDEST SWAP3 POP POP PUSH1 0x40 PUSH3 0x481 DUP7 DUP3 DUP8 ADD PUSH3 0x3EF JUMP JUMPDEST SWAP2 POP POP SWAP3 POP SWAP3 POP SWAP3 JUMP JUMPDEST PUSH4 0x4E487B71 PUSH1 0xE0 SHL PUSH1 0x0 MSTORE PUSH1 0x22 PUSH1 0x4 MSTORE PUSH1 0x24 PUSH1 0x0 REVERT JUMPDEST PUSH1 0x2 DUP2 DIV PUSH1 0x1 DUP3 AND DUP1 PUSH3 0x4B6 JUMPI PUSH1 0x7F DUP3 AND SWAP2 POP JUMPDEST PUSH1 0x20 DUP3 LT DUP2 EQ ISZERO PUSH3 0x4CC JUMPI PUSH3 0x4CC PUSH3 0x48B JUMP JUMPDEST POP SWAP2 SWAP1 POP JUMP JUMPDEST PUSH1 0x0 DUP2 SLOAD PUSH3 0x4E1 DUP2 PUSH3 0x4A1 JUMP JUMPDEST PUSH1 0x1 DUP3 AND DUP1 ISZERO PUSH3 0x4FB JUMPI PUSH1 0x1 DUP2 EQ PUSH3 0x50D JUMPI PUSH3 0x53F JUMP JUMPDEST PUSH1 0xFF NOT DUP4 AND DUP7 MSTORE DUP2 DUP7 ADD SWAP4 POP PUSH3 0x53F JUMP JUMPDEST PUSH1 0x0 DUP6 DUP2 MSTORE PUSH1 0x20 SWAP1 KECCAK256 PUSH1 0x0 JUMPDEST DUP4 DUP2 LT ISZERO PUSH3 0x537 JUMPI DUP2 SLOAD DUP9 DUP3 ADD MSTORE PUSH1 0x1 SWAP1 SWAP2 ADD SWAP1 PUSH1 0x20 ADD PUSH3 0x519 JUMP JUMPDEST DUP4 DUP9 ADD SWAP6 POP POP POP JUMPDEST POP POP POP SWAP3 SWAP2 POP POP JUMP JUMPDEST PUSH1 0x0 PUSH3 0x556 DUP3 DUP5 PUSH3 0x4D2 JUMP JUMPDEST SWAP4 SWAP3 POP POP POP JUMP JUMPDEST DUP1 JUMPDEST DUP3 MSTORE POP POP JUMP JUMPDEST PUSH3 0x55F DUP2 PUSH3 0x3C2 JUMP JUMPDEST PUSH1 0xA0 DUP2 ADD PUSH3 0x580 DUP3 DUP9 PUSH3 0x55D JUMP JUMPDEST PUSH3 0x58F PUSH1 0x20 DUP4 ADD DUP8 PUSH3 0x55D JUMP JUMPDEST PUSH3 0x59E PUSH1 0x40 DUP4 ADD DUP7 PUSH3 0x55D JUMP JUMPDEST PUSH3 0x5AD PUSH1 0x60 DUP4 ADD DUP6 PUSH3 0x55D JUMP JUMPDEST PUSH3 0x5BC PUSH1 0x80 DUP4 ADD DUP5 PUSH3 0x565 JUMP JUMPDEST SWAP7 SWAP6 POP POP POP POP POP POP JUMP JUMPDEST PUSH1 0x20 DUP1 DUP3 MSTORE DUP2 ADD PUSH3 0x3CF DUP2 PUSH1 0x10 DUP2 MSTORE PUSH16 0x29B2B73232B9103737BA1037BBB732B9 PUSH1 0x81 SHL PUSH1 0x20 DUP3 ADD MSTORE PUSH1 0x40 ADD SWAP1 JUMP JUMPDEST PUSH2 0x1106 DUP1 PUSH3 0x605 PUSH1 0x0 CODECOPY PUSH1 0x0 RETURN INVALID PUSH1 0x80 PUSH1 0x40 MSTORE CALLVALUE DUP1 ISZERO PUSH2 0x10 JUMPI PUSH1 0x0 DUP1 REVERT JUMPDEST POP PUSH1 0x4 CALLDATASIZE LT PUSH2 0x11D JUMPI PUSH1 0x0 CALLDATALOAD PUSH1 0xE0 SHR DUP1 PUSH4 0x6FDDE03 EQ PUSH2 0x122 JUMPI DUP1 PUSH4 0x95EA7B3 EQ PUSH2 0x140 JUMPI DUP1 PUSH4 0x13AF4035 EQ PUSH2 0x160 JUMPI DUP1 PUSH4 0x18160DDD EQ PUSH2 0x175 JUMPI DUP1 PUSH4 0x23B872DD EQ PUSH2 0x18B JUMPI DUP1 PUSH4 0x27C97FA5 EQ PUSH2 0x19E JUMPI DUP1 PUSH4 0x30ADF81F EQ PUSH2 0x1B1 JUMPI DUP1 PUSH4 0x313CE567 EQ PUSH2 0x1C6 JUMPI DUP1 PUSH4 0x3644E515 EQ PUSH2 0x1E0 JUMPI DUP1 PUSH4 0x40C10F19 EQ PUSH2 0x1E9 JUMPI DUP1 PUSH4 0x70A08231 EQ PUSH2 0x1FC JUMPI DUP1 PUSH4 0x7ECEBE00 EQ PUSH2 0x21C JUMPI DUP1 PUSH4 0x8DA5CB5B EQ PUSH2 0x23C JUMPI DUP1 PUSH4 0x95D89B41 EQ PUSH2 0x25C JUMPI DUP1 PUSH4 0x9DC29FAC EQ PUSH2 0x264 JUMPI DUP1 PUSH4 0xA9059CBB EQ PUSH2 0x277 JUMPI DUP1 PUSH4 0xB6A5D7DE EQ PUSH2 0x28A JUMPI DUP1 PUSH4 0xB9181611 EQ PUSH2 0x29D JUMPI DUP1 PUSH4 0xD505ACCF EQ PUSH2 0x2C0 JUMPI DUP1 PUSH4 0xDA46098C EQ PUSH2 0x2D3 JUMPI DUP1 PUSH4 0xDD62ED3E EQ PUSH2 0x30D JUMPI DUP1 PUSH4 0xE30443BC EQ PUSH2 0x338 JUMPI DUP1 PUSH4 0xFE9FBB80 EQ PUSH2 0x362 JUMPI JUMPDEST PUSH1 0x0 DUP1 REVERT JUMPDEST PUSH2 0x12A PUSH2 0x38E JUMP JUMPDEST PUSH1 0x40 MLOAD PUSH2 0x137 SWAP2 SWAP1 PUSH2 0xAFF JUMP JUMPDEST PUSH1 0x40 MLOAD DUP1 SWAP2 SUB SWAP1 RETURN JUMPDEST PUSH2 0x153 PUSH2 0x14E CALLDATASIZE PUSH1 0x4 PUSH2 0xB51 JUMP JUMPDEST PUSH2 0x41C JUMP JUMPDEST PUSH1 0x40 MLOAD PUSH2 0x137 SWAP2 SWAP1 PUSH2 0xB98 JUMP JUMPDEST PUSH2 0x173 PUSH2 0x16E CALLDATASIZE PUSH1 0x4 PUSH2 0xBA6 JUMP JUMPDEST PUSH2 0x475 JUMP JUMPDEST STOP JUMPDEST PUSH2 0x17E PUSH1 0x9 SLOAD DUP2 JUMP JUMPDEST PUSH1 0x40 MLOAD PUSH2 0x137 SWAP2 SWAP1 PUSH2 0xBD5 JUMP JUMPDEST PUSH2 0x153 PUSH2 0x199 CALLDATASIZE PUSH1 0x4 PUSH2 0xBE3 JUMP JUMPDEST PUSH2 0x4CA JUMP JUMPDEST PUSH2 0x173 PUSH2 0x1AC CALLDATASIZE PUSH1 0x4 PUSH2 0xBA6 JUMP JUMPDEST PUSH2 0x61E JUMP JUMPDEST PUSH2 0x17E PUSH1 0x0 DUP1 MLOAD PUSH1 0x20 PUSH2 0x1091 DUP4 CODECOPY DUP2 MLOAD SWAP2 MSTORE DUP2 JUMP JUMPDEST PUSH1 0x2 SLOAD PUSH2 0x1D3 SWAP1 PUSH1 0xFF AND DUP2 JUMP JUMPDEST PUSH1 0x40 MLOAD PUSH2 0x137 SWAP2 SWAP1 PUSH2 0xC3C JUMP JUMPDEST PUSH2 0x17E PUSH1 0x6 SLOAD DUP2 JUMP JUMPDEST PUSH2 0x173 PUSH2 0x1F7 CALLDATASIZE PUSH1 0x4 PUSH2 0xB51 JUMP JUMPDEST PUSH2 0x669 JUMP JUMPDEST PUSH2 0x17E PUSH2 0x20A CALLDATASIZE PUSH1 0x4 PUSH2 0xBA6 JUMP JUMPDEST PUSH1 0x3 PUSH1 0x20 MSTORE PUSH1 0x0 SWAP1 DUP2 MSTORE PUSH1 0x40 SWAP1 KECCAK256 SLOAD DUP2 JUMP JUMPDEST PUSH2 0x17E PUSH2 0x22A CALLDATASIZE PUSH1 0x4 PUSH2 0xBA6 JUMP JUMPDEST PUSH1 0x5 PUSH1 0x20 MSTORE PUSH1 0x0 SWAP1 DUP2 MSTORE PUSH1 0x40 SWAP1 KECCAK256 SLOAD DUP2 JUMP JUMPDEST PUSH1 0x7 SLOAD PUSH2 0x24F SWAP1 PUSH1 0x1 PUSH1 0x1 PUSH1 0xA0 SHL SUB AND DUP2 JUMP JUMPDEST PUSH1 0x40 MLOAD PUSH2 0x137 SWAP2 SWAP1 PUSH2 0xC53 JUMP JUMPDEST PUSH2 0x12A PUSH2 0x6A1 JUMP JUMPDEST PUSH2 0x173 PUSH2 0x272 CALLDATASIZE PUSH1 0x4 PUSH2 0xB51 JUMP JUMPDEST PUSH2 0x6AE JUMP JUMPDEST PUSH2 0x153 PUSH2 0x285 CALLDATASIZE PUSH1 0x4 PUSH2 0xB51 JUMP JUMPDEST PUSH2 0x6E2 JUMP JUMPDEST PUSH2 0x173 PUSH2 0x298 CALLDATASIZE PUSH1 0x4 PUSH2 0xBA6 JUMP JUMPDEST PUSH2 0x6F6 JUMP JUMPDEST PUSH2 0x153 PUSH2 0x2AB CALLDATASIZE PUSH1 0x4 PUSH2 0xBA6 JUMP JUMPDEST PUSH1 0x8 PUSH1 0x20 MSTORE PUSH1 0x0 SWAP1 DUP2 MSTORE PUSH1 0x40 SWAP1 KECCAK256 SLOAD PUSH1 0xFF AND DUP2 JUMP JUMPDEST PUSH2 0x173 PUSH2 0x2CE CALLDATASIZE PUSH1 0x4 PUSH2 0xC75 JUMP JUMPDEST PUSH2 0x74B JUMP JUMPDEST PUSH2 0x173 PUSH2 0x2E1 CALLDATASIZE PUSH1 0x4 PUSH2 0xBE3 JUMP JUMPDEST PUSH1 0x1 PUSH1 0x1 PUSH1 0xA0 SHL SUB SWAP3 DUP4 AND PUSH1 0x0 SWAP1 DUP2 MSTORE PUSH1 0x4 PUSH1 0x20 SWAP1 DUP2 MSTORE PUSH1 0x40 DUP1 DUP4 KECCAK256 SWAP5 SWAP1 SWAP6 AND DUP3 MSTORE SWAP3 SWAP1 SWAP3 MSTORE SWAP2 SWAP1 KECCAK256 SSTORE JUMP JUMPDEST PUSH2 0x17E PUSH2 0x31B CALLDATASIZE PUSH1 0x4 PUSH2 0xD14 JUMP JUMPDEST PUSH1 0x4 PUSH1 0x20 SWAP1 DUP2 MSTORE PUSH1 0x0 SWAP3 DUP4 MSTORE PUSH1 0x40 DUP1 DUP5 KECCAK256 SWAP1 SWAP2 MSTORE SWAP1 DUP3 MSTORE SWAP1 KECCAK256 SLOAD DUP2 JUMP JUMPDEST PUSH2 0x173 PUSH2 0x346 CALLDATASIZE PUSH1 0x4 PUSH2 0xB51 JUMP JUMPDEST PUSH1 0x1 PUSH1 0x1 PUSH1 0xA0 SHL SUB SWAP1 SWAP2 AND PUSH1 0x0 SWAP1 DUP2 MSTORE PUSH1 0x3 PUSH1 0x20 MSTORE PUSH1 0x40 SWAP1 KECCAK256 SSTORE JUMP JUMPDEST PUSH2 0x153 PUSH2 0x370 CALLDATASIZE PUSH1 0x4 PUSH2 0xBA6 JUMP JUMPDEST PUSH1 0x1 PUSH1 0x1 PUSH1 0xA0 SHL SUB AND PUSH1 0x0 SWAP1 DUP2 MSTORE PUSH1 0x8 PUSH1 0x20 MSTORE PUSH1 0x40 SWAP1 KECCAK256 SLOAD PUSH1 0xFF AND SWAP1 JUMP JUMPDEST PUSH1 0x0 DUP1 SLOAD PUSH2 0x39B SWAP1 PUSH2 0xD5D JUMP JUMPDEST DUP1 PUSH1 0x1F ADD PUSH1 0x20 DUP1 SWAP2 DIV MUL PUSH1 0x20 ADD PUSH1 0x40 MLOAD SWAP1 DUP2 ADD PUSH1 0x40 MSTORE DUP1 SWAP3 SWAP2 SWAP1 DUP2 DUP2 MSTORE PUSH1 0x20 ADD DUP3 DUP1 SLOAD PUSH2 0x3C7 SWAP1 PUSH2 0xD5D JUMP JUMPDEST DUP1 ISZERO PUSH2 0x414 JUMPI DUP1 PUSH1 0x1F LT PUSH2 0x3E9 JUMPI PUSH2 0x100 DUP1 DUP4 SLOAD DIV MUL DUP4 MSTORE SWAP2 PUSH1 0x20 ADD SWAP2 PUSH2 0x414 JUMP JUMPDEST DUP3 ADD SWAP2 SWAP1 PUSH1 0x0 MSTORE PUSH1 0x20 PUSH1 0x0 KECCAK256 SWAP1 JUMPDEST DUP2 SLOAD DUP2 MSTORE SWAP1 PUSH1 0x1 ADD SWAP1 PUSH1 0x20 ADD DUP1 DUP4 GT PUSH2 0x3F7 JUMPI DUP3 SWAP1 SUB PUSH1 0x1F AND DUP3 ADD SWAP2 JUMPDEST POP POP POP POP POP DUP2 JUMP JUMPDEST CALLER PUSH1 0x0 DUP2 DUP2 MSTORE PUSH1 0x4 PUSH1 0x20 SWAP1 DUP2 MSTORE PUSH1 0x40 DUP1 DUP4 KECCAK256 PUSH1 0x1 PUSH1 0x1 PUSH1 0xA0 SHL SUB DUP8 AND DUP1 DUP6 MSTORE SWAP3 MSTORE DUP1 DUP4 KECCAK256 DUP6 SWAP1 SSTORE MLOAD SWAP2 SWAP3 SWAP1 SWAP2 PUSH1 0x0 DUP1 MLOAD PUSH1 0x20 PUSH2 0x10B1 DUP4 CODECOPY DUP2 MLOAD SWAP2 MSTORE SWAP1 PUSH2 0x463 SWAP1 DUP7 SWAP1 PUSH2 0xBD5 JUMP JUMPDEST PUSH1 0x40 MLOAD DUP1 SWAP2 SUB SWAP1 LOG3 POP PUSH1 0x1 JUMPDEST SWAP3 SWAP2 POP POP JUMP JUMPDEST PUSH1 0x7 SLOAD PUSH1 0x1 PUSH1 0x1 PUSH1 0xA0 SHL SUB AND CALLER EQ PUSH2 0x4A8 JUMPI PUSH1 0x40 MLOAD PUSH3 0x461BCD PUSH1 0xE5 SHL DUP2 MSTORE PUSH1 0x4 ADD PUSH2 0x49F SWAP1 PUSH2 0xDB4 JUMP JUMPDEST PUSH1 0x40 MLOAD DUP1 SWAP2 SUB SWAP1 REVERT JUMPDEST PUSH1 0x7 DUP1 SLOAD PUSH1 0x1 PUSH1 0x1 PUSH1 0xA0 SHL SUB NOT AND PUSH1 0x1 PUSH1 0x1 PUSH1 0xA0 SHL SUB SWAP3 SWAP1 SWAP3 AND SWAP2 SWAP1 SWAP2 OR SWAP1 SSTORE JUMP JUMPDEST PUSH1 0x1 PUSH1 0x1 PUSH1 0xA0 SHL SUB DUP4 AND PUSH1 0x0 SWAP1 DUP2 MSTORE PUSH1 0x3 PUSH1 0x20 MSTORE PUSH1 0x40 DUP2 KECCAK256 SLOAD DUP3 DUP2 LT ISZERO PUSH2 0x503 JUMPI PUSH1 0x40 MLOAD PUSH3 0x461BCD PUSH1 0xE5 SHL DUP2 MSTORE PUSH1 0x4 ADD PUSH2 0x49F SWAP1 PUSH2 0xDF6 JUMP JUMPDEST PUSH1 0x1 PUSH1 0x1 PUSH1 0xA0 SHL SUB DUP6 AND CALLER EQ PUSH2 0x591 JUMPI PUSH1 0x1 PUSH1 0x1 PUSH1 0xA0 SHL SUB DUP6 AND PUSH1 0x0 SWAP1 DUP2 MSTORE PUSH1 0x4 PUSH1 0x20 SWAP1 DUP2 MSTORE PUSH1 0x40 DUP1 DUP4 KECCAK256 CALLER DUP5 MSTORE SWAP1 SWAP2 MSTORE SWAP1 KECCAK256 SLOAD PUSH1 0x0 NOT DUP2 EQ PUSH2 0x58F JUMPI DUP4 DUP2 LT ISZERO PUSH2 0x560 JUMPI PUSH1 0x40 MLOAD PUSH3 0x461BCD PUSH1 0xE5 SHL DUP2 MSTORE PUSH1 0x4 ADD PUSH2 0x49F SWAP1 PUSH2 0xE3A JUMP JUMPDEST PUSH2 0x56A DUP5 DUP3 PUSH2 0xE60 JUMP JUMPDEST PUSH1 0x1 PUSH1 0x1 PUSH1 0xA0 SHL SUB DUP8 AND PUSH1 0x0 SWAP1 DUP2 MSTORE PUSH1 0x4 PUSH1 0x20 SWAP1 DUP2 MSTORE PUSH1 0x40 DUP1 DUP4 KECCAK256 CALLER DUP5 MSTORE SWAP1 SWAP2 MSTORE SWAP1 KECCAK256 SSTORE JUMPDEST POP JUMPDEST PUSH2 0x59B DUP4 DUP3 PUSH2 0xE60 JUMP JUMPDEST PUSH1 0x1 PUSH1 0x1 PUSH1 0xA0 SHL SUB DUP1 DUP8 AND PUSH1 0x0 SWAP1 DUP2 MSTORE PUSH1 0x3 PUSH1 0x20 MSTORE PUSH1 0x40 DUP1 DUP3 KECCAK256 SWAP4 SWAP1 SWAP4 SSTORE SWAP1 DUP7 AND DUP2 MSTORE KECCAK256 SLOAD PUSH2 0x5CB SWAP1 DUP5 SWAP1 PUSH2 0xE77 JUMP JUMPDEST PUSH1 0x1 PUSH1 0x1 PUSH1 0xA0 SHL SUB DUP1 DUP7 AND PUSH1 0x0 DUP2 DUP2 MSTORE PUSH1 0x3 PUSH1 0x20 MSTORE PUSH1 0x40 SWAP1 DUP2 SWAP1 KECCAK256 SWAP4 SWAP1 SWAP4 SSTORE SWAP2 MLOAD SWAP1 DUP8 AND SWAP1 PUSH1 0x0 DUP1 MLOAD PUSH1 0x20 PUSH2 0x1071 DUP4 CODECOPY DUP2 MLOAD SWAP2 MSTORE SWAP1 PUSH2 0x60B SWAP1 DUP8 SWAP1 PUSH2 0xBD5 JUMP JUMPDEST PUSH1 0x40 MLOAD DUP1 SWAP2 SUB SWAP1 LOG3 POP PUSH1 0x1 SWAP5 SWAP4 POP POP POP POP JUMP JUMPDEST PUSH1 0x7 SLOAD PUSH1 0x1 PUSH1 0x1 PUSH1 0xA0 SHL SUB AND CALLER EQ PUSH2 0x648 JUMPI PUSH1 0x40 MLOAD PUSH3 0x461BCD PUSH1 0xE5 SHL DUP2 MSTORE PUSH1 0x4 ADD PUSH2 0x49F SWAP1 PUSH2 0xDB4 JUMP JUMPDEST PUSH1 0x1 PUSH1 0x1 PUSH1 0xA0 SHL SUB AND PUSH1 0x0 SWAP1 DUP2 MSTORE PUSH1 0x8 PUSH1 0x20 MSTORE PUSH1 0x40 SWAP1 KECCAK256 DUP1 SLOAD PUSH1 0xFF NOT AND SWAP1 SSTORE JUMP JUMPDEST PUSH1 0x7 SLOAD PUSH1 0x1 PUSH1 0x1 PUSH1 0xA0 SHL SUB AND CALLER EQ PUSH2 0x693 JUMPI PUSH1 0x40 MLOAD PUSH3 0x461BCD PUSH1 0xE5 SHL DUP2 MSTORE PUSH1 0x4 ADD PUSH2 0x49F SWAP1 PUSH2 0xDB4 JUMP JUMPDEST PUSH2 0x69D DUP3 DUP3 PUSH2 0x95B JUMP JUMPDEST POP POP JUMP JUMPDEST PUSH1 0x1 DUP1 SLOAD PUSH2 0x39B SWAP1 PUSH2 0xD5D JUMP JUMPDEST PUSH1 0x7 SLOAD PUSH1 0x1 PUSH1 0x1 PUSH1 0xA0 SHL SUB AND CALLER EQ PUSH2 0x6D8 JUMPI PUSH1 0x40 MLOAD PUSH3 0x461BCD PUSH1 0xE5 SHL DUP2 MSTORE PUSH1 0x4 ADD PUSH2 0x49F SWAP1 PUSH2 0xDB4 JUMP JUMPDEST PUSH2 0x69D DUP3 DUP3 PUSH2 0x9EA JUMP JUMPDEST PUSH1 0x0 PUSH2 0x6EF CALLER DUP5 DUP5 PUSH2 0x4CA JUMP JUMPDEST SWAP4 SWAP3 POP POP POP JUMP JUMPDEST PUSH1 0x7 SLOAD PUSH1 0x1 PUSH1 0x1 PUSH1 0xA0 SHL SUB AND CALLER EQ PUSH2 0x720 JUMPI PUSH1 0x40 MLOAD PUSH3 0x461BCD PUSH1 0xE5 SHL DUP2 MSTORE PUSH1 0x4 ADD PUSH2 0x49F SWAP1 PUSH2 0xDB4 JUMP JUMPDEST PUSH2 0x748 DUP2 PUSH1 0x1 PUSH1 0x1 PUSH1 0xA0 SHL SUB AND PUSH1 0x0 SWAP1 DUP2 MSTORE PUSH1 0x8 PUSH1 0x20 MSTORE PUSH1 0x40 SWAP1 KECCAK256 DUP1 SLOAD PUSH1 0xFF NOT AND PUSH1 0x1 OR SWAP1 SSTORE JUMP JUMPDEST POP JUMP JUMPDEST PUSH1 0x6 SLOAD PUSH1 0x1 PUSH1 0x1 PUSH1 0xA0 SHL SUB DUP9 AND PUSH1 0x0 SWAP1 DUP2 MSTORE PUSH1 0x5 PUSH1 0x20 SWAP1 DUP2 MSTORE PUSH1 0x40 DUP1 DUP4 KECCAK256 SLOAD SWAP1 MLOAD SWAP3 SWAP4 SWAP3 PUSH2 0x792 SWAP3 PUSH1 0x0 DUP1 MLOAD PUSH1 0x20 PUSH2 0x1091 DUP4 CODECOPY DUP2 MLOAD SWAP2 MSTORE SWAP3 DUP14 SWAP3 DUP14 SWAP3 DUP14 SWAP3 SWAP2 DUP14 SWAP2 ADD PUSH2 0xE8F JUMP JUMPDEST PUSH1 0x40 MLOAD PUSH1 0x20 DUP2 DUP4 SUB SUB DUP2 MSTORE SWAP1 PUSH1 0x40 MSTORE DUP1 MLOAD SWAP1 PUSH1 0x20 ADD KECCAK256 PUSH1 0x40 MLOAD PUSH1 0x20 ADD PUSH2 0x7B9 SWAP3 SWAP2 SWAP1 PUSH2 0xEE9 JUMP JUMPDEST PUSH1 0x40 DUP1 MLOAD PUSH1 0x1F NOT DUP2 DUP5 SUB ADD DUP2 MSTORE SWAP2 SWAP1 MSTORE DUP1 MLOAD PUSH1 0x20 SWAP1 SWAP2 ADD KECCAK256 SWAP1 POP PUSH1 0x1 PUSH1 0x1 PUSH1 0xA0 SHL SUB DUP9 AND PUSH2 0x7F9 JUMPI PUSH1 0x40 MLOAD PUSH3 0x461BCD PUSH1 0xE5 SHL DUP2 MSTORE PUSH1 0x4 ADD PUSH2 0x49F SWAP1 PUSH2 0xF49 JUMP JUMPDEST PUSH1 0x1 DUP2 DUP6 DUP6 DUP6 PUSH1 0x40 MLOAD PUSH1 0x0 DUP2 MSTORE PUSH1 0x20 ADD PUSH1 0x40 MSTORE PUSH1 0x40 MLOAD PUSH2 0x81C SWAP5 SWAP4 SWAP3 SWAP2 SWAP1 PUSH2 0xF59 JUMP JUMPDEST PUSH1 0x20 PUSH1 0x40 MLOAD PUSH1 0x20 DUP2 SUB SWAP1 DUP1 DUP5 SUB SWAP1 DUP6 GAS STATICCALL ISZERO DUP1 ISZERO PUSH2 0x83E JUMPI RETURNDATASIZE PUSH1 0x0 DUP1 RETURNDATACOPY RETURNDATASIZE PUSH1 0x0 REVERT JUMPDEST POP POP POP PUSH1 0x20 PUSH1 0x40 MLOAD SUB MLOAD PUSH1 0x1 PUSH1 0x1 PUSH1 0xA0 SHL SUB AND DUP9 PUSH1 0x1 PUSH1 0x1 PUSH1 0xA0 SHL SUB AND EQ PUSH2 0x878 JUMPI PUSH1 0x40 MLOAD PUSH3 0x461BCD PUSH1 0xE5 SHL DUP2 MSTORE PUSH1 0x4 ADD PUSH2 0x49F SWAP1 PUSH2 0xFC3 JUMP JUMPDEST DUP5 ISZERO DUP1 PUSH2 0x885 JUMPI POP DUP5 TIMESTAMP GT ISZERO JUMPDEST PUSH2 0x8A1 JUMPI PUSH1 0x40 MLOAD PUSH3 0x461BCD PUSH1 0xE5 SHL DUP2 MSTORE PUSH1 0x4 ADD PUSH2 0x49F SWAP1 PUSH2 0xFFF JUMP JUMPDEST PUSH16 0xA2A8918CA85BAFE22016D0B997E4DF60 PUSH1 0x1 PUSH1 0xFF SHL SUB DUP3 GT ISZERO PUSH2 0x8D7 JUMPI PUSH1 0x40 MLOAD PUSH3 0x461BCD PUSH1 0xE5 SHL DUP2 MSTORE PUSH1 0x4 ADD PUSH2 0x49F SWAP1 PUSH2 0x100F JUMP JUMPDEST PUSH1 0x1 PUSH1 0x1 PUSH1 0xA0 SHL SUB DUP9 AND PUSH1 0x0 SWAP1 DUP2 MSTORE PUSH1 0x5 PUSH1 0x20 MSTORE PUSH1 0x40 DUP2 KECCAK256 DUP1 SLOAD SWAP2 PUSH2 0x8FB DUP4 PUSH2 0x1055 JUMP JUMPDEST SWAP1 SWAP2 SSTORE POP POP PUSH1 0x1 PUSH1 0x1 PUSH1 0xA0 SHL SUB DUP1 DUP10 AND PUSH1 0x0 DUP2 DUP2 MSTORE PUSH1 0x4 PUSH1 0x20 SWAP1 DUP2 MSTORE PUSH1 0x40 DUP1 DUP4 KECCAK256 SWAP5 DUP13 AND DUP1 DUP5 MSTORE SWAP5 SWAP1 SWAP2 MSTORE SWAP1 DUP2 SWAP1 KECCAK256 DUP10 SWAP1 SSTORE MLOAD PUSH1 0x0 DUP1 MLOAD PUSH1 0x20 PUSH2 0x10B1 DUP4 CODECOPY DUP2 MLOAD SWAP2 MSTORE SWAP1 PUSH2 0x949 SWAP1 DUP11 SWAP1 PUSH2 0xBD5 JUMP JUMPDEST PUSH1 0x40 MLOAD DUP1 SWAP2 SUB SWAP1 LOG3 POP POP POP POP POP POP POP POP JUMP JUMPDEST PUSH1 0x1 PUSH1 0x1 PUSH1 0xA0 SHL SUB DUP3 AND PUSH1 0x0 SWAP1 DUP2 MSTORE PUSH1 0x3 PUSH1 0x20 MSTORE PUSH1 0x40 SWAP1 KECCAK256 SLOAD PUSH2 0x97F SWAP1 DUP3 SWAP1 PUSH2 0xE77 JUMP JUMPDEST PUSH1 0x1 PUSH1 0x1 PUSH1 0xA0 SHL SUB DUP4 AND PUSH1 0x0 SWAP1 DUP2 MSTORE PUSH1 0x3 PUSH1 0x20 MSTORE PUSH1 0x40 DUP2 KECCAK256 SWAP2 SWAP1 SWAP2 SSTORE PUSH1 0x9 DUP1 SLOAD DUP4 SWAP3 SWAP1 PUSH2 0x9AD SWAP1 DUP5 SWAP1 PUSH2 0xE77 JUMP JUMPDEST SWAP1 SWAP2 SSTORE POP POP PUSH1 0x40 MLOAD PUSH1 0x1 PUSH1 0x1 PUSH1 0xA0 SHL SUB DUP4 AND SWAP1 PUSH1 0x0 SWAP1 PUSH1 0x0 DUP1 MLOAD PUSH1 0x20 PUSH2 0x1071 DUP4 CODECOPY DUP2 MLOAD SWAP2 MSTORE SWAP1 PUSH2 0x9DE SWAP1 DUP6 SWAP1 PUSH2 0xBD5 JUMP JUMPDEST PUSH1 0x40 MLOAD DUP1 SWAP2 SUB SWAP1 LOG3 POP POP JUMP JUMPDEST PUSH1 0x1 PUSH1 0x1 PUSH1 0xA0 SHL SUB DUP3 AND PUSH1 0x0 SWAP1 DUP2 MSTORE PUSH1 0x3 PUSH1 0x20 MSTORE PUSH1 0x40 SWAP1 KECCAK256 SLOAD DUP2 DUP2 LT ISZERO PUSH2 0xA29 JUMPI PUSH1 0x1 PUSH1 0x1 PUSH1 0xA0 SHL SUB DUP4 AND PUSH1 0x0 SWAP1 DUP2 MSTORE PUSH1 0x3 PUSH1 0x20 MSTORE PUSH1 0x40 DUP2 KECCAK256 SSTORE PUSH2 0xA4D JUMP JUMPDEST PUSH2 0xA33 DUP3 DUP3 PUSH2 0xE60 JUMP JUMPDEST PUSH1 0x1 PUSH1 0x1 PUSH1 0xA0 SHL SUB DUP5 AND PUSH1 0x0 SWAP1 DUP2 MSTORE PUSH1 0x3 PUSH1 0x20 MSTORE PUSH1 0x40 SWAP1 KECCAK256 SSTORE JUMPDEST DUP2 PUSH1 0x9 PUSH1 0x0 DUP3 DUP3 SLOAD PUSH2 0xA5F SWAP2 SWAP1 PUSH2 0xE60 JUMP JUMPDEST SWAP1 SWAP2 SSTORE POP POP PUSH1 0x40 MLOAD PUSH1 0x0 SWAP1 PUSH1 0x1 PUSH1 0x1 PUSH1 0xA0 SHL SUB DUP6 AND SWAP1 PUSH1 0x0 DUP1 MLOAD PUSH1 0x20 PUSH2 0x1071 DUP4 CODECOPY DUP2 MLOAD SWAP2 MSTORE SWAP1 PUSH2 0xA90 SWAP1 DUP7 SWAP1 PUSH2 0xBD5 JUMP JUMPDEST PUSH1 0x40 MLOAD DUP1 SWAP2 SUB SWAP1 LOG3 POP POP POP JUMP JUMPDEST PUSH1 0x0 JUMPDEST DUP4 DUP2 LT ISZERO PUSH2 0xAB8 JUMPI DUP2 DUP2 ADD MLOAD DUP4 DUP3 ADD MSTORE PUSH1 0x20 ADD PUSH2 0xAA0 JUMP JUMPDEST DUP4 DUP2 GT ISZERO PUSH2 0xAC7 JUMPI PUSH1 0x0 DUP5 DUP5 ADD MSTORE JUMPDEST POP POP POP POP JUMP JUMPDEST PUSH1 0x0 PUSH2 0xAD7 DUP3 MLOAD SWAP1 JUMP JUMPDEST DUP1 DUP5 MSTORE PUSH1 0x20 DUP5 ADD SWAP4 POP PUSH2 0xAEE DUP2 DUP6 PUSH1 0x20 DUP7 ADD PUSH2 0xA9D JUMP JUMPDEST PUSH1 0x1F ADD PUSH1 0x1F NOT AND SWAP3 SWAP1 SWAP3 ADD SWAP3 SWAP2 POP POP JUMP JUMPDEST PUSH1 0x20 DUP1 DUP3 MSTORE DUP2 ADD PUSH2 0x6EF DUP2 DUP5 PUSH2 0xACD JUMP JUMPDEST PUSH1 0x0 PUSH1 0x1 PUSH1 0x1 PUSH1 0xA0 SHL SUB DUP3 AND PUSH2 0x46F JUMP JUMPDEST PUSH2 0xB2A DUP2 PUSH2 0xB10 JUMP JUMPDEST DUP2 EQ PUSH2 0x748 JUMPI PUSH1 0x0 DUP1 REVERT JUMPDEST DUP1 CALLDATALOAD PUSH2 0x46F DUP2 PUSH2 0xB21 JUMP JUMPDEST DUP1 PUSH2 0xB2A JUMP JUMPDEST DUP1 CALLDATALOAD PUSH2 0x46F DUP2 PUSH2 0xB40 JUMP JUMPDEST PUSH1 0x0 DUP1 PUSH1 0x40 DUP4 DUP6 SUB SLT ISZERO PUSH2 0xB67 JUMPI PUSH2 0xB67 PUSH1 0x0 DUP1 REVERT JUMPDEST PUSH1 0x0 PUSH2 0xB73 DUP6 DUP6 PUSH2 0xB35 JUMP JUMPDEST SWAP3 POP POP PUSH1 0x20 PUSH2 0xB84 DUP6 DUP3 DUP7 ADD PUSH2 0xB46 JUMP JUMPDEST SWAP2 POP POP SWAP3 POP SWAP3 SWAP1 POP JUMP JUMPDEST DUP1 ISZERO ISZERO JUMPDEST DUP3 MSTORE POP POP JUMP JUMPDEST PUSH1 0x20 DUP2 ADD PUSH2 0x46F DUP3 DUP5 PUSH2 0xB8E JUMP JUMPDEST PUSH1 0x0 PUSH1 0x20 DUP3 DUP5 SUB SLT ISZERO PUSH2 0xBBB JUMPI PUSH2 0xBBB PUSH1 0x0 DUP1 REVERT JUMPDEST PUSH1 0x0 PUSH2 0xBC7 DUP5 DUP5 PUSH2 0xB35 JUMP JUMPDEST SWAP5 SWAP4 POP POP POP POP JUMP JUMPDEST DUP1 PUSH2 0xB92 JUMP JUMPDEST PUSH1 0x20 DUP2 ADD PUSH2 0x46F DUP3 DUP5 PUSH2 0xBCF JUMP JUMPDEST PUSH1 0x0 DUP1 PUSH1 0x0 PUSH1 0x60 DUP5 DUP7 SUB SLT ISZERO PUSH2 0xBFB JUMPI PUSH2 0xBFB PUSH1 0x0 DUP1 REVERT JUMPDEST PUSH1 0x0 PUSH2 0xC07 DUP7 DUP7 PUSH2 0xB35 JUMP JUMPDEST SWAP4 POP POP PUSH1 0x20 PUSH2 0xC18 DUP7 DUP3 DUP8 ADD PUSH2 0xB35 JUMP JUMPDEST SWAP3 POP POP PUSH1 0x40 PUSH2 0xC29 DUP7 DUP3 DUP8 ADD PUSH2 0xB46 JUMP JUMPDEST SWAP2 POP POP SWAP3 POP SWAP3 POP SWAP3 JUMP JUMPDEST PUSH1 0xFF DUP2 AND PUSH2 0xB92 JUMP JUMPDEST PUSH1 0x20 DUP2 ADD PUSH2 0x46F DUP3 DUP5 PUSH2 0xC33 JUMP JUMPDEST PUSH2 0xB92 DUP2 PUSH2 0xB10 JUMP JUMPDEST PUSH1 0x20 DUP2 ADD PUSH2 0x46F DUP3 DUP5 PUSH2 0xC4A JUMP JUMPDEST PUSH1 0xFF DUP2 AND PUSH2 0xB2A JUMP JUMPDEST DUP1 CALLDATALOAD PUSH2 0x46F DUP2 PUSH2 0xC61 JUMP JUMPDEST PUSH1 0x0 DUP1 PUSH1 0x0 DUP1 PUSH1 0x0 DUP1 PUSH1 0x0 PUSH1 0xE0 DUP9 DUP11 SUB SLT ISZERO PUSH2 0xC93 JUMPI PUSH2 0xC93 PUSH1 0x0 DUP1 REVERT JUMPDEST PUSH1 0x0 PUSH2 0xC9F DUP11 DUP11 PUSH2 0xB35 JUMP JUMPDEST SWAP8 POP POP PUSH1 0x20 PUSH2 0xCB0 DUP11 DUP3 DUP12 ADD PUSH2 0xB35 JUMP JUMPDEST SWAP7 POP POP PUSH1 0x40 PUSH2 0xCC1 DUP11 DUP3 DUP12 ADD PUSH2 0xB46 JUMP JUMPDEST SWAP6 POP POP PUSH1 0x60 PUSH2 0xCD2 DUP11 DUP3 DUP12 ADD PUSH2 0xB46 JUMP JUMPDEST SWAP5 POP POP PUSH1 0x80 PUSH2 0xCE3 DUP11 DUP3 DUP12 ADD PUSH2 0xC6A JUMP JUMPDEST SWAP4 POP POP PUSH1 0xA0 PUSH2 0xCF4 DUP11 DUP3 DUP12 ADD PUSH2 0xB46 JUMP JUMPDEST SWAP3 POP POP PUSH1 0xC0 PUSH2 0xD05 DUP11 DUP3 DUP12 ADD PUSH2 0xB46 JUMP JUMPDEST SWAP2 POP POP SWAP3 SWAP6 SWAP9 SWAP2 SWAP5 SWAP8 POP SWAP3 SWAP6 POP JUMP JUMPDEST PUSH1 0x0 DUP1 PUSH1 0x40 DUP4 DUP6 SUB SLT ISZERO PUSH2 0xD2A JUMPI PUSH2 0xD2A PUSH1 0x0 DUP1 REVERT JUMPDEST PUSH1 0x0 PUSH2 0xD36 DUP6 DUP6 PUSH2 0xB35 JUMP JUMPDEST SWAP3 POP POP PUSH1 0x20 PUSH2 0xB84 DUP6 DUP3 DUP7 ADD PUSH2 0xB35 JUMP JUMPDEST PUSH4 0x4E487B71 PUSH1 0xE0 SHL PUSH1 0x0 MSTORE PUSH1 0x22 PUSH1 0x4 MSTORE PUSH1 0x24 PUSH1 0x0 REVERT JUMPDEST PUSH1 0x2 DUP2 DIV PUSH1 0x1 DUP3 AND DUP1 PUSH2 0xD71 JUMPI PUSH1 0x7F DUP3 AND SWAP2 POP JUMPDEST PUSH1 0x20 DUP3 LT DUP2 EQ ISZERO PUSH2 0xD84 JUMPI PUSH2 0xD84 PUSH2 0xD47 JUMP JUMPDEST POP SWAP2 SWAP1 POP JUMP JUMPDEST PUSH1 0x10 DUP2 MSTORE PUSH1 0x0 PUSH1 0x20 DUP3 ADD PUSH16 0x29B2B73232B9103737BA1037BBB732B9 PUSH1 0x81 SHL DUP2 MSTORE SWAP2 POP JUMPDEST POP PUSH1 0x20 ADD SWAP1 JUMP JUMPDEST PUSH1 0x20 DUP1 DUP3 MSTORE DUP2 ADD PUSH2 0x46F DUP2 PUSH2 0xD8A JUMP JUMPDEST PUSH1 0x1B DUP2 MSTORE PUSH1 0x0 PUSH1 0x20 DUP3 ADD PUSH27 0x45524332303A20696E73756666696369656E742D62616C616E6365 PUSH1 0x28 SHL DUP2 MSTORE SWAP2 POP PUSH2 0xDAD JUMP JUMPDEST PUSH1 0x20 DUP1 DUP3 MSTORE DUP2 ADD PUSH2 0x46F DUP2 PUSH2 0xDC4 JUMP JUMPDEST PUSH1 0x1D DUP2 MSTORE PUSH1 0x0 PUSH1 0x20 DUP3 ADD PUSH32 0x45524332303A20696E73756666696369656E742D616C6C6F77616E6365000000 DUP2 MSTORE SWAP2 POP PUSH2 0xDAD JUMP JUMPDEST PUSH1 0x20 DUP1 DUP3 MSTORE DUP2 ADD PUSH2 0x46F DUP2 PUSH2 0xE06 JUMP JUMPDEST PUSH4 0x4E487B71 PUSH1 0xE0 SHL PUSH1 0x0 MSTORE PUSH1 0x11 PUSH1 0x4 MSTORE PUSH1 0x24 PUSH1 0x0 REVERT JUMPDEST PUSH1 0x0 DUP3 DUP3 LT ISZERO PUSH2 0xE72 JUMPI PUSH2 0xE72 PUSH2 0xE4A JUMP JUMPDEST POP SUB SWAP1 JUMP JUMPDEST PUSH1 0x0 DUP3 NOT DUP3 GT ISZERO PUSH2 0xE8A JUMPI PUSH2 0xE8A PUSH2 0xE4A JUMP JUMPDEST POP ADD SWAP1 JUMP JUMPDEST PUSH1 0xC0 DUP2 ADD PUSH2 0xE9D DUP3 DUP10 PUSH2 0xBCF JUMP JUMPDEST PUSH2 0xEAA PUSH1 0x20 DUP4 ADD DUP9 PUSH2 0xC4A JUMP JUMPDEST PUSH2 0xEB7 PUSH1 0x40 DUP4 ADD DUP8 PUSH2 0xC4A JUMP JUMPDEST PUSH2 0xEC4 PUSH1 0x60 DUP4 ADD DUP7 PUSH2 0xBCF JUMP JUMPDEST PUSH2 0xED1 PUSH1 0x80 DUP4 ADD DUP6 PUSH2 0xBCF JUMP JUMPDEST PUSH2 0xEDE PUSH1 0xA0 DUP4 ADD DUP5 PUSH2 0xBCF JUMP JUMPDEST SWAP8 SWAP7 POP POP POP POP POP POP POP JUMP JUMPDEST PUSH2 0x1901 PUSH1 0xF0 SHL DUP2 MSTORE PUSH1 0x2 ADD PUSH1 0x0 PUSH2 0xF00 DUP3 DUP6 PUSH2 0xBCF JUMP JUMPDEST PUSH1 0x20 DUP3 ADD SWAP2 POP PUSH2 0xF10 DUP3 DUP5 PUSH2 0xBCF JUMP JUMPDEST POP PUSH1 0x20 ADD SWAP3 SWAP2 POP POP JUMP JUMPDEST PUSH1 0x18 DUP2 MSTORE PUSH1 0x0 PUSH1 0x20 DUP3 ADD PUSH24 0x45524332303A20696E76616C69642D616464726573732D3 PUSH1 0x44 SHL DUP2 MSTORE SWAP2 POP PUSH2 0xDAD JUMP JUMPDEST PUSH1 0x20 DUP1 DUP3 MSTORE DUP2 ADD PUSH2 0x46F DUP2 PUSH2 0xF1A JUMP JUMPDEST PUSH1 0x80 DUP2 ADD PUSH2 0xF67 DUP3 DUP8 PUSH2 0xBCF JUMP JUMPDEST PUSH2 0xF74 PUSH1 0x20 DUP4 ADD DUP7 PUSH2 0xC33 JUMP JUMPDEST PUSH2 0xF81 PUSH1 0x40 DUP4 ADD DUP6 PUSH2 0xBCF JUMP JUMPDEST PUSH2 0xF8E PUSH1 0x60 DUP4 ADD DUP5 PUSH2 0xBCF JUMP JUMPDEST SWAP6 SWAP5 POP POP POP POP POP JUMP JUMPDEST PUSH1 0x15 DUP2 MSTORE PUSH1 0x0 PUSH1 0x20 DUP3 ADD PUSH21 0x115490CC8C0E881A5B9D985B1A590B5C195C9B5A5D PUSH1 0x5A SHL DUP2 MSTORE SWAP2 POP PUSH2 0xDAD JUMP JUMPDEST PUSH1 0x20 DUP1 DUP3 MSTORE DUP2 ADD PUSH2 0x46F DUP2 PUSH2 0xF97 JUMP JUMPDEST PUSH1 0x15 DUP2 MSTORE PUSH1 0x0 PUSH1 0x20 DUP3 ADD PUSH21 0x115490CC8C0E881C195C9B5A5D0B595E1C1A5C9959 PUSH1 0x5A SHL DUP2 MSTORE SWAP2 POP PUSH2 0xDAD JUMP JUMPDEST PUSH1 0x20 DUP1 DUP3 MSTORE DUP2 ADD PUSH2 0x46F DUP2 PUSH2 0xFD3 JUMP JUMPDEST PUSH1 0x20 DUP1 DUP3 MSTORE DUP2 ADD PUSH2 0x46F DUP2 PUSH1 0x22 DUP2 MSTORE PUSH32 0x45524332303A20696E76616C6964207369676E6174757265202773272076616C PUSH1 0x20 DUP3 ADD MSTORE PUSH2 0x7565 PUSH1 0xF0 SHL PUSH1 0x40 DUP3 ADD MSTORE PUSH1 0x60 ADD SWAP1 JUMP JUMPDEST PUSH1 0x0 PUSH1 0x0 NOT DUP3 EQ ISZERO PUSH2 0x1069 JUMPI PUSH2 0x1069 PUSH2 0xE4A JUMP JUMPDEST POP PUSH1 0x1 ADD SWAP1 JUMP INVALID 0xDD CALLCODE MSTORE 0xAD SHL 0xE2 0xC8 SWAP12 PUSH10 0xC2B068FC378DAA952BA7 CALL PUSH4 0xC4A11628 CREATE2 GAS 0x4D CREATE2 0x23 0xB3 0xEF PUSH15 0x71EDAE12B1B97F4D1F60370FEF1010 0x5F LOG2 STATICCALL 0xAE ADD 0x26 GT 0x4A AND SWAP13 PUSH5 0x845D6126C9 DUP13 JUMPDEST 0xE1 0xE5 0xEB 0xEC PUSH30 0x5BD14F71427D1E84F3DD0314C0F7B2291E5B200AC8C7C3B925A264697066 PUSH20 0x5822122021B3E723863CF2EE6EEE678AC7F02B75 0xD0 CHAINID 0xF 0xF7 LOG2 PUSH10 0xB85F12E6516D6CFFD61E PUSH5 0x736F6C6343 STOP ADDMOD EXP STOP CALLER "},"gasEstimates":{"creation":{"codeDepositCost":"871600","executionCost":"infinite","totalCost":"infinite"},"external":{"DOMAIN_SEPARATOR()":"1226","PERMIT_TYPEHASH()":"infinite","allowance(address,address)":"infinite","approve(address,uint256)":"infinite","authorize(address)":"infinite","authorized(address)":"infinite","balanceOf(address)":"infinite","burn(address,uint256)":"infinite","deauthorize(address)":"infinite","decimals()":"1219","isAuthorized(address)":"infinite","mint(address,uint256)":"infinite","name()":"infinite","nonces(address)":"infinite","owner()":"infinite","permit(address,address,uint256,uint256,uint8,bytes32,bytes32)":"infinite","setAllowance(address,address,uint256)":"infinite","setBalance(address,uint256)":"infinite","setOwner(address)":"infinite","symbol()":"infinite","totalSupply()":"1116","transfer(address,uint256)":"infinite","transferFrom(address,address,uint256)":"infinite"}},"methodIdentifiers":{"DOMAIN_SEPARATOR()":"3644e515","PERMIT_TYPEHASH()":"30adf81f","allowance(address,address)":"dd62ed3e","approve(address,uint256)":"095ea7b3","authorize(address)":"b6a5d7de","authorized(address)":"b9181611","balanceOf(address)":"70a08231","burn(address,uint256)":"9dc29fac","deauthorize(address)":"27c97fa5","decimals()":"313ce567","isAuthorized(address)":"fe9fbb80","mint(address,uint256)":"40c10f19","name()":"06fdde03","nonces(address)":"7ecebe00","owner()":"8da5cb5b","permit(address,address,uint256,uint256,uint8,bytes32,bytes32)":"d505accf","setAllowance(address,address,uint256)":"da46098c","setBalance(address,uint256)":"e30443bc","setOwner(address)":"13af4035","symbol()":"95d89b41","totalSupply()":"18160ddd","transfer(address,uint256)":"a9059cbb","transferFrom(address,address,uint256)":"23b872dd"}},"storageLayout":{"storage":[{"astId":118,"contract":"contracts/mockHog.sol:MockHog","label":"name","offset":0,"slot":"0","type":"t_string_storage"},{"astId":121,"contract":"contracts/mockHog.sol:MockHog","label":"symbol","offset":0,"slot":"1","type":"t_string_storage"},{"astId":124,"contract":"contracts/mockHog.sol:MockHog","label":"decimals","offset":0,"slot":"2","type":"t_uint8"},{"astId":129,"contract":"contracts/mockHog.sol:MockHog","label":"balanceOf","offset":0,"slot":"3","type":"t_mapping(t_address,t_uint256)"},{"astId":136,"contract":"contracts/mockHog.sol:MockHog","label":"allowance","offset":0,"slot":"4","type":"t_mapping(t_address,t_mapping(t_address,t_uint256))"},{"astId":141,"contract":"contracts/mockHog.sol:MockHog","label":"nonces","offset":0,"slot":"5","type":"t_mapping(t_address,t_uint256)"},{"astId":144,"contract":"contracts/mockHog.sol:MockHog","label":"DOMAIN_SEPARATOR","offset":0,"slot":"6","type":"t_bytes32"},{"astId":3,"contract":"contracts/mockHog.sol:MockHog","label":"owner","offset":0,"slot":"7","type":"t_address"},{"astId":7,"contract":"contracts/mockHog.sol:MockHog","label":"authorized","offset":0,"slot":"8","type":"t_mapping(t_address,t_bool)"},{"astId":578,"contract":"contracts/mockHog.sol:MockHog","label":"totalSupply","offset":0,"slot":"9","type":"t_uint256"}],"types":{"t_address":{"encoding":"inplace","label":"address","numberOfBytes":"20"},"t_bool":{"encoding":"inplace","label":"bool","numberOfBytes":"1"},"t_bytes32":{"encoding":"inplace","label":"bytes32","numberOfBytes":"32"},"t_mapping(t_address,t_bool)":{"encoding":"mapping","key":"t_address","label":"mapping(address => bool)","numberOfBytes":"32","value":"t_bool"},"t_mapping(t_address,t_mapping(t_address,t_uint256))":{"encoding":"mapping","key":"t_address","label":"mapping(address => mapping(address => uint256))","numberOfBytes":"32","value":"t_mapping(t_address,t_uint256)"},"t_mapping(t_address,t_uint256)":{"encoding":"mapping","key":"t_address","label":"mapping(address => uint256)","numberOfBytes":"32","value":"t_uint256"},"t_string_storage":{"encoding":"bytes","label":"string","numberOfBytes":"32"},"t_uint256":{"encoding":"inplace","label":"uint256","numberOfBytes":"32"},"t_uint8":{"encoding":"inplace","label":"uint8","numberOfBytes":"1"}}},"userdoc":{"kind":"user","methods":{"approve(address,uint256)":{"notice":"This function allows a user to approve an account which can transfer         tokens on their behalf."},"burn(address,uint256)":{"notice":"Allows the governance to burn"},"mint(address,uint256)":{"notice":"Allows the governance to mint"},"permit(address,address,uint256,uint256,uint8,bytes32,bytes32)":{"notice":"This function allows a caller who is not the owner of an account to execute the functionality of 'approve' with the owners signature."},"transfer(address,uint256)":{"notice":"Allows a token owner to send tokens to another address"},"transferFrom(address,address,uint256)":{"notice":"Transfers an amount of erc20 from a spender to a receipt"}},"version":1}}}}