{
    "_format": "hh-sol-artifact-1",
    "contractName": "BorrowFacet",
    "sourceName": "contracts/Facets/BorrowFacet.sol",
    "abi": [
        {
            "inputs": [
                {
                    "internalType": "uint256[]",
                    "name": "_poolIDs",
                    "type": "uint256[]"
                },
                {
                    "components": [
                        {
                            "internalType": "int24",
                            "name": "lowerBound",
                            "type": "int24"
                        },
                        {
                            "internalType": "int24",
                            "name": "upperBound",
                            "type": "int24"
                        },
                        {
                            "internalType": "address",
                            "name": "desiredPool",
                            "type": "address"
                        },
                        {
                            "internalType": "uint256[2]",
                            "name": "takeLossProfit",
                            "type": "uint256[2]"
                        },
                        {
                            "internalType": "int24[2]",
                            "name": "existLowerUpper",
                            "type": "int24[2]"
                        },
                        {
                            "internalType": "uint256",
                            "name": "ltv",
                            "type": "uint256"
                        }
                    ],
                    "internalType": "struct IBorrowInformation.posINFO",
                    "name": "positonInfo",
                    "type": "tuple"
                },
                {
                    "components": [
                        {
                            "internalType": "uint256",
                            "name": "userAmount",
                            "type": "uint256"
                        },
                        {
                            "internalType": "address",
                            "name": "userToken",
                            "type": "address"
                        },
                        {
                            "internalType": "address",
                            "name": "tokenProvided",
                            "type": "address"
                        },
                        {
                            "internalType": "uint256",
                            "name": "goalToken0",
                            "type": "uint256"
                        },
                        {
                            "internalType": "uint256",
                            "name": "goalToken1",
                            "type": "uint256"
                        },
                        {
                            "internalType": "uint256",
                            "name": "guideSwapAmount",
                            "type": "uint256"
                        },
                        {
                            "internalType": "bool",
                            "name": "userGaveMore",
                            "type": "bool"
                        },
                        {
                            "internalType": "bool",
                            "name": "exactOut",
                            "type": "bool"
                        },
                        {
                            "internalType": "address[]",
                            "name": "tokenPath",
                            "type": "address[]"
                        },
                        {
                            "components": [
                                {
                                    "internalType": "bytes",
                                    "name": "val",
                                    "type": "bytes"
                                },
                                {
                                    "internalType": "bool",
                                    "name": "neg",
                                    "type": "bool"
                                },
                                {
                                    "internalType": "uint256",
                                    "name": "bitlen",
                                    "type": "uint256"
                                }
                            ],
                            "internalType": "struct BigNumber",
                            "name": "userRoutePrimeProduct",
                            "type": "tuple"
                        },
                        {
                            "internalType": "address",
                            "name": "chosenRoute",
                            "type": "address"
                        }
                    ],
                    "internalType": "struct IBorrowInformation.preFoundInfo",
                    "name": "jsInfo",
                    "type": "tuple"
                }
            ],
            "name": "createPosition",
            "outputs": [
                {
                    "internalType": "uint256",
                    "name": "token0Result",
                    "type": "uint256"
                },
                {
                    "internalType": "uint256",
                    "name": "token1Result",
                    "type": "uint256"
                }
            ],
            "stateMutability": "nonpayable",
            "type": "function"
        },
        {
            "inputs": [
                {
                    "internalType": "address",
                    "name": "factoryAddress",
                    "type": "address"
                }
            ],
            "name": "setFactory",
            "outputs": [],
            "stateMutability": "nonpayable",
            "type": "function"
        },
        {
            "inputs": [
                {
                    "internalType": "address",
                    "name": "nftAddress",
                    "type": "address"
                }
            ],
            "name": "setNFTPosition",
            "outputs": [],
            "stateMutability": "nonpayable",
            "type": "function"
        }
    ],
    "bytecode": "0x608060405234801561001057600080fd5b50615cd280620000216000396000f3fe608060405234801561001057600080fd5b50600436106100415760003560e01c80635bb4780814610046578063d4f002d11461005b578063de52d9f514610085575b600080fd5b610059610054366004614ec0565b610098565b005b61006e610069366004615486565b6100a4565b60405161007c929190615513565b60405180910390f35b610059610093366004614ec0565b6100be565b6100a1816100c7565b50565b6000806100b28585856100f6565b91509150935093915050565b6100a181610b45565b60006100d1610b74565b60040180546001600160a01b0319166001600160a01b03939093169290921790915550565b6000806000610103610b74565b9050600061010f610b98565b8254600090815260038201602052909150879060409020908051610137929160200190614cd0565b50610149856020015133308851610bbc565b6000808660a0015111156102cf578560e001511561021a5730636d31adfd61010088015160008151811061017f5761017f61552e565b602002602001015188610100015160018151811061019f5761019f61552e565b60200260200101518960a001518a61014001516040518563ffffffff1660e01b81526004016101d1949392919061554d565b60408051808303816000875af11580156101ef573d6000803e3d6000fd5b50505050604051601f3d908101601f191682016040526102129190810190615591565b5090506102cf565b3063e74773c36101008801516000815181106102385761023861552e565b60200260200101518861010001516001815181106102585761025861552e565b60200260200101518960a001518a61014001516040518563ffffffff1660e01b815260040161028a949392919061554d565b60408051808303816000875af11580156102a8573d6000803e3d6000fd5b50505050604051601f3d908101601f191682016040526102cb9190810190615591565b9150505b600087604001516001600160a01b0316633850c7bd6040518163ffffffff1660e01b815260040160e060405180830381865afa158015610313573d6000803e3d6000fd5b50505050604051601f3d908101601f191682016040526103369190810190615635565b50508854600090815260028a0160205260409450925050502080546001600160a01b0319166001600160a01b039290921691909117905560208701516001600160a01b031688604001516001600160a01b0316630dfe16816040518163ffffffff1660e01b8152600401602060405180830381865afa1580156103bd573d6000803e3d6000fd5b50505050604051601f3d908101601f191682016040526103e091908101906156e3565b6001600160a01b0316141561042e578660c0015161040d57818760800151610408919061571a565b61041d565b81876080015161041d9190615732565b610427908261571a565b9050610469565b8660c0015161044c57818760600151610447919061571a565b61045c565b81876060015161045c9190615732565b610466908261571a565b90505b6104e988604001516001600160a01b0316630dfe16816040518163ffffffff1660e01b8152600401602060405180830381865afa1580156104ae573d6000803e3d6000fd5b50505050604051601f3d908101601f191682016040526104d191908101906156e3565b60058601546001600160a01b031660608a0151610cb9565b61056988604001516001600160a01b031663d21220a76040518163ffffffff1660e01b8152600401602060405180830381865afa15801561052e573d6000803e3d6000fd5b50505050604051601f3d908101601f1916820160405261055191908101906156e3565b60058601546001600160a01b031660808a0151610cb9565b60006040518061016001604052808a604001516001600160a01b0316630dfe16816040518163ffffffff1660e01b8152600401602060405180830381865afa1580156105b9573d6000803e3d6000fd5b50505050604051601f3d908101601f191682016040526105dc91908101906156e3565b6001600160a01b031681526020018a604001516001600160a01b031663d21220a76040518163ffffffff1660e01b8152600401602060405180830381865afa15801561062c573d6000803e3d6000fd5b50505050604051601f3d908101601f1916820160405261064f91908101906156e3565b6001600160a01b031681526020018a604001516001600160a01b031663ddca3f436040518163ffffffff1660e01b8152600401602060405180830381865afa15801561069f573d6000803e3d6000fd5b50505050604051601f3d908101601f191682016040526106c29190810190615767565b62ffffff1681526020018a5160020b81526020018a6020015160020b81526020018960600151815260200189608001518152600060208201819052604082015230606082015260800161071842620f424061571a565b905260058601549091506001600160a01b03166388316456826040518263ffffffff1660e01b815260040161074d9190615878565b6080604051808303816000875af115801561076c573d6000803e3d6000fd5b50505050604051601f3d908101601f1916820160405261078f91908101906158a5565b50508654600090815260028801602052604090208754600090815260028901602052600191909101906040812060020180546001600160801b0319166001600160801b039490941693909317909255919091555084546108009060408a01518a602001518b6101400151868f610daa565b604051610120810160405233815260208101895181526020018381526020018560010160008d6000815181106108385761083861552e565b60200260200101518152602001908152602001600020600101546001600160a01b031681526020908101908a01516001600160a01b0316815260200142815260200189610120015181526020014281526020018a60a001519052855460009081526001870160205260409020815181546001600160a01b0319166001600160a01b0391909116178155602082015181600101556040820151816002015560608201516003820180546001600160a01b0319166001600160a01b039290921691909117905560808201516004820180546001600160a01b0319166001600160a01b039290921691909117905560a0820151816005015560c08201516006820181518190805161094a929160200190614d1b565b50602082015160018201805460ff191691151591909117905560408201518160020155505060e08201518160090155610100820151600a9091015550604089015185546000908152600287016020526040902060030180546001600160a01b0319166001600160a01b039290921691909117905560608901518554600090815260028701602052604090206004019060026109e6929190614d8e565b508860800151855460009081526002870160205260409020600601906002610a0f929190614dbb565b508454309063da4779e0906040518263ffffffff1660e01b8152600401610a369190615909565b6040805180830381865afa158015610a52573d6000803e3d6000fd5b50505050604051601f3d908101601f19168201604052610a759190810190615591565b9097509550604051806040016040528060405180604001604052808a815260200189815250815260200160405160408082019052808c5160020b60020b81526020018c6020015160020b905290528554600090815260038701602052604090208151610ae49082906002614d8e565b506020820151610afa9060028084019190614dbb565b505033600090815260068701602052604091502085548154600181018355600092835290916020902001558454856000610b3383615917565b91905055505050505050935093915050565b6000610b4f610b74565b60050180546001600160a01b0319166001600160a01b03939093169290921790915550565b7f76e009e8795104f2b1c213a72f3a2f55e5e2c18e90e0fd46976243364cfa330890565b7f714a1b8e4c0797f01e154a76911cbb626f31923ab43ed93cfb1c05e6a71f21d690565b6000806001600160a01b0386166323b872dd60e01b868686604051602401610be693929190615932565b604051602081830303815290604052906001600160e01b0319166020820180516001600160e01b03169091179052604051610c2191906159ae565b6000604051808303816000865af19150503d8060008114610c5e576040513d603f01601f191681016040523d815291503d6000602084013e610c63565b606091505b5091509150818015610c8c575080511580610c8c5750602081018151810190610c8c91906159ba565b610cb15760405162461bcd60e51b8152600401610ca8906159f8565b60405180910390fd5b505050505050565b6000806001600160a01b03851663095ea7b360e01b8585604051602401610ce1929190615a08565b604051602081830303815290604052906001600160e01b0319166020820180516001600160e01b03169091179052604051610d1c91906159ae565b6000604051808303816000865af19150503d8060008114610d59576040513d603f01601f191681016040523d815291503d6000602084013e610d5e565b606091505b5091509150818015610d87575080511580610d875750602081018151810190610d8791906159ba565b610da35760405162461bcd60e51b8152600401610ca890615a2f565b5050505050565b6000610db4610b98565b905082600160005b845181101561157c57610de888868381518110610ddb57610ddb61552e565b60200260200101516115a6565b8015610e125750610e1287868381518110610e0557610e0561552e565b6020026020010151611772565b610e2e5760405162461bcd60e51b8152600401610ca890615a59565b886001600160a01b0316846001016000878481518110610e5057610e5061552e565b60200260200101518152602001908152602001600020600101546001600160a01b031614610e905760405162461bcd60e51b8152600401610ca890615a84565b60008a8152600485016020528190604090206000878481518110610eb657610eb661552e565b6020026020010151815260200190815260200160002055600184016000868381518110610ee557610ee561552e565b602002602001015181526020019081526020016000206006015483111561129357836001016000868381518110610f1e57610f1e61552e565b6020026020010151815260200190815260200160002060060154610f429084615732565b9250836001016000868381518110610f5c57610f5c61552e565b602002602001015181526020019081526020016000206006015460008b815260078601602052604090206000878481518110610f9a57610f9a61552e565b6020026020010151815260200190815260200160002055611037858281518110610fc657610fc661552e565b6020026020010151856001016000888581518110610fe657610fe661552e565b60200260200101518152602001908152602001600020600501548660010160008986815181106110185761101861552e565b6020026020010151815260200190815260200160002060050154611892565b60008b81526007860160205260409020600087848151811061105b5761105b61552e565b602002602001015181526020019081526020016000205461107c9190615a94565b60008b8152600986016020526040902060008784815181106110a0576110a061552e565b602002602001015181526020019081526020016000205560008a8152600785016020526040902060008683815181106110db576110db61552e565b602002602001015181526020019081526020016000205484600101600087848151811061110a5761110a61552e565b602002602001015181526020019081526020016000206003015461112e9190615a94565b60008b8152600886016020526040902060008784815181106111525761115261552e565b602002602001015181526020019081526020016000205560008a81526009850160205260409020600086838151811061118d5761118d61552e565b602002602001015181526020019081526020016000205460008b8152600a86016020526040902060008282546111c3919061571a565b90915550506001840160008683815181106111e0576111e061552e565b60200260200101518152602001908152602001600020600601548460010160008784815181106112125761121261552e565b60200260200101518152602001908152602001600020600301546112369190615a94565b60008b8152600b8601602052604090206000828254611255919061571a565b909155506000905060018501818784815181106112745761127461552e565b602002602001015181526020019081526020016000206006015561156a565b828460010160008784815181106112ac576112ac61552e565b60200260200101518152602001908152602001600020600601546112d09190615732565b8460010160008784815181106112e8576112e861552e565b602002602001015181526020019081526020016000206006015560008a81526007850160205283906040902060008784815181106113285761132861552e565b60200260200101518152602001908152602001600020556113e28582815181106113545761135461552e565b60200260200101518560010160008885815181106113745761137461552e565b60200260200101518152602001908152602001600020600601548660010160008986815181106113a6576113a661552e565b60200260200101518152602001908152602001600020600501546113ca9190615732565b8660010160008986815181106110185761101861552e565b6113ec9084615a94565b60008b8152600986016020526040902060008784815181106114105761141061552e565b6020026020010151815260200190815260200160002055826001850160008784815181106114405761144061552e565b60200260200101518152602001908152602001600020600301546114649190615a94565b60008b8152600886016020526040902060008784815181106114885761148861552e565b602002602001015181526020019081526020016000205560008a8152600985016020526040902060008683815181106114c3576114c361552e565b602002602001015181526020019081526020016000205460008b8152600a86016020526040902060008282546114f9919061571a565b909155508390506001850160008784815181106115185761151861552e565b602002602001015181526020019081526020016000206003015461153c9190615a94565b60008b8152600b860160205260409020600082825461155b919061571a565b909155506000925061157c9050565b8061157481615917565b915050610dbc565b50801561159b5760405162461bcd60e51b8152600401610ca890615acd565b505050505050505050565b6000806115b16119da565b905060006115bd610b98565b6001600160a01b038616600090815260048401602052909150604081206040518060600160405290816000820180546115f590615af3565b80601f016020809104026020016040519081016040528092919081815260200182805461162190615af3565b801561166e5780601f106116435761010080835404028352916020019161166e565b820191906000526020600020905b81548152906001019060200180831161165157829003601f168201915b5050509183525050600182015460ff161515602080830191909152600292830154604092830152600089815292860190529192506117689190206006016040518060600160405290816000820180546116c690615af3565b80601f01602080910402602001604051908101604052809291908181526020018280546116f290615af3565b801561173f5780601f106117145761010080835404028352916020019161173f565b820191906000526020600020905b81548152906001019060200180831161172257829003601f168201915b5050509183525050600182015460ff1615156020820152600290910154604090910152826119fe565b9695505050505050565b60008061177d6119da565b90506000611789610b98565b6001600160a01b038616600090815260058401602052909150604081206040518060600160405290816000820180546117c190615af3565b80601f01602080910402602001604051908101604052809291908181526020018280546117ed90615af3565b801561183a5780601f1061180f5761010080835404028352916020019161183a565b820191906000526020600020905b81548152906001019060200180831161181d57829003601f168201915b5050509183525050600182015460ff161515602080830191909152600292830154604092830152600089815292860190529192506117689190206009016040518060600160405290816000820180546116c690615af3565b60008061189d610b98565b6000868152600282016020529091506119cf906040902080546020808202016040519081016040528092919081815260200182805480156118fd57602002820191906000526020600020905b8154815260200190600101908083116118e9575b5050506000898152600286016020526040925090502060010180548060200260200160405190810160405280929190818152602001828054801561196057602002820191906000526020600020905b81548152602001906001019080831161194c575b50505060008a815260028701602052604092509050206002018054806020026020016040519081016040528092919081815260200182805480156119c357602002820191906000526020600020905b8154815260200190600101908083116119af575b50505050508787611a13565b9150505b9392505050565b7f0d43da364a0638960305dfe50a31885563d74a8f7db015249711452bd02d5f7f90565b60006119d3611a0d8484611b5c565b51611b7c565b60007f89619114af212bbea6cb599157f288bdae8e2afea390d6b06be57493cbc191da81805b8751811015611a9b5760006064868a8481518110611a5957611a5961552e565b6020026020010151611a6b9190615a94565b611a759190615b30565b905080871015611a885781925050611a9b565b5080611a9381615917565b915050611a39565b5060008260010160008a8481518110611ab657611ab661552e565b602002602001015181526020019081526020016000209050611ae3611adb8288611bc5565b600187611bd3565b9350868281518110611af757611af761552e565b602002602001015115611b2a57611b2784888481518110611b1a57611b1a61552e565b6020026020010151611c86565b93505b611b506040516040808201905260068152651c995cdd5b1d60d21b602082015285611cb7565b50505095945050505050565b611b64614e52565b6119d383611b70611d04565b84611d46565b92915050565b60008060208301815b8451811015611bba57815192508215611ba357506000949350505050565b602091820191611bb3908261571a565b9050611b85565b506001949350505050565b60006119d383600084611e22565b600080806000198587098587029250828110838203039150508060001415611c0d5760008411611c0257600080fd5b5082900490506119d3565b808411611c1957600080fd5b6000848688096000868103871696879004966002600389028118808a02820302808a02820302808a02820302808a02820302808a02820302808a02909103029181900381900460010186841190950394909402919094039290920491909117919091029150509392505050565b600080821215611cad57611c9c82600019615b44565b611ca69084615b30565b9050611b76565b6119d38284615a94565b611d008282604051602401611ccd929190615c06565b604051601f19818303018152604091909152632d839cb360e21b6020820180516001600160e01b031690911790526121c1565b5050565b611d0c614e52565b6040518060600160405280604051806040016040528060208152602001600181525081526020016000151581526020016001815250905090565b611d4e614e52565b8260200151158015611d6257508160200151155b8015611d755750611d738251611b7c565b155b611d7e57600080fd5b6000611d8e8551855185516121e6565b90506000611d9b826122b0565b905080611db357611daa6122ee565b925050506119d3565b85602001518015611dd75750611dd785600081515182510160028151069392505050565b15611e0057611daa60405160608101604090815284825260016020830152810183905285612330565b6040516060810160409081529281526000602082015291820152949350505050565b600080848460ff1681548110611e3a57611e3a61552e565b906000526020600020600290910201805490915060ff1680611e6257506001015490506119d3565b60ff811660011415611e785783925050506119d3565b60ff811660021415611ef1578154600090611e9d908890610100900460ff1687611e22565b90506000611eb76002611eb18460016124b8565b906124d6565b9050815b80821015611ee5575080611ede6002611eb183611ed887826124d6565b906124b8565b9150611ebb565b94506119d39350505050565b600460ff821610801590611f095750600960ff821611155b15612016578154600090611f27908890610100900460ff1687611e22565b8354909150600090611f4490899062010000900460ff1688611e22565b905060ff831660041415611f6757611f5c82826124b8565b9450505050506119d3565b60ff831660051415611f7d57611f5c82826124e2565b60ff831660061415611f9357611f5c82826124fe565b60ff831660071415611fa957611f5c82826124d6565b60ff831660081415611fed5780600160005b82811015611fdf57611fcd82866124fe565b9150611fd881615917565b9050611fbb565b5095506119d3945050505050565b60ff83166009141561200f57611f5c670de0b6b3a7640000611eb184846124fe565b5050600080fd5b60ff81166012141561208257815460009061203b908890610100900460ff1687612531565b9050801561206457825461205a90889062010000900460ff1687611e22565b93505050506119d3565b825461205a9088906301000000900460ff1687611e22565b50600080fd5b60ff8116601314156120fb5781546000906120a7908890610100900460ff1687611e22565b83549091506000906120c490899062010000900460ff1688611e22565b84549091506000906120e2908a906301000000900460ff1689611e22565b90506120ef838383612769565b955050505050506119d3565b60ff811660141415610041578154600090612120908890610100900460ff1687611e22565b835490915060009061213d90899062010000900460ff1688611e22565b845490915060009061215b908a906301000000900460ff1689611e22565b8554909150600090612179908b90600160201b900460ff168a611e22565b9050600160201b811061218b57600080fd5b60008061219d858585620f42406127e4565b909250905060ff81166121b083886124fe565b901c985050505050505050506119d3565b6000815190506a636f6e736f6c652e6c6f67602083016000808483855afa5050505050565b606083518351835160405183815282602082015281604082015283606082018560208b0160046101c2fa84606001848184018660208c0160046101c2fa91508401838382018160208b0160046101c2fa915081801561224457612246565bfe5b5083018360608401828560056105465a03fa9150818015612244575083606084015b60208214612293576000815114600181146122835750612293565b50601f1990910190602001612268565b601f19019081529290930160600160405250979650505050505050565b60006122bb82611b7c565b156122c857506000919050565b6000602083015190506122da816128de565b915060086020845103028201915050919050565b6122f6614e52565b6040518060600160405280604051806040016040528060208152602001600081525081526020016000151581526020016000815250905090565b612338614e52565b826040015115801561234c57508160400151155b1561235957611ca66122ee565b8260400151612369575080611b76565b8160400151612379575081611b76565b606060008061238a86866000612acf565b905085602001518061239d575084602001515b1561246757856020015180156123b4575084602001515b156123ff57600081126123dc576123d2865186518860400151612c0f565b90935091506123f3565b6123ed855187518760400151612c0f565b90935091505b600160208501526124a9565b806001141561242a5761241486518651612d34565b90935091506020860151151560208501526124a9565b8060001914156124555761244085518751612d34565b909350915060208601511560208501526124a9565b61245d6122ee565b9350505050611b76565b6000811261248a57612480865186518860400151612c0f565b90935091506124a1565b61249b855187518760400151612c0f565b90935091505b600060208501525b50908252604082015292915050565b60006124c4828461571a565b905082811015611b7657611b76615c26565b60006119d38284615b30565b6000828211156124f4576124f4615c26565b6119d38284615732565b60008261250d57506000611b76565b6125178284615a94565b9050816125248483615b30565b14611b7657611b76615c26565b600080848460ff16815481106125495761254961552e565b906000526020600020600290910201805490915060ff16600381141561258957815461257f908790610100900460ff1686612531565b15925050506119d3565b600a60ff8216108015906125a15750600f60ff821611155b1561266b5781546000906125bf908890610100900460ff1687611e22565b83549091506000906125dc90899062010000900460ff1688611e22565b905060ff8316600a14156125f5571492506119d3915050565b60ff8316600b141561260d57141592506119d3915050565b60ff8316600c1415612624571192506119d3915050565b60ff8316600d141561263b571092506119d3915050565b60ff8316600e141561265357101592506119d3915050565b60ff8316600f141561200f57111592506119d3915050565b601060ff8216108015906126835750601160ff821611155b1561270d5781546000906126a1908890610100900460ff1687612531565b905060ff8216601014156126d85780156126cc57825461205a90889062010000900460ff1687612531565b600093505050506119d3565b60ff82166011141561207c5780156126f657600193505050506119d3565b825461205a90889062010000900460ff1687612531565b60ff811660121415610041578154600090612732908890610100900460ff1687612531565b9050801561275157825461205a90889062010000900460ff1687612531565b825461205a9088906301000000900460ff1687612531565b60008183101561277857600080fd5b6000808361278a6001607f1b87615a94565b6127949190615b30565b905070015bf0a8b1457695355fb8ac404e7a79e38110156127bf576127b881612e2f565b91506127cb565b6127c88161339e565b91505b6001607f1b6127da8784615a94565b6117689190615b30565b600080600160811b86106127f757600080fd5b8486101561280457600080fd5b600080866128166001607f1b8a615a94565b6128209190615b30565b905070015bf0a8b1457695355fb8ac404e7a79e381101561284b5761284481612e2f565b9150612857565b6128548161339e565b91505b60008563ffffffff168763ffffffff16846128729190615a94565b61287c9190615b30565b9050600160831b8110156128a1576128938161348c565b607f945094505050506128d5565b60006128ac82613ab7565b90506128c86128bc82607f615c3c565b60ff1683901c82614602565b955093506128d592505050565b94509492505050565b6000811560018114612ac457600160801b600160401b600160201b620100006101006010600460026000198b019081041790810417908104179081041790810417908104179081041790810417600101926040517ff8f9cbfae6cc78fbefe7cdc3a1793dfcf4f0e8bbd8cec470b6a28a7a5a3e1efd81527ff5ecf1b3e9debc68e1d9cfabc5997135bfb7a7a3938b7b606b5b4b3f2f1f0ffe60208201527ff6e4ed9ff2d6b458eadcdf97bd91692de2d4da8fd2d0ac50c6ae9a827252361660408201527fc8c0b887b0a8a4489c948c7f847c6125746c645c544c444038302820181008ff60608201527ff7cae577eec2a03cf3bad76fb589591debb2dd67e0aa9834bea6925f6a4a2e0e60808201527fe39ed557db96902cd38ed14fad815115c786af479b7e8324736353433727170760a08201527fc976c13bb96e881cb166a933a55e490d9d56952b8d4e801485467d236242260660c08201527f753a6d1b65325d0c552a4d1345224105391a310b29122104190a11030902010060e082015261010081016040527e818283848586878898a8b8c8d8e8f929395969799a9b9d9e9faaeb6bedeeff600160f81b8082880204818160ff0385015104600160ff1b86116101000201965060001985018516612aba576001870196505b5050505050612ac9565b600091505b50919050565b600060018215612b485784602001518015612aeb575083602001515b15612af95750600019612b48565b8460200151158015612b115750836020015115156001145b15612b205760019150506119d3565b846020015115156001148015612b3857508360200151155b15612b48576000199150506119d3565b836040015185604001511115612b5f5790506119d3565b846040015184604001511115612b8357612b7b81600019615b44565b9150506119d3565b600080808080895151905060208a510194506020895101935060005b81811015612bfe5780860151935080850151925082841115612bca57869750505050505050506119d3565b83831115612bec57612bde87600019615b44565b9750505050505050506119d3565b612bf760208261571a565b9050612b9f565b5060009a9950505050505050505050565b60606000606059600060001988518901885189018a5160208601018b515b8015612ccf5783518c518e5103821160018114612c6d578782018452600188148288141660018114612c625760009850612c67565b600198505b50612cbc565b8451888184010185528881038803831160018114612cae576000821160008b11178985141660018114612ca35760009a50612ca8565b60019a505b50612cb3565b600199505b50602086039550505b5050601f19938401939182019101612c2d565b50841560018114612ce35760018252612cea565b6020870196505b50859650846020028c510187526020875101870160405260208701516001816101008d061c14600182141715612d215760018b019a505b50959b989a509798505050505050505050565b6060600081816000195987518751808203828b01828b0184860160208101865b8015612dda57845186821160018114612d91578c8203855260018d14600083141660018114612d865760009d50612d8b565b60019d505b50612dc7565b85518d81840303865260018e148d8214168e820184101760018114612db95760009e50612dbe565b60019e505b50602087039650505b5050601f19948501949283019201612d54565b506020820191505b600082511415612e0357602088019750602087039650602082019150612de2565b879a50868b528060405250505050505050506000612e20846122b0565b93989397509295505050505050565b6000808080806fd3094c70f034de4b96ff7d5b6f99fcd88610612e8857612e5a6001607e1b8561571a565b93506fd3094c70f034de4b96ff7d5b6f99fcd8612e7b6001607f1b88615a94565b612e859190615b30565b95505b6fa45af1e1f40c333b3de1db4dd55f29a78610612edb57612ead6001607d1b8561571a565b93506fa45af1e1f40c333b3de1db4dd55f29a7612ece6001607f1b88615a94565b612ed89190615b30565b95505b6f910b022db7ae67ce76b441c27035c6a18610612f2e57612f006001607c1b8561571a565b93506f910b022db7ae67ce76b441c27035c6a1612f216001607f1b88615a94565b612f2b9190615b30565b95505b6f88415abbe9a76bead8d00cf112e4d4a88610612f8157612f536001607b1b8561571a565b93506f88415abbe9a76bead8d00cf112e4d4a8612f746001607f1b88615a94565b612f7e9190615b30565b95505b6f84102b00893f64c705e841d5d4064bd38610612fd457612fa66001607a1b8561571a565b93506f84102b00893f64c705e841d5d4064bd3612fc76001607f1b88615a94565b612fd19190615b30565b95505b6f8204055aaef1c8bd5c3259f4822735a2861061302757612ff9600160791b8561571a565b93506f8204055aaef1c8bd5c3259f4822735a261301a6001607f1b88615a94565b6130249190615b30565b95505b6f810100ab00222d861931c15e39b44e99861061307a5761304c600160781b8561571a565b93506f810100ab00222d861931c15e39b44e9961306d6001607f1b88615a94565b6130779190615b30565b95505b6f808040155aabbbe9451521693554f73386106130cd5761309f600160771b8561571a565b93506f808040155aabbbe9451521693554f7336130c06001607f1b88615a94565b6130ca9190615b30565b95505b6130db6001607f1b87615732565b92508291506001607f1b6130ef8380615a94565b6130f99190615b30565b9050600160801b61310a8482615732565b6131149084615a94565b61311e9190615b30565b613128908561571a565b93506001607f1b6131398284615a94565b6131439190615b30565b9150600160811b613164846faaaaaaaaaaaaaaaaaaaaaaaaaaaaaaaa615732565b61316e9084615a94565b6131789190615b30565b613182908561571a565b93506001607f1b6131938284615a94565b61319d9190615b30565b9150600360801b6131be846f99999999999999999999999999999999615732565b6131c89084615a94565b6131d29190615b30565b6131dc908561571a565b93506001607f1b6131ed8284615a94565b6131f79190615b30565b9150600160821b613218846f92492492492492492492492492492492615732565b6132229084615a94565b61322c9190615b30565b613236908561571a565b93506001607f1b6132478284615a94565b6132519190615b30565b9150600560801b613272846f8e38e38e38e38e38e38e38e38e38e38e615732565b61327c9084615a94565b6132869190615b30565b613290908561571a565b93506001607f1b6132a18284615a94565b6132ab9190615b30565b9150600360811b6132cc846f8ba2e8ba2e8ba2e8ba2e8ba2e8ba2e8b615732565b6132d69084615a94565b6132e09190615b30565b6132ea908561571a565b93506001607f1b6132fb8284615a94565b6133059190615b30565b9150600760801b613326846f89d89d89d89d89d89d89d89d89d89d89615732565b6133309084615a94565b61333a9190615b30565b613344908561571a565b93506001607f1b6133558284615a94565b61335f9190615b30565b9150600160831b613380846f88888888888888888888888888888888615732565b61338a9084615a94565b6133949190615b30565b611768908561571a565b600080600160801b83106133e25760006133c46133bf6001607f1b86615b30565b614c64565b60ff811694851c949091506133de906001607f1b90615a94565b9150505b6001607f1b83111561345757607f5b60ff811615613455576001607f1b6134098580615a94565b6134139190615b30565b9350600160801b841061344557600193841c936134309082615c3c565b60ff166001901b82613442919061571a565b91505b61344e81615c4d565b90506133f1565b505b6f05b9de1d10bf4103d647b0955897ba806134826f03f80fe03f80fe03f80fe03f80fe03f883615a94565b6119d39190615b30565b600080808061349f6001607c1b86615c67565b91508190506001607f1b6134b38280615a94565b6134bd9190615b30565b90506134d1816710e1b3be415a0000615a94565b6134db908461571a565b92506001607f1b6134ec8383615a94565b6134f69190615b30565b905061350a816705a0913f6b1e0000615a94565b613514908461571a565b92506001607f1b6135258383615a94565b61352f9190615b30565b905061354381670168244fdac78000615a94565b61354d908461571a565b92506001607f1b61355e8383615a94565b6135689190615b30565b905061357b81664807432bc18000615a94565b613585908461571a565b92506001607f1b6135968383615a94565b6135a09190615b30565b90506135b381660c0135dca04000615a94565b6135bd908461571a565b92506001607f1b6135ce8383615a94565b6135d89190615b30565b90506135eb816601b707b1cdc000615a94565b6135f5908461571a565b92506001607f1b6136068383615a94565b6136109190615b30565b9050613622816536e0f639b800615a94565b61362c908461571a565b92506001607f1b61363d8383615a94565b6136479190615b30565b905061365981650618fee9f800615a94565b613663908461571a565b92506001607f1b6136748383615a94565b61367e9190615b30565b905061368f81649c197dcc00615a94565b613699908461571a565b92506001607f1b6136aa8383615a94565b6136b49190615b30565b90506136c581640e30dce400615a94565b6136cf908461571a565b92506001607f1b6136e08383615a94565b6136ea9190615b30565b90506136fb8164012ebd1300615a94565b613705908461571a565b92506001607f1b6137168383615a94565b6137209190615b30565b9050613730816317499f00615a94565b61373a908461571a565b92506001607f1b61374b8383615a94565b6137559190615b30565b9050613765816301a9d480615a94565b61376f908461571a565b92506001607f1b6137808383615a94565b61378a9190615b30565b905061379981621c6380615a94565b6137a3908461571a565b92506001607f1b6137b48383615a94565b6137be9190615b30565b90506137cd816201c638615a94565b6137d7908461571a565b92506001607f1b6137e88383615a94565b6137f29190615b30565b905061380081611ab8615a94565b61380a908461571a565b92506001607f1b61381b8383615a94565b6138259190615b30565b90506138338161017c615a94565b61383d908461571a565b92506001607f1b61384e8383615a94565b6138589190615b30565b9050613865816014615a94565b61386f908461571a565b92506001607f1b6138808383615a94565b61388a9190615b30565b9050613897816001615a94565b6138a1908461571a565b92506001607f1b826138bb6721c3677c82b4000086615b30565b6138c5919061571a565b6138cf919061571a565b92506001607c1b8516156139175770018ebef9eac820ae8682b9793ac6d1e77661390a847001c3d6a24ed82218787d624d3e5eba95f9615a94565b6139149190615b30565b92505b6001607d1b85161561395d577001368b2fc6f9609fe7aceb46aa619baed46139508470018ebef9eac820ae8682b9793ac6d1e778615a94565b61395a9190615b30565b92505b6001607e1b8516156139a2576fbc5ab1b16779be3575bd8f0520a9f21f613995847001368b2fc6f9609fe7aceb46aa619baed5615a94565b61399f9190615b30565b92505b6001607f1b8516156139e6576f454aaa8efe072e7f6ddbab84b40a55c96139d9846fbc5ab1b16779be3575bd8f0520a9f21e615a94565b6139e39190615b30565b92505b600160801b851615613a2a576f0960aadc109e7a3bf4578099615711ea613a1d846f454aaa8efe072e7f6ddbab84b40a55c5615a94565b613a279190615b30565b92505b600160811b851615613a6d576e2bf84208204f5977f9a8cf01fdce3d613a60846f0960aadc109e7a3bf4578099615711d7615a94565b613a6a9190615b30565b92505b600160821b851615613aae576d03c6ab775dd0b95b4cbee7e65d11613aa1846e2bf84208204f5977f9a8cf01fdc307615a94565b613aab9190615b30565b92505b50909392505050565b6000816001641c35fedd1560601b0310613ad357506020919050565b816001646c3390ecc9605e1b0310613aed57506021919050565b816001640cf801476160611b0310613b0757506022919050565b8160016431bdb23e1d605f1b0310613b2157506023919050565b8160016502fb1d8fe083605b1b0310613b3c57506024919050565b8160016505b771955b37605a1b0310613b5757506025919050565b816001650af67a93bb5160591b0310613b7257506026919050565b8160016515060c256cb360581b0310613b8d57506027919050565b816001651428a2f98d7360581b0310613ba857506028919050565b816001654d515663970960561b0310613bc357506029919050565b81600165944620b0e70f60551b0310613bde5750602a919050565b81600166011c592761c66760541b0310613bfa5750602b919050565b8160016602214d10d014eb60531b0310613c165750602c919050565b81600166020ade36b7dbef60531b0310613c325750602d919050565b8160016603eab73b3bbfe360521b0310613c4e5750602e919050565b816001660782ee3593f6d760511b0310613c6a5750602f919050565b816001661ccf4b44bb4821604f1b0310613c8657506030919050565b8160016606e7f88ad8a77760511b0310613ca257506031919050565b8160016669f3d1c921891d604d1b0310613cbe57506032919050565b81600166cb2ff529eb71e5604c1b0310613cda57506033919050565b81600166c2d415c3db974b604c1b0310613cf657506034919050565b8160016702eb40f9f620fda7604a1b0310613d1357506035919050565b8160016705990681d961a1eb60491b0310613d3057506036919050565b81600167055e12902701414760491b0310613d4d57506037919050565b8160016714962dee9dc9764160471b0310613d6a57506038919050565b8160016704ef57b9b560fab560491b0310613d8757506039919050565b8160016712ed7b32a58f552b60471b0310613da45750603a919050565b816001679131271922eaa60760441b0310613dc15750603b919050565b816001678b380f3558668c4760441b0310613dde5750603c919050565b816001680215f77c045fbe885760421b0310613dfc5750603d919050565b816001600160831b0310613e125750603e919050565b816001670f577eded5773a1160471b0310613e2f5750603f919050565b816001680eb5ec597592befbf5603f1b0310613e4d57506040919050565b816001681c35fedd14b861eb05603e1b0310613e6b57506041919050565b816001683619c87664579bc94b603d1b0310613e8957506042919050565b8160016867c00a3b07ffc01fd7603c1b0310613ea757506043919050565b81600168c6f6c8f8739773a7a5603b1b0310613ec557506044919050565b81600168bec763f8209b7a72b1603b1b0310613ee357506045919050565b8160016902dbb8caad9b7097b91b60391b0310613f0257506046919050565b81600169057b3d49dda84556d6f760381b0310613f2157506047919050565b81600169054183095b2c8ececf3160381b0310613f4057506048919050565b816001690a14517cc6b9457111ef60371b0310613f5f57506049919050565b8160016913545598e5c23276ccf160361b0310613f7e5750604a919050565b816001692511882c39c3adea96ff60351b0310613f9d5750604b919050565b81600169471649d87199aa99075760341b0310613fbc5750604c919050565b817004429a21a029d4c1457cfbffffffffffff10613fdc5750604d919050565b81700415bc6d6fb7dd71af2cb3ffffffffffff10613ffc5750604e919050565b817003eab73b3bbfe282243ce1ffffffffffff1061401c5750604f919050565b817003c1771ac9fb6b4c18e229ffffffffffff1061403c57506050919050565b81700399e96897690418f785257fffffffffff1061405c57506051919050565b81700373fc456c53bb779bf0ea9fffffffffff1061407c57506052919050565b8170034f9e8e490c48e67e6ab8bfffffffffff1061409c57506053919050565b8170032cbfd4a7adc790560b3337ffffffffff106140bc57506054919050565b8170030b50570f6e5d2acca94613ffffffffff106140dc57506055919050565b817002eb40f9f620fda6b56c2861ffffffffff106140fc57506056919050565b817002cc8340ecb0d0f520a6af58ffffffffff1061411c57506057919050565b817002af09481380a0a35cf1ba02ffffffffff1061413c57506058919050565b81700292c5bdd3b92ec810287b1b3fffffffff1061415c57506059919050565b81700277abdcdab07d5a77ac6d6b9fffffffff1061417c5750605a919050565b8170025daf6654b1eaa55fd64df5efffffffff1061419c5750605b919050565b81700244c49c648baa98192dce88b7ffffffff106141bc5750605c919050565b8170022ce03cd5619a311b2471268bffffffff106141dc5750605d919050565b81700215f77c045fbe885654a44a0fffffffff106141fc5750605e919050565b816001600160811b03106142125750605f919050565b817001eaefdbdaaee7421fc4d3ede5ffffffff1061423257506060919050565b817001d6bd8b2eb257df7e8ca57b09bfffffff1061425257506061919050565b817001c35fedd14b861eb0443f7f133fffffff1061427257506062919050565b817001b0ce43b322bcde4a56e8ada5afffffff1061429257506063919050565b8170019f0028ec1fff007f5a195a39dfffffff106142b257506064919050565b8170018ded91f0e72ee74f49b15ba527ffffff106142d257506065919050565b8170017d8ec7f04136f4e5615fd41a63ffffff106142f257506066919050565b8170016ddc6556cdb84bdc8d12d22e6fffffff1061431257506067919050565b8170015ecf52776a1155b5bd8395814f7fffff1061433257506068919050565b8170015060c256cb23b3b3cc3754cf40ffffff1061435257506069919050565b817001428a2f98d728ae223ddab715be3fffff106143725750606a919050565b8170013545598e5c23276ccf0ede68034fffff106143925750606b919050565b817001288c4161ce1d6f54b7f61081194fffff106143b25750606c919050565b8170011c592761c666aa641d5a01a40f17ffff106143d25750606d919050565b81700110a688680a7530515f3e6e6cfdcdffff106143f25750606e919050565b817001056f1b5bedf75c6bcb2ce8aed428ffff106144125750606f919050565b816ffaadceceeff8a0890f3875f008277fff1061443157506070919050565b816ff05dc6b27edad306388a600f6ba0bfff1061445057506071919050565b816fe67a5a25da41063de1495d5b18cdbfff1061446f57506072919050565b816fdcff115b14eedde6fc3aa5353f2e4fff1061448e57506073919050565b816fd3e7a3924312399f9aae2e0f868f8fff106144ad57506074919050565b816fcb2ff529eb71e41582cccd5a1ee26fff106144cc57506075919050565b816fc2d415c3db974ab32a51840c0b67edff106144eb57506076919050565b816fbad03e7d883f69ad5b0a186184e06bff1061450a57506077919050565b816fb320d03b2c343d4829abd6075f0cc5ff1061452957506078919050565b816fabc25204e02828d73c6e80bcdb1a95bf1061454857506079919050565b816fa4b16f74ee4bb2040a1ec6c15fbbf2df106145675750607a919050565b816f9deaf736ac1f569deb1b5ae3f36c130f106145865750607b919050565b816f976bd9952c7aa957f5937d790ef65037106145a55750607c919050565b816f9131271922eaa6064b73a22d0bd4f2bf106145c45750607d919050565b816f8b380f3558668c46c91c49a2f8e967b9106145e35750607e919050565b816f857ddf0117efa215952912839f6473e6106100415750607f919050565b6000828160ff84166146148380615a94565b901c9150614631826b0d10b13981d2a0bc5e5fdcab601e1b615a94565b61463b908261571a565b905060ff841661464b8684615a94565b901c9150614668826b045ae5bdd5f0e03eca1ff439601e1b615a94565b614672908261571a565b905060ff84166146828684615a94565b901c915061469f826e45ae5bdd5f0e03eca1ff4390000000615a94565b6146a9908261571a565b905060ff84166146b98684615a94565b901c91506146d5826adefabf91302cd95b9ffda5601c1b615a94565b6146df908261571a565b905060ff84166146ef8684615a94565b901c915061470b826a4a53953065644873dfff37601b1b615a94565b614715908261571a565b905060ff84166147258684615a94565b901c9150614741826d54f1cf12bd04e516b6da88000000615a94565b61474b908261571a565b905060ff841661475b8684615a94565b901c9150614777826d0a9e39e257a09ca2d6db51000000615a94565b614781908261571a565b905060ff84166147918684615a94565b901c91506147ad826d012e066e7b839fa050c309000000615a94565b6147b7908261571a565b905060ff84166147c78684615a94565b901c91506147e2826c1e33d7d926c329a1ad1a800000615a94565b6147ec908261571a565b905060ff84166147fc8684615a94565b901c9150614817826c02bee513bdb4a6b19b5f800000615a94565b614821908261571a565b905060ff84166148318684615a94565b901c915061484b826b3a9316fa79b88eccf2a00000615a94565b614855908261571a565b905060ff84166148658684615a94565b901c915061487f826b048177ebe1fa812375200000615a94565b614889908261571a565b905060ff84166148998684615a94565b901c91506148b2826a5263fe90242dcbacf00000615a94565b6148bc908261571a565b905060ff84166148cc8684615a94565b901c91506148e5826a057e22099c030d94100000615a94565b6148ef908261571a565b905060ff84166148ff8684615a94565b901c9150614917826957e22099c030d9410000615a94565b614921908261571a565b905060ff84166149318684615a94565b901c91506149498269052b6b54569976310000615a94565b614953908261571a565b905060ff84166149638684615a94565b901c915061497a82684985f67696bf748000615a94565b614984908261571a565b905060ff84166149948684615a94565b901c91506149ab826803dea12ea99e498000615a94565b6149b5908261571a565b905060ff84166149c58684615a94565b901c91506149db826731880f2214b6e000615a94565b6149e5908261571a565b905060ff84166149f58684615a94565b901c9150614a0b8267025bcff56eb36000615a94565b614a15908261571a565b905060ff8416614a258684615a94565b901c9150614a3a82661b722e10ab1000615a94565b614a44908261571a565b905060ff8416614a548684615a94565b901c9150614a69826601317c70077000615a94565b614a73908261571a565b905060ff8416614a838684615a94565b901c9150614a9782650cba84aafa00615a94565b614aa1908261571a565b905060ff8416614ab18684615a94565b901c9150614ac4826482573a0a00615a94565b614ace908261571a565b905060ff8416614ade8684615a94565b901c9150614af1826405035ad900615a94565b614afb908261571a565b905060ff8416614b0b8684615a94565b901c9150614b1d82632f881b00615a94565b614b27908261571a565b905060ff8416614b378684615a94565b901c9150614b49826301b29340615a94565b614b53908261571a565b905060ff8416614b638684615a94565b901c9150614b7482620efc40615a94565b614b7e908261571a565b905060ff8416614b8e8684615a94565b901c9150614b9e82617fe0615a94565b614ba8908261571a565b905060ff8416614bb88684615a94565b901c9150614bc882610420615a94565b614bd2908261571a565b905060ff8416614be28684615a94565b901c9150614bf1826021615a94565b614bfb908261571a565b905060ff8416614c0b8684615a94565b901c9150614c1a826001615a94565b614c24908261571a565b9050600160ff85161b85614c476b0d10b13981d2a0bc5e5fdcab601f1b84615b30565b614c51919061571a565b614c5b919061571a565b95945050505050565b600080610100831015614c97575b6001831115614c9257600192831c92614c8b9082615c7b565b9050614c72565b611b76565b60805b60ff811615614cc957600160ff82161b8410614cbe5760ff81169390931c92908117905b60011c607f16614c9a565b5092915050565b828054828255906000526020600020908101928215614d0b579160200282015b82811115614d0b578251825591602001919060010190614cf0565b50614d17929150614e75565b5090565b828054614d2790615af3565b90600052602060002090601f016020900481019282614d495760008555614d0b565b82601f10614d6257805160ff1916838001178555614d0b565b82800160010185558215614d0b5791820182811115614d0b578251825591602001919060010190614cf0565b8260028101928215614d0b5791602002820182811115614d0b578251825591602001919060010190614cf0565b600183019183908215614d0b5791602002820160005b83821115614e1657835183826101000a81548162ffffff021916908360020b62ffffff1602179055509260200192600301602081600201049283019260010302614dd1565b8015614e455782816101000a81549062ffffff0219169055600301602081600201049283019260010302614e16565b5050614d17929150614e75565b604051806060016040528060608152602001600015158152602001600081525090565b5b80821115614d175760008155600101614e76565b6001600160a01b031690565b6000611b7682614e8a565b614eaa81614e96565b81146100a157600080fd5b8035611b7681614ea1565b600060208284031215614ed557614ed5600080fd5b6000614ee18484614eb5565b949350505050565b601f01601f191690565b634e487b7160e01b600052604160045260246000fd5b614f1282614ee9565b81018181106001600160401b0382111715614f2f57614f2f614ef3565b6040525050565b6000614f456000604051905090565b9050614f518282614f09565b919050565b60006001600160401b03821115614f6f57614f6f614ef3565b5060209081020190565b80614eaa565b8035611b7681614f79565b6000614f9d614f9884614f56565b614f36565b83815290506020808201908402830185811115614fbc57614fbc600080fd5b835b81811015614fe05780614fd18882614f7f565b84525060209283019201614fbe565b5050509392505050565b600082601f830112614ffe57614ffe600080fd5b8135614ee1848260208601614f8a565b614eaa8160020b90565b8035611b768161500e565b60006001600160401b0382111561503c5761503c614ef3565b5060200290565b6000615051614f9884615023565b9050806020840283018581111561506a5761506a600080fd5b835b81811015614fe0578061507f8882614f7f565b8452506020928301920161506c565b600082601f8301126150a2576150a2600080fd5b6002614ee1848285615043565b60006150bd614f9884615023565b905080602084028301858111156150d6576150d6600080fd5b835b81811015614fe057806150eb8882615018565b845250602092830192016150d8565b600082601f83011261510e5761510e600080fd5b6002614ee18482856150af565b6000610100828403121561513157615131600080fd5b61513b60c0614f36565b905060006151498484615018565b825250602061515a84848301615018565b602083015250604061516e84828501614eb5565b60408301525060606151828482850161508e565b60608301525060a0615196848285016150fa565b60808301525060e06151aa84828501614f7f565b60a08301525092915050565b801515614eaa565b8035611b76816151b6565b60006151d7614f9884614f56565b838152905060208082019084028301858111156151f6576151f6600080fd5b835b81811015614fe0578061520b8882614eb5565b845250602092830192016151f8565b600082601f83011261522e5761522e600080fd5b8135614ee18482602086016151c9565b60006001600160401b0382111561525757615257614ef3565b61526082614ee9565b60200192915050565b82818337506000910152565b6000615283614f988461523e565b90508281526020810184848401111561529e5761529e600080fd5b6152a9848285615269565b509392505050565b600082601f8301126152c5576152c5600080fd5b8135614ee1848260208601615275565b6000606082840312156152ea576152ea600080fd5b6152f46060614f36565b905081356001600160401b0381111561530f5761530f600080fd5b61531b848285016152b1565b825250602061532c848483016151be565b602083015250604061534084828501614f7f565b60408301525092915050565b6000610160828403121561536257615362600080fd5b61536d610160614f36565b9050600061537b8484614f7f565b825250602061538c84848301614eb5565b60208301525060406153a084828501614eb5565b60408301525060606153b484828501614f7f565b60608301525060806153c884828501614f7f565b60808301525060a06153dc84828501614f7f565b60a08301525060c06153f0848285016151be565b60c08301525060e0615404848285016151be565b60e0830152506101008201356001600160401b0381111561542757615427600080fd5b6154338482850161521a565b610100830152506101208201356001600160401b0381111561545757615457600080fd5b615463848285016152d5565b6101208301525061014061547984828501614eb5565b6101408301525092915050565b6000806000610140848603121561549f5761549f600080fd5b83356001600160401b038111156154b8576154b8600080fd5b6154c486828701614fea565b93505060206154d58682870161511b565b9250506101208401356001600160401b038111156154f5576154f5600080fd5b6155018682870161534c565b9150509250925092565b805b82525050565b60408101615521828561550b565b6119d3602083018461550b565b634e487b7160e01b600052603260045260246000fd5b61550d81614e96565b6080810161555b8287615544565b6155686020830186615544565b615575604083018561550b565b614c5b6060830184615544565b600081519050611b7681614f79565b600080604083850312156155a7576155a7600080fd5b60006155b38585615582565b92505060206155c485828601615582565b9150509250929050565b614eaa81614e8a565b600081519050611b76816155ce565b600081519050611b768161500e565b61ffff8116614eaa565b600081519050611b76816155f5565b60ff8116614eaa565b600081519050611b768161560e565b600081519050611b76816151b6565b600080600080600080600060e0888a03121561565357615653600080fd5b600061565f8a8a6155d7565b97505060206156708a828b016155e6565b96505060406156818a828b016155ff565b95505060606156928a828b016155ff565b94505060806156a38a828b016155ff565b93505060a06156b48a828b01615617565b92505060c06156c58a828b01615626565b91505092959891949750929550565b600081519050611b7681614ea1565b6000602082840312156156f8576156f8600080fd5b6000614ee184846156d4565b634e487b7160e01b600052601160045260246000fd5b6000821982111561572d5761572d615704565b500190565b6000825b92508282101561574857615748615704565b500390565b62ffffff8116614eaa565b600081519050611b768161574d565b60006020828403121561577c5761577c600080fd5b6000614ee18484615758565b62ffffff811661550d565b61550d8160020b90565b610160820181516157ae8482615544565b5060208201516157c16020850182615544565b5060408201516157d46040850182615788565b5060608201516157e76060850182615793565b5060808201516157fa6080850182615793565b5060a082015161580d60a085018261550b565b5060c082015161582060c085018261550b565b5060e082015161583360e085018261550b565b5061010082015161584861010085018261550b565b5061012082015161585d610120850182615544565b5061014082015161587261014085018261550b565b50505050565b6101608101611b76828461579d565b6001600160801b038116614eaa565b600081519050611b7681615887565b600080600080608085870312156158be576158be600080fd5b60006158ca8787615582565b94505060206158db87828801615896565b93505060406158ec87828801615582565b92505060606158fd87828801615582565b91505092959194509250565b60208101611b76828461550b565b600060001982141561592b5761592b615704565b5060010190565b606081016159408286615544565b61594d6020830185615544565b614ee1604083018461550b565b60005b8381101561597557808201518382015260200161595d565b838111156158725750506000910152565b6000615996826000815192915050565b6159a481856020860161595a565b9290920192915050565b60006119d38284615986565b6000602082840312156159cf576159cf600080fd5b6000614ee18484615626565b600381526000602082016229aa2360e91b815291505b5060200190565b60208082528101611b76816159db565b604081016155218285615544565b6002815260006020820161534160f01b815291506159f1565b60208082528101611b7681615a16565b6003815260006020820162544e4960e81b815291506159f1565b60208082528101611b7681615a3f565b60048152600060208201634d424c4160e01b815291506159f1565b60208082528101611b7681615a69565b6000816000190483118215151615615aae57615aae615704565b500290565b60038152600060208201622722a160e91b815291506159f1565b60208082528101611b7681615ab3565b634e487b7160e01b600052602260045260246000fd5b600281046001821680615b0757607f821691505b60208210811415612ac957612ac9615add565b634e487b7160e01b600052601260045260246000fd5b600082615b3f57615b3f615b1a565b500490565b6000826001600160ff1b030482116000841360008413161615615b6957615b69615704565b81600160ff1b0583126000841260008413161615615b8957615b89615704565b82600160ff1b0582126000841360008412161615615ba957615ba9615704565b826001600160ff1b030582126000841260008412161615615aae57615aae615704565b6000615bdc826000815192915050565b808452602084019350615bf381856020860161595a565b615bfc81614ee9565b9093019392505050565b60408082528101615c178185615bcc565b90506119d3602083018461550b565b634e487b7160e01b600052600160045260246000fd5b600060ff8216915060ff8316615736565b60ff16600081615c5f57615c5f615704565b506000190190565b600082615c7657615c76615b1a565b500690565b600060ff8216915060ff831692508260ff0382111561572d5761572d61570456fea264697066735822122093d61fbdcd970638f24b004340df494b778813f7f487e1bcf703f9b692c402cd64736f6c634300080a0033",
    "linkReferences": {},
    "deployedLinkReferences": {}
}