{
    "_format": "hh-sol-artifact-1",
    "contractName": "EquationFacet",
    "sourceName": "contracts/Facets/EquationFacet.sol",
    "abi": [
        {
            "inputs": [
                {
                    "internalType": "uint256[]",
                    "name": "bounds",
                    "type": "uint256[]"
                },
                {
                    "internalType": "uint256[]",
                    "name": "equations",
                    "type": "uint256[]"
                }
            ],
            "name": "addBoundedInfo",
            "outputs": [],
            "stateMutability": "nonpayable",
            "type": "function"
        },
        {
            "inputs": [
                {
                    "internalType": "uint256",
                    "name": "ID",
                    "type": "uint256"
                },
                {
                    "internalType": "uint256",
                    "name": "xValue",
                    "type": "uint256"
                }
            ],
            "name": "calculateFunction",
            "outputs": [
                {
                    "internalType": "uint256",
                    "name": "",
                    "type": "uint256"
                }
            ],
            "stateMutability": "view",
            "type": "function"
        },
        {
            "inputs": [
                {
                    "internalType": "uint256",
                    "name": "posID",
                    "type": "uint256"
                },
                {
                    "internalType": "uint256",
                    "name": "ID",
                    "type": "uint256"
                },
                {
                    "internalType": "uint256",
                    "name": "xValue",
                    "type": "uint256"
                }
            ],
            "name": "calculateFunctionMod",
            "outputs": [
                {
                    "internalType": "uint256",
                    "name": "",
                    "type": "uint256"
                }
            ],
            "stateMutability": "view",
            "type": "function"
        },
        {
            "inputs": [
                {
                    "internalType": "uint256[]",
                    "name": "equations",
                    "type": "uint256[]"
                },
                {
                    "internalType": "uint256[]",
                    "name": "bounds",
                    "type": "uint256[]"
                },
                {
                    "internalType": "int256[]",
                    "name": "modifiers",
                    "type": "int256[]"
                },
                {
                    "internalType": "uint256",
                    "name": "amountBorrowed",
                    "type": "uint256"
                },
                {
                    "internalType": "uint256",
                    "name": "total",
                    "type": "uint256"
                }
            ],
            "name": "evaluate",
            "outputs": [
                {
                    "internalType": "uint256",
                    "name": "result",
                    "type": "uint256"
                }
            ],
            "stateMutability": "view",
            "type": "function"
        },
        {
            "inputs": [
                {
                    "internalType": "uint256",
                    "name": "result",
                    "type": "uint256"
                },
                {
                    "internalType": "int256",
                    "name": "mod",
                    "type": "int256"
                }
            ],
            "name": "modifyResult",
            "outputs": [
                {
                    "internalType": "uint256",
                    "name": "",
                    "type": "uint256"
                }
            ],
            "stateMutability": "pure",
            "type": "function"
        },
        {
            "inputs": [
                {
                    "internalType": "uint256[]",
                    "name": "_expression",
                    "type": "uint256[]"
                }
            ],
            "name": "setEquation",
            "outputs": [],
            "stateMutability": "nonpayable",
            "type": "function"
        },
        {
            "inputs": [
                {
                    "internalType": "uint256",
                    "name": "posID",
                    "type": "uint256"
                },
                {
                    "internalType": "uint256",
                    "name": "ID",
                    "type": "uint256"
                },
                {
                    "internalType": "int256",
                    "name": "mod",
                    "type": "int256"
                }
            ],
            "name": "setModifier",
            "outputs": [],
            "stateMutability": "nonpayable",
            "type": "function"
        }
    ],
    "bytecode": "0x608060405234801561001057600080fd5b50613b04806100206000396000f3fe608060405234801561001057600080fd5b506004361061006d5760003560e01c806317acfdcc146100725780638836d0eb1461009b5780639b77c78a146100b0578063e5035b2e146100c3578063e591ba9f146100d6578063f53010ae146100e9578063fdee040a146100fc575b600080fd5b610085610080366004613485565b61010f565b60405161009291906134c2565b60405180910390f35b6100ae6100a9366004613518565b610124565b005b6100ae6100be36600461366f565b610132565b6100856100d13660046136d5565b61013c565b6100856100e436600461379a565b610153565b6100856100f7366004613485565b61016c565b6100ae61010a3660046136d5565b610178565b600061011b8383610188565b90505b92915050565b61012e82826101b8565b5050565b61012e82826101e2565b6000610149848484610251565b90505b9392505050565b600061016286868686866102a7565b9695505050505050565b600061011b83836103e8565b610183838383610419565b505050565b600080610193610442565b600085815260018201602052604090209091506101b09084610466565b949350505050565b60006101c2610442565b805460009081526001820160205260409020909150610183908484610474565b60006101ec610442565b805460009081526003820160209081526040909120845192935061021492909185019061341e565b5080546000908152600282016020908152604090912084516102389286019061341e565b50805481600061024783613875565b9190505550505050565b60008061025c610442565b6000858152600182016020526040902090915061029e9061027d9085610466565b600086815260048401602090815260408083208a84529091529020546103e8565b95945050505050565b6000806102b2610442565b90506000805b875181101561031a5760006064868a84815181106102d8576102d8613890565b60200260200101516102ea91906138a6565b6102f491906138db565b905080871015610307578192505061031a565b508061031281613875565b9150506102b8565b5060008260010160008a848151811061033557610335613890565b60200260200101518152602001908152602001600020905061036b610363878361046690919063ffffffff16565b600187610610565b935086828151811061037f5761037f613890565b60200260200101516000146103b4576103b1848884815181106103a4576103a4613890565b60200260200101516103e8565b93505b6103dc604051806040016040528060068152602001651c995cdd5b1d60d21b815250856106c3565b50505095945050505050565b60008082121561040f576103fe826000196138ef565b61040890846138db565b905061011e565b61011b82846138a6565b6000610423610442565b6000938452600401602090815260408085209585529490525091902055565b7f89619114af212bbea6cb599157f288bdae8e2afea390d6b06be57493cbc191da90565b600061011b83600084610708565b82541561048057600080fd5b610100811061048e57600080fd5b60005b60ff81168211156105dc57600083838360ff168181106104b3576104b3613890565b905060200201359050601560ff1681106104cc57600080fd5b6040805160c081018252600060208201819052918101829052606081018290526080810182905260a081019190915260ff821681528161053557848461051185613977565b94508460ff1681811061052657610526613890565b602002919091013560a0830152505b8554600180820188556000888152602090819020845160029094020180549185015160408601516060870151608088015160ff97881661ffff1990961695909517610100938816939093029290921763ffff00001916620100009187169190910263ff0000001916176301000000918616919091021760ff60201b1916600160201b949092169390930217825560a090920151910155506105d581613977565b9050610491565b5060006105ea846000610aa8565b5084549091506105fc90600190613990565b8160ff161461060a57600080fd5b50505050565b60008080600019858709858702925082811083820303915050806000141561064a576000841161063f57600080fd5b50829004905061014c565b80841161065657600080fd5b6000848688096000868103871696879004966002600389028118808a02820302808a02820302808a02820302808a02820302808a02820302808a02909103029181900381900460010186841190950394909402919094039290920491909117919091029150509392505050565b61012e82826040516024016106d9929190613a0b565b60408051601f198184030181529190526020810180516001600160e01b0316632d839cb360e21b179052610ca4565b600080848460ff168154811061072057610720613890565b60009182526020909120600290910201805490915060ff1680610749575060010154905061014c565b60ff81166001141561075f57839250505061014c565b60ff8116600214156107d8578154600090610784908890610100900460ff1687610708565b9050600061079e6002610798846001610cc5565b90610ce3565b9050815b808210156107cc5750806107c56002610798836107bf8782610ce3565b90610cc5565b91506107a2565b945061014c9350505050565b600460ff8216108015906107f05750600960ff821611155b156108fd57815460009061080e908890610100900460ff1687610708565b835490915060009061082b90899062010000900460ff1688610708565b905060ff83166004141561084e576108438282610cc5565b94505050505061014c565b60ff831660051415610864576108438282610cef565b60ff83166006141561087a576108438282610d0b565b60ff831660071415610890576108438282610ce3565b60ff8316600814156108d45780600160005b828110156108c6576108b48286610d0b565b91506108bf81613875565b90506108a2565b50955061014c945050505050565b60ff8316600914156108f657610843670de0b6b3a76400006107988484610d0b565b5050600080fd5b60ff811660121415610969578154600090610922908890610100900460ff1687610d3e565b9050801561094b57825461094190889062010000900460ff1687610708565b935050505061014c565b82546109419088906301000000900460ff1687610708565b50600080fd5b60ff8116601314156109e257815460009061098e908890610100900460ff1687610708565b83549091506000906109ab90899062010000900460ff1688610708565b84549091506000906109c9908a906301000000900460ff1689610708565b90506109d6838383610f77565b9550505050505061014c565b60ff81166014141561006d578154600090610a07908890610100900460ff1687610708565b8354909150600090610a2490899062010000900460ff1688610708565b8454909150600090610a42908a906301000000900460ff1689610708565b8554909150600090610a60908b90600160201b900460ff168a610708565b9050600160201b8110610a7257600080fd5b600080610a84858585620f4240610ff2565b909250905060ff8116610a978388610d0b565b901c9850505050505050505061014c565b8154600090819060ff841610610abd57600080fd5b6000848460ff1681548110610ad457610ad4613890565b600091825260208220600290910201805490925060ff1690610af5826110ec565b905060008160ff166001600160401b03811115610b1457610b14613569565b604051908082528060200260200182016040528015610b3d578160200160208202803683370190505b5090508660005b8360ff168160ff161015610c845760ff8116610b8057610b65826001613a2a565b865460ff919091166101000261ff0019909116178655610c1c565b8060ff1660011415610bb457610b97826001613a2a565b865460ff91909116620100000262ff000019909116178655610c1c565b8060ff1660021415610bea57610bcb826001613a2a565b865460ff9190911663010000000263ff00000019909116178655610c1c565b8060ff166003141561006d57610c01826001613a2a565b865460ff91909116600160201b0260ff60201b199091161786555b610c308a610c2b846001613a2a565b610aa8565b848360ff1681518110610c4557610c45613890565b60200260200101816002811115610c5e57610c5e613a50565b6002811115610c6f57610c6f613a50565b9052509150610c7d81613977565b9050610b44565b506000610c91858461114d565b91975090955050505050505b9250929050565b80516a636f6e736f6c652e6c6f67602083016000808483855afa5050505050565b6000610cd18284613a66565b90508281101561011e5761011e613a79565b600061011b82846138db565b600082821115610d0157610d01613a79565b61011b8284613990565b600082610d1a5750600061011e565b610d2482846138a6565b905081610d3184836138db565b1461011e5761011e613a79565b600080848460ff1681548110610d5657610d56613890565b60009182526020909120600290910201805490915060ff166003811415610d97578154610d8d908790610100900460ff1686610d3e565b159250505061014c565b600a60ff821610801590610daf5750600f60ff821611155b15610e79578154600090610dcd908890610100900460ff1687610708565b8354909150600090610dea90899062010000900460ff1688610708565b905060ff8316600a1415610e035714925061014c915050565b60ff8316600b1415610e1b571415925061014c915050565b60ff8316600c1415610e325711925061014c915050565b60ff8316600d1415610e495710925061014c915050565b60ff8316600e1415610e61571015925061014c915050565b60ff8316600f14156108f6571115925061014c915050565b601060ff821610801590610e915750601160ff821611155b15610f1b578154600090610eaf908890610100900460ff1687610d3e565b905060ff821660101415610ee6578015610eda57825461094190889062010000900460ff1687610d3e565b6000935050505061014c565b60ff821660111415610963578015610f04576001935050505061014c565b825461094190889062010000900460ff1687610d3e565b60ff81166012141561006d578154600090610f40908890610100900460ff1687610d3e565b90508015610f5f57825461094190889062010000900460ff1687610d3e565b82546109419088906301000000900460ff1687610d3e565b600081831015610f8657600080fd5b60008083610f986001607f1b876138a6565b610fa291906138db565b905070015bf0a8b1457695355fb8ac404e7a79e3811015610fcd57610fc681611586565b9150610fd9565b610fd681611af5565b91505b6001607f1b610fe887846138a6565b61016291906138db565b600080600160811b861061100557600080fd5b8486101561101257600080fd5b600080866110246001607f1b8a6138a6565b61102e91906138db565b905070015bf0a8b1457695355fb8ac404e7a79e38110156110595761105281611586565b9150611065565b61106281611af5565b91505b60008563ffffffff168763ffffffff168461108091906138a6565b61108a91906138db565b9050600160831b8110156110af576110a181611be3565b607f945094505050506110e3565b60006110ba8261220e565b90506110d66110ca82607f613a8f565b60ff1683901c82612d59565b955093506110e392505050565b94509492505050565b6000600160ff83161161110157506000919050565b600360ff83161161111457506001919050565b601160ff83161161112757506002919050565b601360ff83161161113a57506003919050565b601460ff83161161006d57506004919050565b6000600160ff8416116111625750600161011e565b60ff8316600214156111ae5760018260008151811061118357611183613890565b6020026020010151600281111561119c5761119c613a50565b146111a657600080fd5b50600161011e565b60ff8316600314156111fa576002826000815181106111cf576111cf613890565b602002602001015160028111156111e8576111e8613a50565b146111f257600080fd5b50600261011e565b600460ff8416108015906112125750600960ff841611155b156112645760018260008151811061122c5761122c613890565b6020026020010151600281111561124557611245613a50565b1461124f57600080fd5b60018260018151811061118357611183613890565b600a60ff84161080159061127c5750600f60ff841611155b156112cf5760018260008151811061129657611296613890565b602002602001015160028111156112af576112af613a50565b146112b957600080fd5b60015b826001815181106111cf576111cf613890565b601060ff8416108015906112e75750601160ff841611155b1561132b5760028260008151811061130157611301613890565b6020026020010151600281111561131a5761131a613a50565b1461132457600080fd5b60026112bc565b60ff83166012141561142c5760028260008151811061134c5761134c613890565b6020026020010151600281111561136557611365613a50565b1461136f57600080fd5b60008260018151811061138457611384613890565b6020026020010151600281111561139d5761139d613a50565b14156113a857600080fd5b816002815181106113bb576113bb613890565b602002602001015160028111156113d4576113d4613a50565b826001815181106113e7576113e7613890565b6020026020010151600281111561140057611400613a50565b1461140a57600080fd5b8160018151811061141d5761141d613890565b6020026020010151905061011e565b60ff8316601314156114bd5760018260008151811061144d5761144d613890565b6020026020010151600281111561146657611466613a50565b1461147057600080fd5b60018260018151811061148557611485613890565b6020026020010151600281111561149e5761149e613a50565b146114a857600080fd5b60018260028151811061118357611183613890565b60ff83166014141561006d576001826000815181106114de576114de613890565b602002602001015160028111156114f7576114f7613a50565b1461150157600080fd5b60018260018151811061151657611516613890565b6020026020010151600281111561152f5761152f613a50565b1461153957600080fd5b60018260028151811061154e5761154e613890565b6020026020010151600281111561156757611567613a50565b1461157157600080fd5b60018260038151811061118357611183613890565b6000808080806fd3094c70f034de4b96ff7d5b6f99fcd886106115df576115b16001607e1b85613a66565b93506fd3094c70f034de4b96ff7d5b6f99fcd86115d26001607f1b886138a6565b6115dc91906138db565b95505b6fa45af1e1f40c333b3de1db4dd55f29a78610611632576116046001607d1b85613a66565b93506fa45af1e1f40c333b3de1db4dd55f29a76116256001607f1b886138a6565b61162f91906138db565b95505b6f910b022db7ae67ce76b441c27035c6a18610611685576116576001607c1b85613a66565b93506f910b022db7ae67ce76b441c27035c6a16116786001607f1b886138a6565b61168291906138db565b95505b6f88415abbe9a76bead8d00cf112e4d4a886106116d8576116aa6001607b1b85613a66565b93506f88415abbe9a76bead8d00cf112e4d4a86116cb6001607f1b886138a6565b6116d591906138db565b95505b6f84102b00893f64c705e841d5d4064bd3861061172b576116fd6001607a1b85613a66565b93506f84102b00893f64c705e841d5d4064bd361171e6001607f1b886138a6565b61172891906138db565b95505b6f8204055aaef1c8bd5c3259f4822735a2861061177e57611750600160791b85613a66565b93506f8204055aaef1c8bd5c3259f4822735a26117716001607f1b886138a6565b61177b91906138db565b95505b6f810100ab00222d861931c15e39b44e9986106117d1576117a3600160781b85613a66565b93506f810100ab00222d861931c15e39b44e996117c46001607f1b886138a6565b6117ce91906138db565b95505b6f808040155aabbbe9451521693554f7338610611824576117f6600160771b85613a66565b93506f808040155aabbbe9451521693554f7336118176001607f1b886138a6565b61182191906138db565b95505b6118326001607f1b87613990565b92508291506001607f1b61184683806138a6565b61185091906138db565b9050600160801b6118618482613990565b61186b90846138a6565b61187591906138db565b61187f9085613a66565b93506001607f1b61189082846138a6565b61189a91906138db565b9150600160811b6118bb846faaaaaaaaaaaaaaaaaaaaaaaaaaaaaaaa613990565b6118c590846138a6565b6118cf91906138db565b6118d99085613a66565b93506001607f1b6118ea82846138a6565b6118f491906138db565b9150600360801b611915846f99999999999999999999999999999999613990565b61191f90846138a6565b61192991906138db565b6119339085613a66565b93506001607f1b61194482846138a6565b61194e91906138db565b9150600160821b61196f846f92492492492492492492492492492492613990565b61197990846138a6565b61198391906138db565b61198d9085613a66565b93506001607f1b61199e82846138a6565b6119a891906138db565b9150600560801b6119c9846f8e38e38e38e38e38e38e38e38e38e38e613990565b6119d390846138a6565b6119dd91906138db565b6119e79085613a66565b93506001607f1b6119f882846138a6565b611a0291906138db565b9150600360811b611a23846f8ba2e8ba2e8ba2e8ba2e8ba2e8ba2e8b613990565b611a2d90846138a6565b611a3791906138db565b611a419085613a66565b93506001607f1b611a5282846138a6565b611a5c91906138db565b9150600760801b611a7d846f89d89d89d89d89d89d89d89d89d89d89613990565b611a8790846138a6565b611a9191906138db565b611a9b9085613a66565b93506001607f1b611aac82846138a6565b611ab691906138db565b9150600160831b611ad7846f88888888888888888888888888888888613990565b611ae190846138a6565b611aeb91906138db565b6101629085613a66565b600080600160801b8310611b39576000611b1b611b166001607f1b866138db565b6133b2565b60ff811694851c94909150611b35906001607f1b906138a6565b9150505b6001607f1b831115611bae57607f5b60ff811615611bac576001607f1b611b6085806138a6565b611b6a91906138db565b9350600160801b8410611b9c57600193841c93611b879082613a8f565b60ff166001901b82611b999190613a66565b91505b611ba581613aa0565b9050611b48565b505b6f05b9de1d10bf4103d647b0955897ba80611bd96f03f80fe03f80fe03f80fe03f80fe03f8836138a6565b61014c91906138db565b6000808080611bf66001607c1b86613aba565b91508190506001607f1b611c0a82806138a6565b611c1491906138db565b9050611c28816710e1b3be415a00006138a6565b611c329084613a66565b92506001607f1b611c4383836138a6565b611c4d91906138db565b9050611c61816705a0913f6b1e00006138a6565b611c6b9084613a66565b92506001607f1b611c7c83836138a6565b611c8691906138db565b9050611c9a81670168244fdac780006138a6565b611ca49084613a66565b92506001607f1b611cb583836138a6565b611cbf91906138db565b9050611cd281664807432bc180006138a6565b611cdc9084613a66565b92506001607f1b611ced83836138a6565b611cf791906138db565b9050611d0a81660c0135dca040006138a6565b611d149084613a66565b92506001607f1b611d2583836138a6565b611d2f91906138db565b9050611d42816601b707b1cdc0006138a6565b611d4c9084613a66565b92506001607f1b611d5d83836138a6565b611d6791906138db565b9050611d79816536e0f639b8006138a6565b611d839084613a66565b92506001607f1b611d9483836138a6565b611d9e91906138db565b9050611db081650618fee9f8006138a6565b611dba9084613a66565b92506001607f1b611dcb83836138a6565b611dd591906138db565b9050611de681649c197dcc006138a6565b611df09084613a66565b92506001607f1b611e0183836138a6565b611e0b91906138db565b9050611e1c81640e30dce4006138a6565b611e269084613a66565b92506001607f1b611e3783836138a6565b611e4191906138db565b9050611e528164012ebd13006138a6565b611e5c9084613a66565b92506001607f1b611e6d83836138a6565b611e7791906138db565b9050611e87816317499f006138a6565b611e919084613a66565b92506001607f1b611ea283836138a6565b611eac91906138db565b9050611ebc816301a9d4806138a6565b611ec69084613a66565b92506001607f1b611ed783836138a6565b611ee191906138db565b9050611ef081621c63806138a6565b611efa9084613a66565b92506001607f1b611f0b83836138a6565b611f1591906138db565b9050611f24816201c6386138a6565b611f2e9084613a66565b92506001607f1b611f3f83836138a6565b611f4991906138db565b9050611f5781611ab86138a6565b611f619084613a66565b92506001607f1b611f7283836138a6565b611f7c91906138db565b9050611f8a8161017c6138a6565b611f949084613a66565b92506001607f1b611fa583836138a6565b611faf91906138db565b9050611fbc8160146138a6565b611fc69084613a66565b92506001607f1b611fd783836138a6565b611fe191906138db565b9050611fee8160016138a6565b611ff89084613a66565b92506001607f1b826120126721c3677c82b40000866138db565b61201c9190613a66565b6120269190613a66565b92506001607c1b85161561206e5770018ebef9eac820ae8682b9793ac6d1e776612061847001c3d6a24ed82218787d624d3e5eba95f96138a6565b61206b91906138db565b92505b6001607d1b8516156120b4577001368b2fc6f9609fe7aceb46aa619baed46120a78470018ebef9eac820ae8682b9793ac6d1e7786138a6565b6120b191906138db565b92505b6001607e1b8516156120f9576fbc5ab1b16779be3575bd8f0520a9f21f6120ec847001368b2fc6f9609fe7aceb46aa619baed56138a6565b6120f691906138db565b92505b6001607f1b85161561213d576f454aaa8efe072e7f6ddbab84b40a55c9612130846fbc5ab1b16779be3575bd8f0520a9f21e6138a6565b61213a91906138db565b92505b600160801b851615612181576f0960aadc109e7a3bf4578099615711ea612174846f454aaa8efe072e7f6ddbab84b40a55c56138a6565b61217e91906138db565b92505b600160811b8516156121c4576e2bf84208204f5977f9a8cf01fdce3d6121b7846f0960aadc109e7a3bf4578099615711d76138a6565b6121c191906138db565b92505b600160821b851615612205576d03c6ab775dd0b95b4cbee7e65d116121f8846e2bf84208204f5977f9a8cf01fdc3076138a6565b61220291906138db565b92505b50909392505050565b6000816001641c35fedd1560601b031061222a57506020919050565b816001646c3390ecc9605e1b031061224457506021919050565b816001640cf801476160611b031061225e57506022919050565b8160016431bdb23e1d605f1b031061227857506023919050565b8160016502fb1d8fe083605b1b031061229357506024919050565b8160016505b771955b37605a1b03106122ae57506025919050565b816001650af67a93bb5160591b03106122c957506026919050565b8160016515060c256cb360581b03106122e457506027919050565b816001651428a2f98d7360581b03106122ff57506028919050565b816001654d515663970960561b031061231a57506029919050565b81600165944620b0e70f60551b03106123355750602a919050565b81600166011c592761c66760541b03106123515750602b919050565b8160016602214d10d014eb60531b031061236d5750602c919050565b81600166020ade36b7dbef60531b03106123895750602d919050565b8160016603eab73b3bbfe360521b03106123a55750602e919050565b816001660782ee3593f6d760511b03106123c15750602f919050565b816001661ccf4b44bb4821604f1b03106123dd57506030919050565b8160016606e7f88ad8a77760511b03106123f957506031919050565b8160016669f3d1c921891d604d1b031061241557506032919050565b81600166cb2ff529eb71e5604c1b031061243157506033919050565b81600166c2d415c3db974b604c1b031061244d57506034919050565b8160016702eb40f9f620fda7604a1b031061246a57506035919050565b8160016705990681d961a1eb60491b031061248757506036919050565b81600167055e12902701414760491b03106124a457506037919050565b8160016714962dee9dc9764160471b03106124c157506038919050565b8160016704ef57b9b560fab560491b03106124de57506039919050565b8160016712ed7b32a58f552b60471b03106124fb5750603a919050565b816001679131271922eaa60760441b03106125185750603b919050565b816001678b380f3558668c4760441b03106125355750603c919050565b816001680215f77c045fbe885760421b03106125535750603d919050565b816001600160831b03106125695750603e919050565b816001670f577eded5773a1160471b03106125865750603f919050565b816001680eb5ec597592befbf5603f1b03106125a457506040919050565b816001681c35fedd14b861eb05603e1b03106125c257506041919050565b816001683619c87664579bc94b603d1b03106125e057506042919050565b8160016867c00a3b07ffc01fd7603c1b03106125fe57506043919050565b81600168c6f6c8f8739773a7a5603b1b031061261c57506044919050565b81600168bec763f8209b7a72b1603b1b031061263a57506045919050565b8160016902dbb8caad9b7097b91b60391b031061265957506046919050565b81600169057b3d49dda84556d6f760381b031061267857506047919050565b81600169054183095b2c8ececf3160381b031061269757506048919050565b816001690a14517cc6b9457111ef60371b03106126b657506049919050565b8160016913545598e5c23276ccf160361b03106126d55750604a919050565b816001692511882c39c3adea96ff60351b03106126f45750604b919050565b81600169471649d87199aa99075760341b03106127135750604c919050565b817004429a21a029d4c1457cfbffffffffffff106127335750604d919050565b81700415bc6d6fb7dd71af2cb3ffffffffffff106127535750604e919050565b817003eab73b3bbfe282243ce1ffffffffffff106127735750604f919050565b817003c1771ac9fb6b4c18e229ffffffffffff1061279357506050919050565b81700399e96897690418f785257fffffffffff106127b357506051919050565b81700373fc456c53bb779bf0ea9fffffffffff106127d357506052919050565b8170034f9e8e490c48e67e6ab8bfffffffffff106127f357506053919050565b8170032cbfd4a7adc790560b3337ffffffffff1061281357506054919050565b8170030b50570f6e5d2acca94613ffffffffff1061283357506055919050565b817002eb40f9f620fda6b56c2861ffffffffff1061285357506056919050565b817002cc8340ecb0d0f520a6af58ffffffffff1061287357506057919050565b817002af09481380a0a35cf1ba02ffffffffff1061289357506058919050565b81700292c5bdd3b92ec810287b1b3fffffffff106128b357506059919050565b81700277abdcdab07d5a77ac6d6b9fffffffff106128d35750605a919050565b8170025daf6654b1eaa55fd64df5efffffffff106128f35750605b919050565b81700244c49c648baa98192dce88b7ffffffff106129135750605c919050565b8170022ce03cd5619a311b2471268bffffffff106129335750605d919050565b81700215f77c045fbe885654a44a0fffffffff106129535750605e919050565b816001600160811b03106129695750605f919050565b817001eaefdbdaaee7421fc4d3ede5ffffffff1061298957506060919050565b817001d6bd8b2eb257df7e8ca57b09bfffffff106129a957506061919050565b817001c35fedd14b861eb0443f7f133fffffff106129c957506062919050565b817001b0ce43b322bcde4a56e8ada5afffffff106129e957506063919050565b8170019f0028ec1fff007f5a195a39dfffffff10612a0957506064919050565b8170018ded91f0e72ee74f49b15ba527ffffff10612a2957506065919050565b8170017d8ec7f04136f4e5615fd41a63ffffff10612a4957506066919050565b8170016ddc6556cdb84bdc8d12d22e6fffffff10612a6957506067919050565b8170015ecf52776a1155b5bd8395814f7fffff10612a8957506068919050565b8170015060c256cb23b3b3cc3754cf40ffffff10612aa957506069919050565b817001428a2f98d728ae223ddab715be3fffff10612ac95750606a919050565b8170013545598e5c23276ccf0ede68034fffff10612ae95750606b919050565b817001288c4161ce1d6f54b7f61081194fffff10612b095750606c919050565b8170011c592761c666aa641d5a01a40f17ffff10612b295750606d919050565b81700110a688680a7530515f3e6e6cfdcdffff10612b495750606e919050565b817001056f1b5bedf75c6bcb2ce8aed428ffff10612b695750606f919050565b816ffaadceceeff8a0890f3875f008277fff10612b8857506070919050565b816ff05dc6b27edad306388a600f6ba0bfff10612ba757506071919050565b816fe67a5a25da41063de1495d5b18cdbfff10612bc657506072919050565b816fdcff115b14eedde6fc3aa5353f2e4fff10612be557506073919050565b816fd3e7a3924312399f9aae2e0f868f8fff10612c0457506074919050565b816fcb2ff529eb71e41582cccd5a1ee26fff10612c2357506075919050565b816fc2d415c3db974ab32a51840c0b67edff10612c4257506076919050565b816fbad03e7d883f69ad5b0a186184e06bff10612c6157506077919050565b816fb320d03b2c343d4829abd6075f0cc5ff10612c8057506078919050565b816fabc25204e02828d73c6e80bcdb1a95bf10612c9f57506079919050565b816fa4b16f74ee4bb2040a1ec6c15fbbf2df10612cbe5750607a919050565b816f9deaf736ac1f569deb1b5ae3f36c130f10612cdd5750607b919050565b816f976bd9952c7aa957f5937d790ef6503710612cfc5750607c919050565b816f9131271922eaa6064b73a22d0bd4f2bf10612d1b5750607d919050565b816f8b380f3558668c46c91c49a2f8e967b910612d3a5750607e919050565b816f857ddf0117efa215952912839f6473e61061006d5750607f919050565b6000828160ff8416612d6b83806138a6565b901c9150612d88826b0d10b13981d2a0bc5e5fdcab601e1b6138a6565b612d929082613a66565b905060ff8416612da286846138a6565b901c9150612dbf826b045ae5bdd5f0e03eca1ff439601e1b6138a6565b612dc99082613a66565b905060ff8416612dd986846138a6565b901c9150612df6826e45ae5bdd5f0e03eca1ff43900000006138a6565b612e009082613a66565b905060ff8416612e1086846138a6565b901c9150612e2c826adefabf91302cd95b9ffda5601c1b6138a6565b612e369082613a66565b905060ff8416612e4686846138a6565b901c9150612e62826a4a53953065644873dfff37601b1b6138a6565b612e6c9082613a66565b905060ff8416612e7c86846138a6565b901c9150612e98826d54f1cf12bd04e516b6da880000006138a6565b612ea29082613a66565b905060ff8416612eb286846138a6565b901c9150612ece826d0a9e39e257a09ca2d6db510000006138a6565b612ed89082613a66565b905060ff8416612ee886846138a6565b901c9150612f04826d012e066e7b839fa050c3090000006138a6565b612f0e9082613a66565b905060ff8416612f1e86846138a6565b901c9150612f39826c1e33d7d926c329a1ad1a8000006138a6565b612f439082613a66565b905060ff8416612f5386846138a6565b901c9150612f6e826c02bee513bdb4a6b19b5f8000006138a6565b612f789082613a66565b905060ff8416612f8886846138a6565b901c9150612fa2826b3a9316fa79b88eccf2a000006138a6565b612fac9082613a66565b905060ff8416612fbc86846138a6565b901c9150612fd6826b048177ebe1fa8123752000006138a6565b612fe09082613a66565b905060ff8416612ff086846138a6565b901c9150613009826a5263fe90242dcbacf000006138a6565b6130139082613a66565b905060ff841661302386846138a6565b901c915061303c826a057e22099c030d941000006138a6565b6130469082613a66565b905060ff841661305686846138a6565b901c915061306e826957e22099c030d94100006138a6565b6130789082613a66565b905060ff841661308886846138a6565b901c91506130a08269052b6b545699763100006138a6565b6130aa9082613a66565b905060ff84166130ba86846138a6565b901c91506130d182684985f67696bf7480006138a6565b6130db9082613a66565b905060ff84166130eb86846138a6565b901c9150613102826803dea12ea99e4980006138a6565b61310c9082613a66565b905060ff841661311c86846138a6565b901c9150613132826731880f2214b6e0006138a6565b61313c9082613a66565b905060ff841661314c86846138a6565b901c91506131628267025bcff56eb360006138a6565b61316c9082613a66565b905060ff841661317c86846138a6565b901c915061319182661b722e10ab10006138a6565b61319b9082613a66565b905060ff84166131ab86846138a6565b901c91506131c0826601317c700770006138a6565b6131ca9082613a66565b905060ff84166131da86846138a6565b901c91506131ee82650cba84aafa006138a6565b6131f89082613a66565b905060ff841661320886846138a6565b901c915061321b826482573a0a006138a6565b6132259082613a66565b905060ff841661323586846138a6565b901c9150613248826405035ad9006138a6565b6132529082613a66565b905060ff841661326286846138a6565b901c915061327482632f881b006138a6565b61327e9082613a66565b905060ff841661328e86846138a6565b901c91506132a0826301b293406138a6565b6132aa9082613a66565b905060ff84166132ba86846138a6565b901c91506132cb82620efc406138a6565b6132d59082613a66565b905060ff84166132e586846138a6565b901c91506132f582617fe06138a6565b6132ff9082613a66565b905060ff841661330f86846138a6565b901c915061331f826104206138a6565b6133299082613a66565b905060ff841661333986846138a6565b901c91506133488260216138a6565b6133529082613a66565b905060ff841661336286846138a6565b901c91506133718260016138a6565b61337b9082613a66565b9050600160ff85161b8561339e6b0d10b13981d2a0bc5e5fdcab601f1b846138db565b6133a89190613a66565b61029e9190613a66565b6000806101008310156133e5575b60018311156133e057600192831c926133d99082613a2a565b90506133c0565b61011e565b60805b60ff81161561341757600160ff82161b841061340c5760ff81169390931c92908117905b60011c607f166133e8565b5092915050565b828054828255906000526020600020908101928215613459579160200282015b8281111561345957825182559160200191906001019061343e565b50613465929150613469565b5090565b5b80821115613465576000815560010161346a565b803561011e565b6000806040838503121561349b5761349b600080fd5b60006134a7858561347e565b92505060206134b88582860161347e565b9150509250929050565b8181526020810161011e565b60008083601f8401126134e3576134e3600080fd5b5081356001600160401b038111156134fd576134fd600080fd5b602083019150836020820283011115610c9d57610c9d600080fd5b6000806020838503121561352e5761352e600080fd5b82356001600160401b0381111561354757613547600080fd5b613553858286016134ce565b92509250509250929050565b601f01601f191690565b634e487b7160e01b600052604160045260246000fd5b6135888261355f565b81018181106001600160401b03821117156135a5576135a5613569565b6040525050565b60006135b760405190565b90506135c3828261357f565b919050565b60006001600160401b038211156135e1576135e1613569565b5060209081020190565b60006135fe6135f9846135c8565b6135ac565b8381529050602080820190840283018581111561361d5761361d600080fd5b835b818110156136415780613632888261347e565b8452506020928301920161361f565b5050509392505050565b600082601f83011261365f5761365f600080fd5b81356101b08482602086016135eb565b6000806040838503121561368557613685600080fd5b82356001600160401b0381111561369e5761369e600080fd5b6136aa8582860161364b565b92505060208301356001600160401b038111156136c9576136c9600080fd5b6134b88582860161364b565b6000806000606084860312156136ed576136ed600080fd5b60006136f9868661347e565b935050602061370a8682870161347e565b925050604061371b8682870161347e565b9150509250925092565b60006137336135f9846135c8565b8381529050602080820190840283018581111561375257613752600080fd5b835b818110156136415780613767888261347e565b84525060209283019201613754565b600082601f83011261378a5761378a600080fd5b81356101b0848260208601613725565b600080600080600060a086880312156137b5576137b5600080fd5b85356001600160401b038111156137ce576137ce600080fd5b6137da8882890161364b565b95505060208601356001600160401b038111156137f9576137f9600080fd5b6138058882890161364b565b94505060408601356001600160401b0381111561382457613824600080fd5b61383088828901613776565b93505060606138418882890161347e565b92505060806138528882890161347e565b9150509295509295909350565b634e487b7160e01b600052601160045260246000fd5b60006000198214156138895761388961385f565b5060010190565b634e487b7160e01b600052603260045260246000fd5b60008160001904831182151516156138c0576138c061385f565b500290565b634e487b7160e01b600052601260045260246000fd5b6000826138ea576138ea6138c5565b500490565b6000826001600160ff1b0304821160008413600084131616156139145761391461385f565b81600160ff1b05831260008412600084131616156139345761393461385f565b82600160ff1b05821260008413600084121616156139545761395461385f565b826001600160ff1b0305821260008412600084121616156138c0576138c061385f565b600060ff8216915060ff8214156138895761388961385f565b6000825b9250828210156139a6576139a661385f565b500390565b60005b838110156139c65781810151838201526020016139ae565b8381111561060a5750506000910152565b60006139e1825190565b8084526020840193506139f88185602086016139ab565b613a018161355f565b9093019392505050565b60408082528101613a1c81856139d7565b905061014c60208301849052565b600060ff8216915060ff831692508260ff03821115613a4b57613a4b61385f565b500190565b634e487b7160e01b600052602160045260246000fd5b60008219821115613a4b57613a4b61385f565b634e487b7160e01b600052600160045260246000fd5b600060ff8216915060ff8316613994565b60ff16600081613ab257613ab261385f565b506000190190565b600082613ac957613ac96138c5565b50069056fea2646970667358221220f30d4bd524f5f565d63f7a9999304ba5e1a6533398861bad3e70c185a414a8ab64736f6c634300080a0033",
    "linkReferences": {},
    "deployedLinkReferences": {}
}