{
    "_format": "hh-sol-artifact-1",
    "contractName": "RouteFacet",
    "sourceName": "contracts/Facets/RouteFacet.sol",
    "abi": [
        {
            "inputs": [],
            "name": "T",
            "type": "error"
        },
        {
            "inputs": [
                {
                    "internalType": "address",
                    "name": "userRoute",
                    "type": "address"
                },
                {
                    "internalType": "uint256",
                    "name": "_poolID",
                    "type": "uint256"
                }
            ],
            "name": "RouteApartOf",
            "outputs": [
                {
                    "internalType": "bool",
                    "name": "response",
                    "type": "bool"
                }
            ],
            "stateMutability": "view",
            "type": "function"
        },
        {
            "inputs": [
                {
                    "internalType": "address",
                    "name": "potentialRoute",
                    "type": "address"
                },
                {
                    "internalType": "uint256",
                    "name": "_posID",
                    "type": "uint256"
                }
            ],
            "name": "RouteApartOfPos",
            "outputs": [
                {
                    "internalType": "bool",
                    "name": "response",
                    "type": "bool"
                }
            ],
            "stateMutability": "view",
            "type": "function"
        },
        {
            "inputs": [
                {
                    "internalType": "address",
                    "name": "userToken",
                    "type": "address"
                },
                {
                    "internalType": "uint256",
                    "name": "_poolID",
                    "type": "uint256"
                }
            ],
            "name": "TokenApartOf",
            "outputs": [
                {
                    "internalType": "bool",
                    "name": "response",
                    "type": "bool"
                }
            ],
            "stateMutability": "view",
            "type": "function"
        },
        {
            "inputs": [
                {
                    "internalType": "uint256",
                    "name": "_posID",
                    "type": "uint256"
                }
            ],
            "name": "getLoanInfo",
            "outputs": [
                {
                    "components": [
                        {
                            "internalType": "address",
                            "name": "user",
                            "type": "address"
                        },
                        {
                            "internalType": "uint256",
                            "name": "userAmount",
                            "type": "uint256"
                        },
                        {
                            "internalType": "uint256",
                            "name": "providedAmount",
                            "type": "uint256"
                        },
                        {
                            "internalType": "address",
                            "name": "tokenProvided",
                            "type": "address"
                        },
                        {
                            "internalType": "address",
                            "name": "userToken",
                            "type": "address"
                        },
                        {
                            "internalType": "uint256",
                            "name": "interestLast",
                            "type": "uint256"
                        },
                        {
                            "components": [
                                {
                                    "internalType": "bytes",
                                    "name": "val",
                                    "type": "bytes"
                                },
                                {
                                    "internalType": "bool",
                                    "name": "neg",
                                    "type": "bool"
                                },
                                {
                                    "internalType": "uint256",
                                    "name": "bitlen",
                                    "type": "uint256"
                                }
                            ],
                            "internalType": "struct BigNumber",
                            "name": "userRoutePrimeProduct",
                            "type": "tuple"
                        },
                        {
                            "internalType": "uint256",
                            "name": "positionCreatedTime",
                            "type": "uint256"
                        },
                        {
                            "internalType": "uint256",
                            "name": "ltv",
                            "type": "uint256"
                        }
                    ],
                    "internalType": "struct IBorrowInformation.V3Position",
                    "name": "",
                    "type": "tuple"
                }
            ],
            "stateMutability": "view",
            "type": "function"
        },
        {
            "inputs": [
                {
                    "internalType": "uint256",
                    "name": "_posID",
                    "type": "uint256"
                }
            ],
            "name": "getPrincipal",
            "outputs": [
                {
                    "internalType": "uint256",
                    "name": "amount0",
                    "type": "uint256"
                },
                {
                    "internalType": "uint256",
                    "name": "amount1",
                    "type": "uint256"
                }
            ],
            "stateMutability": "view",
            "type": "function"
        },
        {
            "inputs": [
                {
                    "internalType": "uint256",
                    "name": "_posID",
                    "type": "uint256"
                }
            ],
            "name": "getStartingPrice",
            "outputs": [
                {
                    "internalType": "uint160",
                    "name": "sqrtPriceX96",
                    "type": "uint160"
                }
            ],
            "stateMutability": "view",
            "type": "function"
        },
        {
            "inputs": [
                {
                    "internalType": "address",
                    "name": "tokenIn",
                    "type": "address"
                },
                {
                    "internalType": "address",
                    "name": "tokenOut",
                    "type": "address"
                },
                {
                    "internalType": "uint256",
                    "name": "swapAmount",
                    "type": "uint256"
                },
                {
                    "internalType": "address",
                    "name": "chosenRoute",
                    "type": "address"
                }
            ],
            "name": "swapTokenIn",
            "outputs": [
                {
                    "internalType": "uint256",
                    "name": "amountSent",
                    "type": "uint256"
                },
                {
                    "internalType": "uint256",
                    "name": "amountReceived",
                    "type": "uint256"
                }
            ],
            "stateMutability": "nonpayable",
            "type": "function"
        },
        {
            "inputs": [
                {
                    "internalType": "address",
                    "name": "tokenIn",
                    "type": "address"
                },
                {
                    "internalType": "address",
                    "name": "tokenOut",
                    "type": "address"
                },
                {
                    "internalType": "uint256",
                    "name": "swapAmount",
                    "type": "uint256"
                },
                {
                    "internalType": "address",
                    "name": "chosenRoute",
                    "type": "address"
                }
            ],
            "name": "swapTokenOut",
            "outputs": [
                {
                    "internalType": "uint256",
                    "name": "amountSent",
                    "type": "uint256"
                },
                {
                    "internalType": "uint256",
                    "name": "amountReceived",
                    "type": "uint256"
                }
            ],
            "stateMutability": "nonpayable",
            "type": "function"
        }
    ],
    "bytecode": "0x608060405234801561001057600080fd5b50612171806100206000396000f3fe608060405234801561001057600080fd5b50600436106100785760003560e01c80630714012c1461007d5780631b2a20f5146100a657806329e02cdd146100c65780636d31adfd146100e657806377353b7c14610107578063da4779e01461011a578063e74773c31461012d578063f685bb7814610107575b600080fd5b61009061008b366004611a8d565b610140565b60405161009d9190611c45565b60405180910390f35b6100b96100b4366004611a8d565b610157565b60405161009d9190611c5f565b6100d96100d4366004611c81565b610162565b60405161009d9190611cbe565b6100f96100f4366004611ccc565b610175565b60405161009d929190611d30565b6100d9610115366004611c81565b610192565b6100f9610128366004611a8d565b61019e565b6100f961013b366004611ccc565b6101b3565b6101486119e2565b610151826101c2565b92915050565b600061015182610319565b600061016e83836103a9565b9392505050565b60008061018486868686610575565b915091505b94509492505050565b600061016e8383610708565b6000806101aa83610828565b91509150915091565b600080610184868686866108c6565b6101ca6119e2565b60006101d461099f565b600084815260018201602052909150604090206040516101208101604090815282546001600160a01b039081168352600184015460208401526002840154828401526003840154811660608401526004840154166080830152600583015460a083015290919060c083019060068301905180606001604052908160008201805461025d90611d61565b80601f016020809104026020016040519081016040528092919081815260200182805461028990611d61565b80156102d65780601f106102ab576101008083540402835291602001916102d6565b820191906000526020600020905b8154815290600101906020018083116102b957829003601f168201915b5050509183525050600182015460ff161515602080830191909152600290920154604091820152918352600984015490830152600a909201549101529392505050565b60008061032461099f565b60008481526002820160205290915060409020600301546001600160a01b0316633850c7bd6040518163ffffffff1660e01b815260040160e060405180830381865afa158015610378573d6000803e3d6000fd5b50505050604051601f3d908101601f1916820160405261039b9190810190611e01565b509498975050505050505050565b6000806103b46109c3565b905060006103c06109e7565b6001600160a01b038616600090815260048401602052909150604081206040518060600160405290816000820180546103f890611d61565b80601f016020809104026020016040519081016040528092919081815260200182805461042490611d61565b80156104715780601f1061044657610100808354040283529160200191610471565b820191906000526020600020905b81548152906001019060200180831161045457829003601f168201915b5050509183525050600182015460ff1615156020808301919091526002928301546040928301526000898152928601905291925061056b9190206006016040518060600160405290816000820180546104c990611d61565b80601f01602080910402602001604051908101604052809291908181526020018280546104f590611d61565b80156105425780601f1061051757610100808354040283529160200191610542565b820191906000526020600020905b81548152906001019060200180831161052557829003601f168201915b5050509183525050600182015460ff161515602082015260029091015460409091015282610a0b565b9695505050505050565b6000808060026040519080825280602002602001820160405280156105a4578160200160208202803683370190505b50905086816000815181106105bb576105bb611ea0565b60200260200101906001600160a01b031690816001600160a01b03168152505085816001815181106105ef576105ef611ea0565b60200260200101906001600160a01b031690816001600160a01b0316815250506106858785896001600160a01b03166370a08231306040518263ffffffff1660e01b81526004016106409190611eb6565b602060405180830381865afa15801561065d573d6000803e3d6000fd5b50505050604051601f3d908101601f191682016040526106809190810190611ed3565b610a20565b836001600160a01b0316638bfe562d8683306103e86040518563ffffffff1660e01b81526004016106b99493929190611f6f565b60408051808303816000875af11580156106d7573d6000803e3d6000fd5b50505050604051601f3d908101601f191682016040526106fa9190810190611fb4565b909890975095505050505050565b6000806107136109c3565b9050600061071f6109e7565b6001600160a01b0386166000908152600584016020529091506040812060405180606001604052908160008201805461075790611d61565b80601f016020809104026020016040519081016040528092919081815260200182805461078390611d61565b80156107d05780601f106107a5576101008083540402835291602001916107d0565b820191906000526020600020905b8154815290600101906020018083116107b357829003601f168201915b5050509183525050600182015460ff1615156020808301919091526002928301546040928301526000898152928601905291925061056b9190206009016040518060600160405290816000820180546104c990611d61565b600080600061083561099f565b90506108bb61084385610319565b60008681526003840160205261087b906040902060020160005b600a91828204019190066003029054906101000a900460020b610b1a565b6000878152600385016020526108999060409020600201600161085d565b60008881526002860160205260409020600201546001600160801b0316610e2f565b909590945092505050565b6000808060026040519080825280602002602001820160405280156108f5578160200160208202803683370190505b509050868160008151811061090c5761090c611ea0565b60200260200101906001600160a01b031690816001600160a01b031681525050858160018151811061094057610940611ea0565b60200260200101906001600160a01b031690816001600160a01b03168152505061096b878587610a20565b836001600160a01b0316630e92074e8683306103e86040518563ffffffff1660e01b81526004016106b99493929190611f6f565b7f76e009e8795104f2b1c213a72f3a2f55e5e2c18e90e0fd46976243364cfa330890565b7f0d43da364a0638960305dfe50a31885563d74a8f7db015249711452bd02d5f7f90565b7f714a1b8e4c0797f01e154a76911cbb626f31923ab43ed93cfb1c05e6a71f21d690565b600061016e610a1a8484610eca565b51610ee4565b6000806001600160a01b03851663a9059cbb60e01b8585604051602401610a48929190611fe7565b604051602081830303815290604052906001600160e01b0319166020820180516001600160e01b03169091179052604051610a83919061201d565b6000604051808303816000865af19150503d8060008114610ac0576040513d603f01601f191681016040523d815291503d6000602084013e610ac5565b606091505b5091509150818015610aee575080511580610aee5750602081018151810190610aee9190612029565b610b135760405162461bcd60e51b8152600401610b0a9061204a565b60405180910390fd5b5050505050565b60008060008360020b12610b31578260020b610b39565b8260020b6000035b9050620d89e8811115610b5f576040516315e4079d60e11b815260040160405180910390fd5b600060018216610b7357600160801b610b85565b6ffffcb933bd6fad37aa2d162d1a5940015b6001600160881b031690506002821615610baf576ffff97272373d413259a46990580e213a0260801c5b6004821615610bce576ffff2e50f5f656932ef12357cf3c7fdcc0260801c5b6008821615610bed576fffe5caca7e10e4e61c3624eaa0941cd00260801c5b6010821615610c0c576fffcb9843d60f6159c9db58835c9266440260801c5b6020821615610c2b576fff973b41fa98c081472e6896dfb254c00260801c5b6040821615610c4a576fff2ea16466c96a3843ec78b326b528610260801c5b6080821615610c69576ffe5dee046a99a2a811c461f1969c30530260801c5b610100821615610c89576ffcbe86c7900a88aedcffc83b479aa3a40260801c5b610200821615610ca9576ff987a7253ac413176f2b074cf7815e540260801c5b610400821615610cc9576ff3392b0822b70005940c7a398e4b70f30260801c5b610800821615610ce9576fe7159475a2c29b7443b29c7fa6e889d90260801c5b611000821615610d09576fd097f3bdfd2022b8845ad8f792aa58250260801c5b612000821615610d29576fa9f746462d870fdf8a65dc1f90e061e50260801c5b614000821615610d49576f70d869a156d2a1b890bb3df62baf32f70260801c5b618000821615610d69576f31be135f97d08fd981231505542fcfa60260801c5b62010000821615610d8a576f09aa508b5b7a84e1c677de54f3e99bc90260801c5b62020000821615610daa576e5d6af8dedb81196699c329225ee6040260801c5b62040000821615610dc9576d2216e584f5fa1ea926041bedfe980260801c5b62080000821615610de6576b048a170391f7dc42444e8fa20260801c5b60008460020b1315610e07578060001981610e0357610e0361206a565b0490505b600160201b810615610e1a576001610e1d565b60005b60ff16602082901c0192505050919050565b600080836001600160a01b0316856001600160a01b03161115610e50579293925b846001600160a01b0316866001600160a01b031611610e7b57610e74858585610f2d565b9150610189565b836001600160a01b0316866001600160a01b03161015610eb457610ea0868585610f2d565b9150610ead858785610f9c565b9050610189565b610ebf858585610f9c565b905094509492505050565b610ed2611a4f565b61016e83610ede610fe7565b84611029565b60008060208301815b8451811015610f2257815192508215610f0b57506000949350505050565b602091820191610f1b9082612096565b9050610eed565b506001949350505050565b6000826001600160a01b0316846001600160a01b03161115610f4d579192915b836001600160a01b0316610f86606060ff16846001600160801b0316901b8686036001600160a01b0316866001600160a01b0316611105565b81610f9357610f9361206a565b04949350505050565b6000826001600160a01b0316846001600160a01b03161115610fbc579192915b610fdf826001600160801b03168585036001600160a01b0316600160601b611105565b949350505050565b610fef611a4f565b6040518060600160405280604051806040016040528060208152602001600181525081526020016000151581526020016001815250905090565b611031611a4f565b826020015115801561104557508160200151155b801561105857506110568251610ee4565b155b61106157600080fd5b60006110718551855185516111b8565b9050600061107e82611282565b9050806110965761108d6112c0565b9250505061016e565b856020015180156110ba57506110ba85600081515182510160028151069392505050565b156110e35761108d60405160608101604090815284825260016020830152810183905285611302565b6040516060810160409081529281526000602082015291820152949350505050565b60008080600019858709858702925082811083820303915050806000141561113f576000841161113457600080fd5b50829004905061016e565b80841161114b57600080fd5b6000848688096000868103871696879004966002600389028118808a02820302808a02820302808a02820302808a02820302808a02820302808a02909103029181900381900460010186841190950394909402919094039290920491909117919091029150509392505050565b606083518351835160405183815282602082015281604082015283606082018560208b0160046101c2fa84606001848184018660208c0160046101c2fa91508401838382018160208b0160046101c2fa915081801561121657611218565bfe5b5083018360608401828560056105465a03fa9150818015611216575083606084015b60208214611265576000815114600181146112555750611265565b50601f199091019060200161123a565b601f19019081529290930160600160405250979650505050505050565b600061128d82610ee4565b1561129a57506000919050565b6000602083015190506112ac81611491565b915060086020845103028201915050919050565b6112c8611a4f565b6040518060600160405280604051806040016040528060208152602001600081525081526020016000151581526020016000815250905090565b61130a611a4f565b826040015115801561131e57508160400151155b156113325761132b6112c0565b9050610151565b8260400151611342575080610151565b8160400151611352575081610151565b606060008061136386866000611682565b9050856020015180611376575084602001515b15611440578560200151801561138d575084602001515b156113d857600081126113b5576113ab8651865188604001516117c2565b90935091506113cc565b6113c68551875187604001516117c2565b90935091505b60016020850152611482565b8060011415611403576113ed865186516118e7565b9093509150602086015115156020850152611482565b80600019141561142e57611419855187516118e7565b90935091506020860151156020850152611482565b6114366112c0565b9350505050610151565b60008112611463576114598651865188604001516117c2565b909350915061147a565b6114748551875187604001516117c2565b90935091505b600060208501525b50908252604082015292915050565b600081156001811461167757600160801b600160401b600160201b620100006101006010600460026000198b019081041790810417908104179081041790810417908104179081041790810417600101926040517ff8f9cbfae6cc78fbefe7cdc3a1793dfcf4f0e8bbd8cec470b6a28a7a5a3e1efd81527ff5ecf1b3e9debc68e1d9cfabc5997135bfb7a7a3938b7b606b5b4b3f2f1f0ffe60208201527ff6e4ed9ff2d6b458eadcdf97bd91692de2d4da8fd2d0ac50c6ae9a827252361660408201527fc8c0b887b0a8a4489c948c7f847c6125746c645c544c444038302820181008ff60608201527ff7cae577eec2a03cf3bad76fb589591debb2dd67e0aa9834bea6925f6a4a2e0e60808201527fe39ed557db96902cd38ed14fad815115c786af479b7e8324736353433727170760a08201527fc976c13bb96e881cb166a933a55e490d9d56952b8d4e801485467d236242260660c08201527f753a6d1b65325d0c552a4d1345224105391a310b29122104190a11030902010060e082015261010081016040527e818283848586878898a8b8c8d8e8f929395969799a9b9d9e9faaeb6bedeeff600160f81b8082880204818160ff0385015104600160ff1b8611610100020196506000198501851661166d576001870196505b505050505061167c565b600091505b50919050565b6000600182156116fb578460200151801561169e575083602001515b156116ac57506000196116fb565b84602001511580156116c45750836020015115156001145b156116d357600191505061016e565b8460200151151560011480156116eb57508360200151155b156116fb5760001991505061016e565b83604001518560400151111561171257905061016e565b8460400151846040015111156117365761172e816000196120ae565b91505061016e565b600080808080895151905060208a510194506020895101935060005b818110156117b1578086015193508085015192508284111561177d578697505050505050505061016e565b8383111561179f57611791876000196120ae565b97505050505050505061016e565b6117aa602082612096565b9050611752565b5060009a9950505050505050505050565b60606000606059600060001988518901885189018a5160208601018b515b80156118825783518c518e5103821160018114611820578782018452600188148288141660018114611815576000985061181a565b600198505b5061186f565b8451888184010185528881038803831160018114611861576000821160008b111789851416600181146118565760009a5061185b565b60019a505b50611866565b600199505b50602086039550505b5050601f199384019391820191016117e0565b50841560018114611896576001825261189d565b6020870196505b50859650846020028c510187526020875101870160405260208701516001816101008d061c146001821417156118d45760018b019a505b50959b989a509798505050505050505050565b6060600081816000195987518751808203828b01828b0184860160208101865b801561198d57845186821160018114611944578c8203855260018d146000831416600181146119395760009d5061193e565b60019d505b5061197a565b85518d81840303865260018e148d8214168e82018410176001811461196c5760009e50611971565b60019e505b50602087039650505b5050601f19948501949283019201611907565b506020820191505b6000825114156119b657602088019750602087039650602082019150611995565b879a50868b5280604052505050505050505060006119d384611282565b93989397509295505050505050565b60405180610120016040528060006001600160a01b03168152602001600081526020016000815260200160006001600160a01b0316815260200160006001600160a01b0316815260200160008152602001611a3b611a4f565b815260200160008152602001600081525090565b604051806060016040528060608152602001600015158152602001600081525090565b805b8114611a7f57600080fd5b50565b803561015181611a72565b600060208284031215611aa257611aa2600080fd5b6000610fdf8484611a82565b6001600160a01b031690565b600061015182611aae565b611ace81611aba565b82525050565b80611ace565b60005b83811015611af5578082015183820152602001611add565b83811115611b04576000848401525b50505050565b6000611b1a826000815192915050565b808452602084019350611b31818560208601611ada565b601f01601f19169290920192915050565b801515611ace565b60006060830182518482038552611b618282611b0a565b9150506020830151611b766020860182611b42565b506040830151611b896040860182611ad4565b509392505050565b600061012083018251611ba48582611ac5565b506020830151611bb76020860182611ad4565b506040830151611bca6040860182611ad4565b506060830151611bdd6060860182611ac5565b506080830151611bf06080860182611ac5565b5060a0830151611c0360a0860182611ad4565b5060c083015184820360c0860152611c1b8282611b4a565b91505060e0830151611c3060e0860182611ad4565b50610100830151611b89610100860182611ad4565b6020808252810161016e8184611b91565b611ace81611aae565b602081016101518284611c56565b611a7481611aba565b803561015181611c6d565b60008060408385031215611c9757611c97600080fd5b6000611ca38585611c76565b9250506020611cb485828601611a82565b9150509250929050565b602081016101518284611b42565b60008060008060808587031215611ce557611ce5600080fd5b6000611cf18787611c76565b9450506020611d0287828801611c76565b9350506040611d1387828801611a82565b9250506060611d2487828801611c76565b91505092959194509250565b60408101611d3e8285611ad4565b61016e6020830184611ad4565b634e487b7160e01b600052602260045260246000fd5b600281046001821680611d7557607f821691505b6020821081141561167c5761167c611d4b565b611a7481611aae565b60008151905061015181611d88565b611a748160020b90565b60008151905061015181611da0565b61ffff8116611a74565b60008151905061015181611db9565b60ff8116611a74565b60008151905061015181611dd2565b801515611a74565b60008151905061015181611dea565b600080600080600080600060e0888a031215611e1f57611e1f600080fd5b6000611e2b8a8a611d91565b9750506020611e3c8a828b01611daa565b9650506040611e4d8a828b01611dc3565b9550506060611e5e8a828b01611dc3565b9450506080611e6f8a828b01611dc3565b93505060a0611e808a828b01611ddb565b92505060c0611e918a828b01611df2565b91505092959891949750929550565b634e487b7160e01b600052603260045260246000fd5b602081016101518284611ac5565b60008151905061015181611a72565b600060208284031215611ee857611ee8600080fd5b6000610fdf8484611ec4565b6000611f008383611ac5565b505060200190565b6000611f18826000815192915050565b80845260209384019383018060005b83811015611f4c578151611f3b8882611ef4565b975060208301925050600101611f27565b509495945050505050565b6000610151611f638381565b90565b611ace81611f57565b60808101611f7d8287611ad4565b8181036020830152611f8f8186611f08565b9050611f9e6040830185611ac5565b611fab6060830184611f66565b95945050505050565b60008060408385031215611fca57611fca600080fd5b6000611fd68585611ec4565b9250506020611cb485828601611ec4565b60408101611d3e8285611ac5565b6000612005826000815192915050565b612013818560208601611ada565b9290920192915050565b600061016e8284611ff5565b60006020828403121561203e5761203e600080fd5b6000610fdf8484611df2565b6020808252810161015181600281526114d560f21b602082015260400190565b634e487b7160e01b600052601260045260246000fd5b634e487b7160e01b600052601160045260246000fd5b600082198211156120a9576120a9612080565b500190565b6000826001600160ff1b0304821160008413600084131616156120d3576120d3612080565b81600160ff1b05831260008412600084131616156120f3576120f3612080565b82600160ff1b058212600084136000841216161561211357612113612080565b826001600160ff1b03058212600084126000841216161561213657612136612080565b50029056fea26469706673582212206992c404e9441077da897c4256eee89009c08b779794950b8fa3df62ce96d43364736f6c634300080a0033",
    "linkReferences": {},
    "deployedLinkReferences": {}
}