{
    "_format": "hh-sol-artifact-1",
    "contractName": "TokenToolFacet",
    "sourceName": "contracts/Facets/TokenToolFacet.sol",
    "abi": [
        {
            "inputs": [],
            "name": "T",
            "type": "error"
        },
        {
            "inputs": [
                {
                    "internalType": "int24",
                    "name": "lowerBound",
                    "type": "int24"
                },
                {
                    "internalType": "int24",
                    "name": "upperBound",
                    "type": "int24"
                },
                {
                    "internalType": "int24",
                    "name": "tick",
                    "type": "int24"
                },
                {
                    "internalType": "uint256",
                    "name": "tokenAmount",
                    "type": "uint256"
                },
                {
                    "internalType": "address",
                    "name": "tokenPutIn",
                    "type": "address"
                },
                {
                    "internalType": "address",
                    "name": "poolAddress",
                    "type": "address"
                }
            ],
            "name": "calculateOtherTokenAmount",
            "outputs": [
                {
                    "internalType": "uint256",
                    "name": "otherAmount",
                    "type": "uint256"
                }
            ],
            "stateMutability": "view",
            "type": "function"
        },
        {
            "inputs": [
                {
                    "internalType": "int24",
                    "name": "lowerBound",
                    "type": "int24"
                },
                {
                    "internalType": "int24",
                    "name": "upperBound",
                    "type": "int24"
                },
                {
                    "internalType": "int24",
                    "name": "tick",
                    "type": "int24"
                },
                {
                    "internalType": "address",
                    "name": "poolAddress",
                    "type": "address"
                }
            ],
            "name": "calculateRatioAndPrice",
            "outputs": [
                {
                    "internalType": "uint256",
                    "name": "",
                    "type": "uint256"
                },
                {
                    "internalType": "uint256",
                    "name": "",
                    "type": "uint256"
                }
            ],
            "stateMutability": "view",
            "type": "function"
        },
        {
            "inputs": [
                {
                    "internalType": "int24",
                    "name": "lowerBound",
                    "type": "int24"
                },
                {
                    "internalType": "int24",
                    "name": "upperBound",
                    "type": "int24"
                },
                {
                    "internalType": "int24",
                    "name": "tick",
                    "type": "int24"
                },
                {
                    "internalType": "uint256",
                    "name": "token0Amount",
                    "type": "uint256"
                },
                {
                    "internalType": "address",
                    "name": "poolAddress",
                    "type": "address"
                }
            ],
            "name": "calculateTokenAmounts",
            "outputs": [
                {
                    "internalType": "uint256",
                    "name": "amount0",
                    "type": "uint256"
                },
                {
                    "internalType": "uint256",
                    "name": "amount1",
                    "type": "uint256"
                }
            ],
            "stateMutability": "view",
            "type": "function"
        },
        {
            "inputs": [
                {
                    "internalType": "uint256",
                    "name": "num",
                    "type": "uint256"
                }
            ],
            "name": "getLoanInfoTool",
            "outputs": [
                {
                    "components": [
                        {
                            "internalType": "address",
                            "name": "user",
                            "type": "address"
                        },
                        {
                            "internalType": "uint256",
                            "name": "userAmount",
                            "type": "uint256"
                        },
                        {
                            "internalType": "uint256",
                            "name": "providedAmount",
                            "type": "uint256"
                        },
                        {
                            "internalType": "address",
                            "name": "tokenProvided",
                            "type": "address"
                        },
                        {
                            "internalType": "address",
                            "name": "userToken",
                            "type": "address"
                        },
                        {
                            "internalType": "uint256",
                            "name": "interestLast",
                            "type": "uint256"
                        },
                        {
                            "components": [
                                {
                                    "internalType": "bytes",
                                    "name": "val",
                                    "type": "bytes"
                                },
                                {
                                    "internalType": "bool",
                                    "name": "neg",
                                    "type": "bool"
                                },
                                {
                                    "internalType": "uint256",
                                    "name": "bitlen",
                                    "type": "uint256"
                                }
                            ],
                            "internalType": "struct BigNumber",
                            "name": "userRoutePrimeProduct",
                            "type": "tuple"
                        },
                        {
                            "internalType": "uint256",
                            "name": "positionCreatedTime",
                            "type": "uint256"
                        },
                        {
                            "internalType": "uint256",
                            "name": "ltv",
                            "type": "uint256"
                        }
                    ],
                    "internalType": "struct IBorrowInformation.V3Position",
                    "name": "loanInfo",
                    "type": "tuple"
                }
            ],
            "stateMutability": "view",
            "type": "function"
        },
        {
            "inputs": [
                {
                    "internalType": "uint256",
                    "name": "num",
                    "type": "uint256"
                }
            ],
            "name": "getV3PositionInfoTool",
            "outputs": [
                {
                    "components": [
                        {
                            "internalType": "uint160",
                            "name": "startingPriceX96",
                            "type": "uint160"
                        },
                        {
                            "internalType": "uint256",
                            "name": "NFTID",
                            "type": "uint256"
                        },
                        {
                            "internalType": "uint128",
                            "name": "liquidity",
                            "type": "uint128"
                        },
                        {
                            "internalType": "address",
                            "name": "poolAddress",
                            "type": "address"
                        },
                        {
                            "internalType": "uint256[2]",
                            "name": "takeLossProfit",
                            "type": "uint256[2]"
                        },
                        {
                            "internalType": "int24[2]",
                            "name": "existLowerUpper",
                            "type": "int24[2]"
                        }
                    ],
                    "internalType": "struct IBorrowInformation.V3Info",
                    "name": "posInfo",
                    "type": "tuple"
                }
            ],
            "stateMutability": "view",
            "type": "function"
        },
        {
            "inputs": [
                {
                    "internalType": "address",
                    "name": "router",
                    "type": "address"
                },
                {
                    "internalType": "uint256",
                    "name": "amountMax",
                    "type": "uint256"
                },
                {
                    "internalType": "uint256",
                    "name": "tokenAmount",
                    "type": "uint256"
                },
                {
                    "internalType": "address[]",
                    "name": "tokenPath",
                    "type": "address[]"
                },
                {
                    "internalType": "address",
                    "name": "poolAddress",
                    "type": "address"
                },
                {
                    "internalType": "bool",
                    "name": "exactOut",
                    "type": "bool"
                }
            ],
            "name": "swapAndCheck",
            "outputs": [
                {
                    "internalType": "uint256",
                    "name": "amountInMax",
                    "type": "uint256"
                },
                {
                    "internalType": "uint256",
                    "name": "amountOut",
                    "type": "uint256"
                },
                {
                    "internalType": "int24",
                    "name": "endingTick",
                    "type": "int24"
                }
            ],
            "stateMutability": "nonpayable",
            "type": "function"
        }
    ],
    "bytecode": "0x608060405234801561001057600080fd5b506121aa806100206000396000f3fe608060405234801561001057600080fd5b50600436106100625760003560e01c8063370e4cdf146100675780637f7d338f1461009057806398830248146100b1578063ec4f095e146100d1578063ef8ad4a9146100e4578063fb87288414610104575b600080fd5b61007a6100753660046115bd565b610126565b6040516100879190611786565b60405180910390f35b6100a361009e3660046117c0565b61013d565b604051610087929190611838565b6100c46100bf366004611853565b61015b565b60405161008791906118dd565b6100a36100df3660046118eb565b610176565b6100f76100f23660046115bd565b610193565b6040516100879190611a5a565b610117610112366004611b82565b6101a4565b60405161008793929190611c19565b61012e61149d565b610137826101c9565b92915050565b60008061014d8787878787610326565b915091509550959350505050565b600061016b87878787878761057d565b979650505050505050565b6000806101858686868661085e565b915091505b94509492505050565b61019b611528565b61013782610bc7565b60008060006101b7898989898989610cca565b92509250925096509650969350505050565b6101d161149d565b60006101db610eba565b60008481526001808301602090815260409283902083516101208101855281546001600160a01b03908116825293820154928101929092526002810154828501526003810154831660608084019190915260048201549093166080830152600581015460a08301528351928301909352600683018054949550909360c085019291908290829061026a90611c57565b80601f016020809104026020016040519081016040528092919081815260200182805461029690611c57565b80156102e35780601f106102b8576101008083540402835291602001916102e3565b820191906000526020600020905b8154815290600101906020018083116102c657829003601f168201915b5050509183525050600182015460ff161515602080830191909152600290920154604091820152918352600984015490830152600a909201549101529392505050565b6000806000806103388989898861085e565b915091506000856001600160a01b0316630dfe16816040518163ffffffff1660e01b8152600401602060405180830381865afa15801561037c573d6000803e3d6000fd5b505050506040513d601f19601f820116820180604052508101906103a09190611c8f565b90506000866001600160a01b031663d21220a76040518163ffffffff1660e01b8152600401602060405180830381865afa1580156103e2573d6000803e3d6000fd5b505050506040513d601f19601f820116820180604052508101906104069190611c8f565b9050600061042689670de0b6b3a76400006104218789611cc6565b610ede565b9050600061043d8286670de0b6b3a7640000610ede565b610447908b611cde565b9050836001600160a01b0316836001600160a01b0316101561046557905b836001600160a01b031663313ce5676040518163ffffffff1660e01b8152600401602060405180830381865afa1580156104a3573d6000803e3d6000fd5b505050506040513d601f19601f820116820180604052508101906104c79190611d0d565b6104d2906012611d2e565b6104dd90600a611e44565b6104e79082611e70565b836001600160a01b031663313ce5676040518163ffffffff1660e01b8152600401602060405180830381865afa158015610525573d6000803e3d6000fd5b505050506040513d601f19601f820116820180604052508101906105499190611d0d565b610554906012611d2e565b61055f90600a611e44565b6105699084611e70565b975097505050505050509550959350505050565b600080600061058e8989898761085e565b915091506000846001600160a01b0316630dfe16816040518163ffffffff1660e01b8152600401602060405180830381865afa1580156105d2573d6000803e3d6000fd5b505050506040513d601f19601f820116820180604052508101906105f69190611c8f565b90506000856001600160a01b031663d21220a76040518163ffffffff1660e01b8152600401602060405180830381865afa158015610638573d6000803e3d6000fd5b505050506040513d601f19601f8201168201806040525081019061065c9190611c8f565b9050856001600160a01b031663d21220a76040518163ffffffff1660e01b8152600401602060405180830381865afa15801561069c573d6000803e3d6000fd5b505050506040513d601f19601f820116820180604052508101906106c09190611c8f565b6001600160a01b0316876001600160a01b031614156107a55760006106e5848a611e84565b6106ef8587611cc6565b6106f9908b611e84565b6107039190611cde565b9050610719816001670de0b6b3a7640000610ede565b9050826001600160a01b031663313ce5676040518163ffffffff1660e01b8152600401602060405180830381865afa158015610759573d6000803e3d6000fd5b505050506040513d601f19601f8201168201806040525081019061077d9190611d0d565b610788906012611d2e565b61079390600a611e44565b61079d9082611e70565b955050610850565b60006107ba89670de0b6b3a764000087610ede565b90506107c881600180610ede565b9050816001600160a01b031663313ce5676040518163ffffffff1660e01b8152600401602060405180830381865afa158015610808573d6000803e3d6000fd5b505050506040513d601f19601f8201168201806040525081019061082c9190611d0d565b610837906012611d2e565b61084290600a611e44565b61084c9082611e70565b9550505b505050509695505050505050565b6000806000836001600160a01b0316630dfe16816040518163ffffffff1660e01b8152600401602060405180830381865afa1580156108a1573d6000803e3d6000fd5b505050506040513d601f19601f820116820180604052508101906108c59190611c8f565b6001600160a01b031663313ce5676040518163ffffffff1660e01b8152600401602060405180830381865afa158015610902573d6000803e3d6000fd5b505050506040513d601f19601f820116820180604052508101906109269190611d0d565b60ff1690506000846001600160a01b031663d21220a76040518163ffffffff1660e01b8152600401602060405180830381865afa15801561096b573d6000803e3d6000fd5b505050506040513d601f19601f8201168201806040525081019061098f9190611c8f565b6001600160a01b031663313ce5676040518163ffffffff1660e01b8152600401602060405180830381865afa1580156109cc573d6000803e3d6000fd5b505050506040513d601f19601f820116820180604052508101906109f09190611d0d565b60ff1690506000610a0089610f92565b90506000610a0d89610f92565b9050806001600160a01b0316826001600160a01b03161115610a2b57905b6000610a3689610f92565b6001600160a01b031690506000610a5b82846001600160a01b0316600160601b610ede565b90506000610a89610a756001600160a01b03871685611cde565b83610421866001600160a01b038916611cde565b90506000610aa482670de0b6b3a7640000600160601b610ede565b9050600080888a1015610b3557610aeb670de0b6b3a7640000610ac78c8c611cde565b610ad290600a611ea3565b610adc9190611e84565b670de0b6b3a764000085610ede565b9150610b32670de0b6b3a7640000610b038c8c611cde565b610b0e90600a611ea3565b610b189190611e84565b610b276002600160601b611e44565b61042160028a611e44565b90505b888a10610bb257610b68670de0b6b3a764000080610b538c8e611cde565b610b5e90600a611ea3565b6104219087611e84565b9150610baf670de0b6b3a7640000610b856002600160601b611e44565b610b8f8c8e611cde565b610b9a90600a611ea3565b610ba560028b611e44565b6104219190611e84565b90505b909f909e509c50505050505050505050505050565b610bcf611528565b6000610bd9610eba565b600084815260028281016020908152604092839020835160c08101855281546001600160a01b039081168252600183015493820193909352818401546001600160801b03168186015260038201549092166060830152835180850194859052949550909390926080850192600485019182845b815481526020019060010190808311610c4c5750505091835250506040805180820191829052602090920191906006840190600290826000855b825461010083900a900460020b8152602060058301819004938401936001036003909301929092029101808411610c86579050505050505081525050915050919050565b60008060008315610d7a57610cfa86600081518110610ceb57610ceb611eab565b60200260200101518a8a6112a7565b604051638bfe562d60e01b81526001600160a01b038a1690638bfe562d90610d2e908a908a9033906103e890600401611f2e565b60408051808303816000875af1158015610d4c573d6000803e3d6000fd5b505050506040513d601f19601f82011682018060405250810190610d709190611f7e565b9093509150610e41565b610da086600081518110610d9057610d90611eab565b602002602001015133308a6113a5565b610dc586600081518110610db657610db6611eab565b60200260200101518a896112a7565b60405163074903a760e11b81526001600160a01b038a1690630e92074e90610df9908a908a9033906103e890600401611f2e565b60408051808303816000875af1158015610e17573d6000803e3d6000fd5b505050506040513d601f19601f82011682018060405250810190610e3b9190611f7e565b90935091505b846001600160a01b0316633850c7bd6040518163ffffffff1660e01b815260040160e060405180830381865afa158015610e7f573d6000803e3d6000fd5b505050506040513d601f19601f82011682018060405250810190610ea39190611ffa565b50979e969d50929b50949950505050505050505050565b7f76e009e8795104f2b1c213a72f3a2f55e5e2c18e90e0fd46976243364cfa330890565b600080806000198587098587029250828110838203039150508060001415610f185760008411610f0d57600080fd5b508290049050610f8b565b808411610f2457600080fd5b6000848688096000868103871696879004966002600389028118808a02820302808a02820302808a02820302808a02820302808a02820302808a02909103029181900381900460010186841190950394909402919094039290920491909117919091029150505b9392505050565b60008060008360020b12610fa9578260020b610fb1565b8260020b6000035b9050620d89e8811115610fd7576040516315e4079d60e11b815260040160405180910390fd5b600060018216610feb57600160801b610ffd565b6ffffcb933bd6fad37aa2d162d1a5940015b6001600160881b031690506002821615611027576ffff97272373d413259a46990580e213a0260801c5b6004821615611046576ffff2e50f5f656932ef12357cf3c7fdcc0260801c5b6008821615611065576fffe5caca7e10e4e61c3624eaa0941cd00260801c5b6010821615611084576fffcb9843d60f6159c9db58835c9266440260801c5b60208216156110a3576fff973b41fa98c081472e6896dfb254c00260801c5b60408216156110c2576fff2ea16466c96a3843ec78b326b528610260801c5b60808216156110e1576ffe5dee046a99a2a811c461f1969c30530260801c5b610100821615611101576ffcbe86c7900a88aedcffc83b479aa3a40260801c5b610200821615611121576ff987a7253ac413176f2b074cf7815e540260801c5b610400821615611141576ff3392b0822b70005940c7a398e4b70f30260801c5b610800821615611161576fe7159475a2c29b7443b29c7fa6e889d90260801c5b611000821615611181576fd097f3bdfd2022b8845ad8f792aa58250260801c5b6120008216156111a1576fa9f746462d870fdf8a65dc1f90e061e50260801c5b6140008216156111c1576f70d869a156d2a1b890bb3df62baf32f70260801c5b6180008216156111e1576f31be135f97d08fd981231505542fcfa60260801c5b62010000821615611202576f09aa508b5b7a84e1c677de54f3e99bc90260801c5b62020000821615611222576e5d6af8dedb81196699c329225ee6040260801c5b62040000821615611241576d2216e584f5fa1ea926041bedfe980260801c5b6208000082161561125e576b048a170391f7dc42444e8fa20260801c5b60008460020b131561127f57806000198161127b5761127b611e5a565b0490505b600160201b810615611292576001611295565b60005b60ff16602082901c0192505050919050565b600080846001600160a01b031663a9059cbb60e01b85856040516024016112cf929190612099565b60408051601f198184030181529181526020820180516001600160e01b03166001600160e01b031990941693909317909252905161130d91906120c9565b6000604051808303816000865af19150503d806000811461134a576040519150601f19603f3d011682016040523d82523d6000602084013e61134f565b606091505b509150915081801561137957508051158061137957508080602001905181019061137991906120d5565b61139e5760405162461bcd60e51b815260040161139590612112565b60405180910390fd5b5050505050565b600080856001600160a01b03166323b872dd60e01b8686866040516024016113cf93929190612122565b60408051601f198184030181529181526020820180516001600160e01b03166001600160e01b031990941693909317909252905161140d91906120c9565b6000604051808303816000865af19150503d806000811461144a576040519150601f19603f3d011682016040523d82523d6000602084013e61144f565b606091505b509150915081801561147957508051158061147957508080602001905181019061147991906120d5565b6114955760405162461bcd60e51b815260040161139590612164565b505050505050565b60405180610120016040528060006001600160a01b03168152602001600081526020016000815260200160006001600160a01b0316815260200160006001600160a01b0316815260200160008152602001611514604051806060016040528060608152602001600015158152602001600081525090565b815260200160008152602001600081525090565b6040518060c0016040528060006001600160a01b031681526020016000815260200160006001600160801b0316815260200160006001600160a01b03168152602001611572611584565b815260200161157f611584565b905290565b60405180604001604052806002906020820280368337509192915050565b805b81146115af57600080fd5b50565b8035610137816115a2565b6000602082840312156115d2576115d2600080fd5b60006115de84846115b2565b949350505050565b6001600160a01b031690565b6000610137826115e6565b611606816115f2565b82525050565b80611606565b60005b8381101561162d578181015183820152602001611615565b8381111561163c576000848401525b50505050565b601f01601f191690565b6000611656825190565b80845260208401935061166d818560208601611612565b61167681611642565b9093019392505050565b801515611606565b80516060808452600091908401906116a0828261164c565b91505060208301516116b56020860182611680565b5060408301516116c8604086018261160c565b509392505050565b80516000906101208401906116e585826115fd565b5060208301516116f8602086018261160c565b50604083015161170b604086018261160c565b50606083015161171e60608601826115fd565b50608083015161173160808601826115fd565b5060a083015161174460a086018261160c565b5060c083015184820360c086015261175c8282611688565b91505060e083015161177160e086018261160c565b506101008301516116c861010086018261160c565b60208082528101610f8b81846116d0565b6115a48160020b90565b803561013781611797565b6115a4816115f2565b8035610137816117ac565b600080600080600060a086880312156117db576117db600080fd5b60006117e788886117a1565b95505060206117f8888289016117a1565b9450506040611809888289016117a1565b935050606061181a888289016115b2565b925050608061182b888289016117b5565b9150509295509295909350565b60408101611846828561160c565b610f8b602083018461160c565b60008060008060008060c0878903121561186f5761186f600080fd5b600061187b89896117a1565b965050602061188c89828a016117a1565b955050604061189d89828a016117a1565b94505060606118ae89828a016115b2565b93505060806118bf89828a016117b5565b92505060a06118d089828a016117b5565b9150509295509295509295565b60208101610137828461160c565b6000806000806080858703121561190457611904600080fd5b600061191087876117a1565b9450506020611921878288016117a1565b9350506040611932878288016117a1565b9250506060611943878288016117b5565b91505092959194509250565b611606816115e6565b6001600160801b038116611606565b6000611973838361160c565b505060200190565b6002818060005b838110156114955781516119968782611967565b965060208301925050600101611982565b6116068160020b90565b600061197383836119a7565b6002818060005b838110156114955781516119d887826119b1565b9650602083019250506001016119c4565b80516101008301906119fb848261194f565b506020820151611a0e602085018261160c565b506040820151611a216040850182611958565b506060820151611a3460608501826115fd565b506080820151611a47608085018261197b565b5060a082015161163c60c08501826119bd565b610100810161013782846119e9565b634e487b7160e01b600052604160045260246000fd5b611a8882611642565b81018181106001600160401b0382111715611aa557611aa5611a69565b6040525050565b6000611ab760405190565b9050611ac38282611a7f565b919050565b60006001600160401b03821115611ae157611ae1611a69565b5060209081020190565b6000611afe611af984611ac8565b611aac565b83815290506020808201908402830185811115611b1d57611b1d600080fd5b835b81811015611b415780611b3288826117b5565b84525060209283019201611b1f565b5050509392505050565b600082601f830112611b5f57611b5f600080fd5b81356115de848260208601611aeb565b8015156115a4565b803561013781611b6f565b60008060008060008060c08789031215611b9e57611b9e600080fd5b6000611baa89896117b5565b9650506020611bbb89828a016115b2565b9550506040611bcc89828a016115b2565b94505060608701356001600160401b03811115611beb57611beb600080fd5b611bf789828a01611b4b565b9350506080611c0889828a016117b5565b92505060a06118d089828a01611b77565b60608101611c27828661160c565b611c34602083018561160c565b6115de60408301846119a7565b634e487b7160e01b600052602260045260246000fd5b600281046001821680611c6b57607f821691505b60208210811415611c7e57611c7e611c41565b50919050565b8051610137816117ac565b600060208284031215611ca457611ca4600080fd5b60006115de8484611c84565b634e487b7160e01b600052601160045260246000fd5b60008219821115611cd957611cd9611cb0565b500190565b6000825b925082821015611cf457611cf4611cb0565b500390565b60ff81166115a4565b805161013781611cf9565b600060208284031215611d2257611d22600080fd5b60006115de8484611d02565b600060ff8216915060ff8316611ce2565b80825b600185111561018a57808604811115611d5d57611d5d611cb0565b6001851615611d6b57908102905b8002611d778560011c90565b9450611d42565b600082611d8d57506001610f8b565b81611d9a57506000610f8b565b8160018114611db05760028114611dba57611de7565b6001915050610f8b565b60ff841115611dcb57611dcb611cb0565b8360020a915084821115611de157611de1611cb0565b50610f8b565b5060208310610133831016604e8410600b8410161715611e1a575081810a83811115611e1557611e15611cb0565b610f8b565b611e278484846001611d3f565b92509050818404811115611e3d57611e3d611cb0565b0292915050565b600060ff83165b9250610f8b6000198484611d7e565b634e487b7160e01b600052601260045260246000fd5b600082611e7f57611e7f611e5a565b500490565b6000816000190483118215151615611e9e57611e9e611cb0565b500290565b600082611e4b565b634e487b7160e01b600052603260045260246000fd5b600061197383836115fd565b6000611ed7825190565b80845260209384019383018060005b83811015611f0b578151611efa8882611ec1565b975060208301925050600101611ee6565b509495945050505050565b6000610137611f228381565b90565b61160681611f16565b60808101611f3c828761160c565b8181036020830152611f4e8186611ecd565b9050611f5d60408301856115fd565b611f6a6060830184611f25565b95945050505050565b8051610137816115a2565b60008060408385031215611f9457611f94600080fd5b6000611fa08585611f73565b9250506020611fb185828601611f73565b9150509250929050565b6115a4816115e6565b805161013781611fbb565b805161013781611797565b61ffff81166115a4565b805161013781611fda565b805161013781611b6f565b600080600080600080600060e0888a03121561201857612018600080fd5b60006120248a8a611fc4565b97505060206120358a828b01611fcf565b96505060406120468a828b01611fe4565b95505060606120578a828b01611fe4565b94505060806120688a828b01611fe4565b93505060a06120798a828b01611d02565b92505060c061208a8a828b01611fef565b91505092959891949750929550565b6040810161184682856115fd565b60006120b1825190565b6120bf818560208601611612565b9290920192915050565b6000610f8b82846120a7565b6000602082840312156120ea576120ea600080fd5b60006115de8484611fef565b600281526000602082016114d560f21b815291505b5060200190565b60208082528101610137816120f6565b6060810161213082866115fd565b61213d60208301856115fd565b6115de604083018461160c565b600381526000602082016229aa2360e91b8152915061210b565b602080825281016101378161214a56fea26469706673582212206a35b1fca9046eef2f172bf0ad7ce18ade7a02553aa1b222afadd2313d83029164736f6c634300080a0033",
    "linkReferences": {},
    "deployedLinkReferences": {}
}