{
    "_format": "hh-sol-artifact-1",
    "contractName": "LendingFacet",
    "sourceName": "contracts/Facets/LendingFacet.sol",
    "abi": [
        {
            "inputs": [
                {
                    "internalType": "uint256",
                    "name": "_poolID",
                    "type": "uint256"
                },
                {
                    "internalType": "uint256",
                    "name": "amountBorrowed",
                    "type": "uint256"
                },
                {
                    "internalType": "uint256",
                    "name": "total",
                    "type": "uint256"
                }
            ],
            "name": "calculateInterestRate",
            "outputs": [
                {
                    "internalType": "uint256",
                    "name": "",
                    "type": "uint256"
                }
            ],
            "stateMutability": "view",
            "type": "function"
        },
        {
            "inputs": [
                {
                    "internalType": "uint256",
                    "name": "_posID",
                    "type": "uint256"
                },
                {
                    "internalType": "uint256",
                    "name": "_poolID",
                    "type": "uint256"
                },
                {
                    "internalType": "address",
                    "name": "router",
                    "type": "address"
                }
            ],
            "name": "closePositionLender",
            "outputs": [],
            "stateMutability": "nonpayable",
            "type": "function"
        },
        {
            "inputs": [
                {
                    "components": [
                        {
                            "internalType": "address",
                            "name": "lentToken",
                            "type": "address"
                        },
                        {
                            "internalType": "uint256[]",
                            "name": "equation",
                            "type": "uint256[]"
                        },
                        {
                            "internalType": "uint256[]",
                            "name": "bounds",
                            "type": "uint256[]"
                        },
                        {
                            "internalType": "int256[]",
                            "name": "modifiers",
                            "type": "int256[]"
                        },
                        {
                            "internalType": "uint256",
                            "name": "minLeverage",
                            "type": "uint256"
                        },
                        {
                            "internalType": "uint256",
                            "name": "maxLeverage",
                            "type": "uint256"
                        },
                        {
                            "internalType": "uint256",
                            "name": "ltvRate",
                            "type": "uint256"
                        },
                        {
                            "internalType": "uint256",
                            "name": "swapFee",
                            "type": "uint256"
                        },
                        {
                            "internalType": "uint256",
                            "name": "interestRate",
                            "type": "uint256"
                        },
                        {
                            "internalType": "uint256",
                            "name": "amountStaked",
                            "type": "uint256"
                        }
                    ],
                    "internalType": "struct ILendingInformation.poolStartInformation",
                    "name": "poolInfo",
                    "type": "tuple"
                },
                {
                    "components": [
                        {
                            "internalType": "bytes",
                            "name": "val",
                            "type": "bytes"
                        },
                        {
                            "internalType": "bool",
                            "name": "neg",
                            "type": "bool"
                        },
                        {
                            "internalType": "uint256",
                            "name": "bitlen",
                            "type": "uint256"
                        }
                    ],
                    "internalType": "struct BigNumber",
                    "name": "tokenPrimeProduct",
                    "type": "tuple"
                },
                {
                    "components": [
                        {
                            "internalType": "bytes",
                            "name": "val",
                            "type": "bytes"
                        },
                        {
                            "internalType": "bool",
                            "name": "neg",
                            "type": "bool"
                        },
                        {
                            "internalType": "uint256",
                            "name": "bitlen",
                            "type": "uint256"
                        }
                    ],
                    "internalType": "struct BigNumber",
                    "name": "routePrimeProduct",
                    "type": "tuple"
                }
            ],
            "name": "createPool",
            "outputs": [],
            "stateMutability": "nonpayable",
            "type": "function"
        },
        {
            "inputs": [
                {
                    "internalType": "uint256",
                    "name": "_posID",
                    "type": "uint256"
                }
            ],
            "name": "getInterestFee",
            "outputs": [
                {
                    "internalType": "uint256",
                    "name": "",
                    "type": "uint256"
                }
            ],
            "stateMutability": "view",
            "type": "function"
        },
        {
            "inputs": [
                {
                    "internalType": "uint256",
                    "name": "poolID",
                    "type": "uint256"
                }
            ],
            "name": "getNumbers",
            "outputs": [
                {
                    "internalType": "uint256",
                    "name": "",
                    "type": "uint256"
                },
                {
                    "internalType": "uint256",
                    "name": "",
                    "type": "uint256"
                }
            ],
            "stateMutability": "view",
            "type": "function"
        },
        {
            "inputs": [],
            "name": "getPoolID",
            "outputs": [
                {
                    "internalType": "uint256",
                    "name": "",
                    "type": "uint256"
                }
            ],
            "stateMutability": "view",
            "type": "function"
        },
        {
            "inputs": [
                {
                    "internalType": "uint256",
                    "name": "_poolID",
                    "type": "uint256"
                }
            ],
            "name": "getPoolInfo",
            "outputs": [
                {
                    "components": [
                        {
                            "internalType": "uint256",
                            "name": "poolID",
                            "type": "uint256"
                        },
                        {
                            "internalType": "address",
                            "name": "tokenLent",
                            "type": "address"
                        },
                        {
                            "internalType": "address",
                            "name": "lenderAddress",
                            "type": "address"
                        },
                        {
                            "internalType": "uint256",
                            "name": "swapFee",
                            "type": "uint256"
                        },
                        {
                            "internalType": "uint256",
                            "name": "interestRate",
                            "type": "uint256"
                        },
                        {
                            "internalType": "uint256",
                            "name": "totalStaked",
                            "type": "uint256"
                        },
                        {
                            "internalType": "uint256",
                            "name": "totalAvailable",
                            "type": "uint256"
                        }
                    ],
                    "internalType": "struct ILendingInformation.tokenPool",
                    "name": "",
                    "type": "tuple"
                }
            ],
            "stateMutability": "view",
            "type": "function"
        },
        {
            "inputs": [
                {
                    "internalType": "uint256",
                    "name": "_poolID",
                    "type": "uint256"
                }
            ],
            "name": "getPoolRules",
            "outputs": [
                {
                    "components": [
                        {
                            "internalType": "uint256[]",
                            "name": "chosenEquations",
                            "type": "uint256[]"
                        },
                        {
                            "internalType": "uint256[]",
                            "name": "chosenBounds",
                            "type": "uint256[]"
                        },
                        {
                            "internalType": "int256[]",
                            "name": "chosenModifiers",
                            "type": "int256[]"
                        },
                        {
                            "internalType": "uint256",
                            "name": "maxLeverage",
                            "type": "uint256"
                        },
                        {
                            "internalType": "uint256",
                            "name": "minLeverage",
                            "type": "uint256"
                        },
                        {
                            "internalType": "uint256",
                            "name": "maxLtv",
                            "type": "uint256"
                        },
                        {
                            "components": [
                                {
                                    "internalType": "bytes",
                                    "name": "val",
                                    "type": "bytes"
                                },
                                {
                                    "internalType": "bool",
                                    "name": "neg",
                                    "type": "bool"
                                },
                                {
                                    "internalType": "uint256",
                                    "name": "bitlen",
                                    "type": "uint256"
                                }
                            ],
                            "internalType": "struct BigNumber",
                            "name": "lenderTokenPrimeProduct",
                            "type": "tuple"
                        },
                        {
                            "components": [
                                {
                                    "internalType": "bytes",
                                    "name": "val",
                                    "type": "bytes"
                                },
                                {
                                    "internalType": "bool",
                                    "name": "neg",
                                    "type": "bool"
                                },
                                {
                                    "internalType": "uint256",
                                    "name": "bitlen",
                                    "type": "uint256"
                                }
                            ],
                            "internalType": "struct BigNumber",
                            "name": "lenderRoutePrimeProduct",
                            "type": "tuple"
                        }
                    ],
                    "internalType": "struct ILendingInformation.lendingRules",
                    "name": "",
                    "type": "tuple"
                }
            ],
            "stateMutability": "view",
            "type": "function"
        },
        {
            "inputs": [
                {
                    "internalType": "address",
                    "name": "user",
                    "type": "address"
                }
            ],
            "name": "getUserPools",
            "outputs": [
                {
                    "internalType": "uint256[]",
                    "name": "",
                    "type": "uint256[]"
                },
                {
                    "internalType": "uint256",
                    "name": "length",
                    "type": "uint256"
                }
            ],
            "stateMutability": "view",
            "type": "function"
        }
    ],
    "bytecode": "0x608060405234801561001057600080fd5b50615fc180620000216000396000f3fe608060405234801561001057600080fd5b50600436106100835760003560e01c8063108a5fdd146100885780632f380b351461009d5780633fe9aa7a146100c65780634a7b26ae146100e65780634dbddc18146101075780639816af581461011c578063b06d02951461013d578063bca75a9c14610150578063fe4bab4314610163575b600080fd5b61009b610096366004615134565b610176565b005b6100b06100ab366004615184565b610186565b6040516100bd9190615246565b60405180910390f35b6100d96100d4366004615184565b61019d565b6040516100bd9190615473565b6100f96100f4366004615184565b6101ae565b6040516100bd929190615484565b61010f6101c3565b6040516100bd919061549f565b61012f61012a3660046154ad565b6101d2565b6040516100bd929190615512565b61010f61014b366004615184565b6101df565b61009b61015e366004615908565b6101ea565b61010f61017136600461599b565b6101f5565b61018183838361020c565b505050565b61018e614f5f565b61019782610308565b92915050565b6101a5614fae565b6101978261038c565b6000806101ba83610674565b91509150915091565b60006101cd6106b6565b905090565b606060006101ba836106c8565b600061019782610769565b610181838383610796565b6000610202848484610a88565b90505b9392505050565b6000610216610bce565b90506000610222610bf2565b600086815260018201602052909150604081206009015461024390426159f7565b905062278d008110156102715760405162461bcd60e51b815260040161026890615a2f565b60405180910390fd5b61027e62278d0082615a55565b9050806202a300116102a25760405162461bcd60e51b815260040161026890615a82565b60008581526001840160205260409020600201546001600160a01b031633146102ca57600080fd5b6000868152600784016020526040812060008781526020919091526040902054116102f457600080fd5b6102fe8685610c16565b5050505050505050565b610310614f5f565b600061031a610bce565b6000848152600182016020529091506040902060405160e0810160409081528254825260018301546001600160a01b039081166020840152600284015416908201526003820154606082015260048201546080820152600582015460a082015260069091015460c08201529392505050565b610394614fae565b600061039e610bce565b60008481526002820160205290915060409020604051806101000160405290816000820180548060200260200160405190810160405280929190818152602001828054801561040c57602002820191906000526020600020905b8154815260200190600101908083116103f8575b505050505081526020016001820180548060200260200160405190810160405280929190818152602001828054801561046457602002820191906000526020600020905b815481526020019060010190808311610450575b50505050508152602001600282018054806020026020016040519081016040528092919081815260200182805480156104bc57602002820191906000526020600020905b8154815260200190600101908083116104a8575b505050505081526020016003820154815260200160048201548152602001600582015481526020016006820160405180606001604052908160008201805461050390615aa8565b80601f016020809104026020016040519081016040528092919081815260200182805461052f90615aa8565b801561057c5780601f106105515761010080835404028352916020019161057c565b820191906000526020600020905b81548152906001019060200180831161055f57829003601f168201915b505050505081526020016001820160009054906101000a900460ff161515151581526020016002820154815250508152602001600982016040518060600160405290816000820180546105ce90615aa8565b80601f01602080910402602001604051908101604052809291908181526020018280546105fa90615aa8565b80156106475780601f1061061c57610100808354040283529160200191610647565b820191906000526020600020905b81548152906001019060200180831161062a57829003601f168201915b5050509183525050600182015460ff16151560208201526002909101546040909101529052509392505050565b6000806000610681610bce565b600085815260018201602052909150604090206005015460008581526001830160205260409020600601549250925050915091565b6000806106c1610bce565b5492915050565b60606000806106d5610bce565b6001600160a01b038516600090815260068201602052909150604090206001600160a01b03851660009081526006830160205260409020548154829060208082020160405190810160405280929190818152602001828054801561075857602002820191906000526020600020905b815481526020019060010190808311610744575b505050505091509250925050915091565b600080610774610bce565b6000848152600a82016020529091506103e89060409020546102059190615acf565b60006107a0610bce565b90506107b484513330876101200151611240565b83610120015160058201600086516001600160a01b03166001600160a01b03168152602001908152602001600020546107ed9190615ae3565b60058201600086516001600160a01b03166001600160a01b031681526020019081526020016000205560405160e08101604052815481526020810185516001600160a01b0316815233602082015260400160e086015181526020018561010001518152602001856101200151815260200185610120015190528154600090815260018301602052604090208151815560208201516001820180546001600160a01b0319166001600160a01b039290921691909117905560408201516002820180546001600160a01b0319166001600160a01b0392909216919091179055606082015181600301556080820151816004015560a0820151816005015560c082015160069091015550604051806101000160405280856020015181526020018560400151815260200185606001518152602001856080015181526020018560a0015181526020018560c0015181526020808201869052604091820185905283546000908152600285019091522081518190805161096c929160200190614ffe565b50602082015181600101908051610987929160200190614ffe565b506040820151816002019080516109a2929160200190614ffe565b50606082015181600301556080820151816004015560a0820151816005015560c0820151600682018151819080516109de929160200190615049565b50602082015160018201805460ff191691151591909117905560408201518160020155505060e082015160098201815181908051610a20929160200190615049565b50602082015160018201805460ff19169115159190911790556040820151600290910155505033600090815260068301602052604091502081548154600181018355600092835290916020902001558054816000610a7d83615afb565b919050555050505050565b600080610a93610bce565b600086815260028201602052909150610bc590604090208054602080820201604051908101604052809291908181526020018280548015610af357602002820191906000526020600020905b815481526020019060010190808311610adf575b50505060008981526002860160205260409250905020600101805480602002602001604051908101604052809291908181526020018280548015610b5657602002820191906000526020600020905b815481526020019060010190808311610b42575b50505060008a81526002870160205260409250905020600201805480602002602001604051908101604052809291908181526020018280548015610bb957602002820191906000526020600020905b815481526020019060010190808311610ba5575b50505050508787611334565b95945050505050565b7f714a1b8e4c0797f01e154a76911cbb626f31923ab43ed93cfb1c05e6a71f21d690565b7f76e009e8795104f2b1c213a72f3a2f55e5e2c18e90e0fd46976243364cfa330890565b6000806000610c23610bf2565b90507f52f7d98127612bd1a0f74cc01ca58666e54e5fe9aa4906fedcde37dd9bc920096000610c518761147d565b6000888152600484016020526040902060008981526001860160205260408120600301546001600160a01b031681526020810191909152604001600020546000898152600186016020526040902060020154610cad91906159f7565b610cb79190615ae3565b9050610cc28761147d565b6000888152600484016020526040902060008981526001860160205260408120600301546001600160a01b031681526020810191909152604001600020541015610d4e57610d0f8761147d565b6000888152600484016020526040902060008981526001860160205260408120600301546001600160a01b031681526020810191909152604001600020555b610d5887876114e7565b9095509350610d6687611a3a565b6001600160a01b0316836001016000898152602001908152602001600020600301546001600160a01b031614156110095784811115610f3a5760006002604051908082528060200260200182016040528015610dcc578160200160208202803683370190505b509050610dd888611abc565b81600081518110610deb57610deb615b16565b6001600160a01b0390921660209283029190910182015260008981526001860190915260409020600301546001600160a01b031681600181518110610e3257610e32615b16565b60200260200101906001600160a01b031690816001600160a01b031681525050610e65610e5e89611abc565b8887611b1b565b6000806001600160a01b038916638bfe562d610e818a876159f7565b85306103e86040518563ffffffff1660e01b8152600401610ea59493929190615b94565b60408051808303816000875af1158015610ec3573d6000803e3d6000fd5b50505050604051601f3d908101601f19168201604052610ee69190810190615bdf565b9150915060009750818711610efa57600080fd5b610f0482886159f7565b9650610f32610f128b611abc565b60008c81526001890160205260409020546001600160a01b031689611b1b565b505050610f9e565b610f4481866159f7565b9450610f72610f5288611a3a565b60008981526001860160205260409020546001600160a01b031687611b1b565b610f9e610f7e88611abc565b60008981526001860160205260409020546001600160a01b031686611b1b565b60008781526001840160205260409020600201546000888152600384016020526040902060008981526001860160205260408120600301546001600160a01b0316815260208101919091526040016000206000828254610ffe9190615ae3565b909155506112369050565b838111156111ac576000600260405190808252806020026020018201604052801561103e578160200160208202803683370190505b50905061104a88611a3a565b8160008151811061105d5761105d615b16565b6001600160a01b0390921660209283029190910182015260008981526001860190915260409020600301546001600160a01b0316816001815181106110a4576110a4615b16565b60200260200101906001600160a01b031690816001600160a01b0316815250506110d76110d089611a3a565b8888611b1b565b6000806001600160a01b038916638bfe562d6110f389876159f7565b85306103e86040518563ffffffff1660e01b81526004016111179493929190615b94565b60408051808303816000875af1158015611135573d6000803e3d6000fd5b50505050604051601f3d908101601f191682016040526111589190810190615bdf565b915091506000965081881161116c57600080fd5b61117682896159f7565b97506111a46111848b611a3a565b60008c81526001890160205260409020546001600160a01b03168a611b1b565b5050506111d0565b6111b681856159f7565b93506111c4610f7e88611abc565b6111d0610f5288611a3a565b60008781526001840160205260409020600201546000888152600384016020526040902060008981526001860160205260408120600301546001600160a01b03168152602081019190915260400160002060008282546112309190615ae3565b90915550505b5050509250929050565b6000806001600160a01b0386166323b872dd60e01b86868660405160240161126a93929190615c1c565b604051602081830303815290604052906001600160e01b0319166020820180516001600160e01b031690911790526040516112a59190615c6c565b6000604051808303816000865af19150503d80600081146112e2576040513d603f01601f191681016040523d815291503d6000602084013e6112e7565b606091505b509150915081801561131057508051158061131057506020810181518101906113109190615c87565b61132c5760405162461bcd60e51b815260040161026890615cc2565b505050505050565b60007f89619114af212bbea6cb599157f288bdae8e2afea390d6b06be57493cbc191da81805b87518110156113bc5760006064868a848151811061137a5761137a615b16565b602002602001015161138c9190615cd2565b6113969190615acf565b9050808710156113a957819250506113bc565b50806113b481615afb565b91505061135a565b5060008260010160008a84815181106113d7576113d7615b16565b6020026020010151815260200190815260200160002090506114046113fc8288611c0c565b600187611c1a565b935086828151811061141857611418615b16565b60200260200101511561144b576114488488848151811061143b5761143b615b16565b6020026020010151611ccd565b93505b6114716040516040808201905260068152651c995cdd5b1d60d21b602082015285611cfe565b50505095945050505050565b600080611488610bf2565b90506000611494610bce565b6000858152600184016020529091506040812060050154905060006114b982426159f7565b6000878152600a85016020529091506114dd90604090205482640757b12c00611c1a565b9695505050505050565b60008060006114f4610bf2565b60058101549091506001600160a01b031661150f8587611d4b565b61152b5760405162461bcd60e51b815260040161026890615d1a565b6000868152600283016020526040812060405160c08101604090815282546001600160a01b039081168352600184015460208401526002808501546001600160801b03168385015260038501549091166060840152919291608084019160048401919080519081016040529190828260026020028201915b8154815260200190600101908083116115a3575050509183525050602001600682016002604080519081016040908152909291908301826000855b825461010083900a900460020b81526020600583018190049384019360010360039093019290920291018084116115de579050505050505081525050905061162587611a3a565b6001600160a01b03166370a08231306040518263ffffffff1660e01b81526004016116509190615d2a565b602060405180830381865afa15801561166d573d6000803e3d6000fd5b50505050604051601f3d908101601f191682016040526116909190810190615d38565b945061169b87611abc565b6001600160a01b03166370a08231306040518263ffffffff1660e01b81526004016116c69190615d2a565b602060405180830381865afa1580156116e3573d6000803e3d6000fd5b50505050604051601f3d908101601f191682016040526117069190810190615d38565b935060006040518060a001604052808360200151815260200183604001516001600160801b03168152600060208201819052604082015260600161174c426103e8615ae3565b905290506001600160a01b038316630c49ccbe826040518263ffffffff1660e01b815260040161177c9190615dc4565b60408051808303816000875af115801561179a573d6000803e3d6000fd5b50505050604051601f3d908101601f191682016040526117bd9190810190615bdf565b50506117fa6040518060a001604052806000815260200160006001600160801b031681526020016000815260200160008152602001600081525090565b905060006040518060800160405280846020015181523060208201526001600160801b0360408083018290526060909201529091506001600160a01b0385169063fc6f7865908390518263ffffffff1660e01b815260040161185c9190615e1b565b60408051808303816000875af115801561187a573d6000803e3d6000fd5b50505050604051601f3d908101601f1916820160405261189d9190810190615bdf565b50506118c8604051608081016040908152600080835260208301819052908201819052606082015290565b9050866118d48a611a3a565b6001600160a01b03166370a08231306040518263ffffffff1660e01b81526004016118ff9190615d2a565b602060405180830381865afa15801561191c573d6000803e3d6000fd5b50505050604051601f3d908101601f1916820160405261193f9190810190615d38565b61194991906159f7565b9650856119558a611abc565b6001600160a01b03166370a08231306040518263ffffffff1660e01b81526004016119809190615d2a565b602060405180830381865afa15801561199d573d6000803e3d6000fd5b50505050604051601f3d908101601f191682016040526119c09190810190615d38565b6119ca91906159f7565b9550836001600160a01b03166342966c6884602001516040518263ffffffff1660e01b81526004016119fc919061549f565b600060405180830381600087803b158015611a1657600080fd5b505af1158015611a2a573d6000803e3d6000fd5b5050505050505050509250929050565b600080611a45610bf2565b60008481526002820160205290915060409020600301546001600160a01b0316630dfe16816040518163ffffffff1660e01b8152600401602060405180830381865afa158015611a99573d6000803e3d6000fd5b50505050604051601f3d908101601f191682016040526102059190810190615e38565b600080611ac7610bf2565b60008481526002820160205290915060409020600301546001600160a01b031663d21220a76040518163ffffffff1660e01b8152600401602060405180830381865afa158015611a99573d6000803e3d6000fd5b6000806001600160a01b03851663a9059cbb60e01b8585604051602401611b43929190615e59565b604051602081830303815290604052906001600160e01b0319166020820180516001600160e01b03169091179052604051611b7e9190615c6c565b6000604051808303816000865af19150503d8060008114611bbb576040513d603f01601f191681016040523d815291503d6000602084013e611bc0565b606091505b5091509150818015611be9575080511580611be95750602081018151810190611be99190615c87565b611c055760405162461bcd60e51b815260040161026890615e80565b5050505050565b600061020583600084611f24565b600080806000198587098587029250828110838203039150508060001415611c545760008411611c4957600080fd5b508290049050610205565b808411611c6057600080fd5b6000848688096000868103871696879004966002600389028118808a02820302808a02820302808a02820302808a02820302808a02820302808a02909103029181900381900460010186841190950394909402919094039290920491909117919091029150509392505050565b600080821215611cf457611ce382600019615e90565b611ced9084615acf565b9050610197565b6102058284615cd2565b611d478282604051602401611d14929190615f18565b604051601f19818303018152604091909152632d839cb360e21b6020820180516001600160e01b031690911790526122c3565b5050565b60007f0d43da364a0638960305dfe50a31885563d74a8f7db015249711452bd02d5f7f81611d77610bf2565b6001600160a01b03861660009081526005840160205290915060408120604051806060016040529081600082018054611daf90615aa8565b80601f0160208091040260200160405190810160405280929190818152602001828054611ddb90615aa8565b8015611e285780601f10611dfd57610100808354040283529160200191611e28565b820191906000526020600020905b815481529060010190602001808311611e0b57829003601f168201915b505050918352505060018281015460ff16151560208084019190915260029093015460409283015260008981529086019092529192506114dd919020600601604051806060016040529081600082018054611e8290615aa8565b80601f0160208091040260200160405190810160405280929190818152602001828054611eae90615aa8565b8015611efb5780601f10611ed057610100808354040283529160200191611efb565b820191906000526020600020905b815481529060010190602001808311611ede57829003601f168201915b5050509183525050600182015460ff1615156020820152600290910154604090910152826122e8565b600080848460ff1681548110611f3c57611f3c615b16565b906000526020600020600290910201805490915060ff1680611f645750600101549050610205565b60ff811660011415611f7a578392505050610205565b60ff811660021415611ff3578154600090611f9f908890610100900460ff1687611f24565b90506000611fb96002611fb38460016122fd565b9061231b565b9050815b80821015611fe7575080611fe06002611fb383611fda878261231b565b906122fd565b9150611fbd565b94506102059350505050565b600460ff82161080159061200b5750600960ff821611155b15612118578154600090612029908890610100900460ff1687611f24565b835490915060009061204690899062010000900460ff1688611f24565b905060ff8316600414156120695761205e82826122fd565b945050505050610205565b60ff83166005141561207f5761205e8282612327565b60ff8316600614156120955761205e8282612343565b60ff8316600714156120ab5761205e828261231b565b60ff8316600814156120ef5780600160005b828110156120e1576120cf8286612343565b91506120da81615afb565b90506120bd565b509550610205945050505050565b60ff8316600914156121115761205e670de0b6b3a7640000611fb38484612343565b5050600080fd5b60ff81166012141561218457815460009061213d908890610100900460ff1687612376565b9050801561216657825461215c90889062010000900460ff1687611f24565b9350505050610205565b825461215c9088906301000000900460ff1687611f24565b50600080fd5b60ff8116601314156121fd5781546000906121a9908890610100900460ff1687611f24565b83549091506000906121c690899062010000900460ff1688611f24565b84549091506000906121e4908a906301000000900460ff1689611f24565b90506121f18383836125ae565b95505050505050610205565b60ff811660141415610083578154600090612222908890610100900460ff1687611f24565b835490915060009061223f90899062010000900460ff1688611f24565b845490915060009061225d908a906301000000900460ff1689611f24565b855490915060009061227b908b90600160201b900460ff168a611f24565b9050600160201b811061228d57600080fd5b60008061229f858585620f4240612629565b909250905060ff81166122b28388612343565b901c98505050505050505050610205565b6000815190506a636f6e736f6c652e6c6f67602083016000808483855afa5050505050565b60006102056122f78484612723565b5161273d565b60006123098284615ae3565b90508281101561019757610197615f29565b60006102058284615acf565b60008282111561233957612339615f29565b61020582846159f7565b60008261235257506000610197565b61235c8284615cd2565b9050816123698483615acf565b1461019757610197615f29565b600080848460ff168154811061238e5761238e615b16565b906000526020600020600290910201805490915060ff1660038114156123ce5781546123c4908790610100900460ff1686612376565b1592505050610205565b600a60ff8216108015906123e65750600f60ff821611155b156124b0578154600090612404908890610100900460ff1687611f24565b835490915060009061242190899062010000900460ff1688611f24565b905060ff8316600a141561243a57149250610205915050565b60ff8316600b14156124525714159250610205915050565b60ff8316600c141561246957119250610205915050565b60ff8316600d141561248057109250610205915050565b60ff8316600e14156124985710159250610205915050565b60ff8316600f14156121115711159250610205915050565b601060ff8216108015906124c85750601160ff821611155b156125525781546000906124e6908890610100900460ff1687612376565b905060ff82166010141561251d57801561251157825461215c90889062010000900460ff1687612376565b60009350505050610205565b60ff82166011141561217e57801561253b5760019350505050610205565b825461215c90889062010000900460ff1687612376565b60ff811660121415610083578154600090612577908890610100900460ff1687612376565b9050801561259657825461215c90889062010000900460ff1687612376565b825461215c9088906301000000900460ff1687612376565b6000818310156125bd57600080fd5b600080836125cf6001607f1b87615cd2565b6125d99190615acf565b905070015bf0a8b1457695355fb8ac404e7a79e3811015612604576125fd81612786565b9150612610565b61260d81612cf5565b91505b6001607f1b61261f8784615cd2565b6114dd9190615acf565b600080600160811b861061263c57600080fd5b8486101561264957600080fd5b6000808661265b6001607f1b8a615cd2565b6126659190615acf565b905070015bf0a8b1457695355fb8ac404e7a79e38110156126905761268981612786565b915061269c565b61269981612cf5565b91505b60008563ffffffff168763ffffffff16846126b79190615cd2565b6126c19190615acf565b9050600160831b8110156126e6576126d881612de3565b607f9450945050505061271a565b60006126f18261340e565b905061270d61270182607f615f3f565b60ff1683901c82613f59565b9550935061271a92505050565b94509492505050565b61272b6150bc565b610205836127376145b2565b846145f4565b60008060208301815b845181101561277b5781519250821561276457506000949350505050565b6020918201916127749082615ae3565b9050612746565b506001949350505050565b6000808080806fd3094c70f034de4b96ff7d5b6f99fcd886106127df576127b16001607e1b85615ae3565b93506fd3094c70f034de4b96ff7d5b6f99fcd86127d26001607f1b88615cd2565b6127dc9190615acf565b95505b6fa45af1e1f40c333b3de1db4dd55f29a78610612832576128046001607d1b85615ae3565b93506fa45af1e1f40c333b3de1db4dd55f29a76128256001607f1b88615cd2565b61282f9190615acf565b95505b6f910b022db7ae67ce76b441c27035c6a18610612885576128576001607c1b85615ae3565b93506f910b022db7ae67ce76b441c27035c6a16128786001607f1b88615cd2565b6128829190615acf565b95505b6f88415abbe9a76bead8d00cf112e4d4a886106128d8576128aa6001607b1b85615ae3565b93506f88415abbe9a76bead8d00cf112e4d4a86128cb6001607f1b88615cd2565b6128d59190615acf565b95505b6f84102b00893f64c705e841d5d4064bd3861061292b576128fd6001607a1b85615ae3565b93506f84102b00893f64c705e841d5d4064bd361291e6001607f1b88615cd2565b6129289190615acf565b95505b6f8204055aaef1c8bd5c3259f4822735a2861061297e57612950600160791b85615ae3565b93506f8204055aaef1c8bd5c3259f4822735a26129716001607f1b88615cd2565b61297b9190615acf565b95505b6f810100ab00222d861931c15e39b44e9986106129d1576129a3600160781b85615ae3565b93506f810100ab00222d861931c15e39b44e996129c46001607f1b88615cd2565b6129ce9190615acf565b95505b6f808040155aabbbe9451521693554f7338610612a24576129f6600160771b85615ae3565b93506f808040155aabbbe9451521693554f733612a176001607f1b88615cd2565b612a219190615acf565b95505b612a326001607f1b876159f7565b92508291506001607f1b612a468380615cd2565b612a509190615acf565b9050600160801b612a6184826159f7565b612a6b9084615cd2565b612a759190615acf565b612a7f9085615ae3565b93506001607f1b612a908284615cd2565b612a9a9190615acf565b9150600160811b612abb846faaaaaaaaaaaaaaaaaaaaaaaaaaaaaaaa6159f7565b612ac59084615cd2565b612acf9190615acf565b612ad99085615ae3565b93506001607f1b612aea8284615cd2565b612af49190615acf565b9150600360801b612b15846f999999999999999999999999999999996159f7565b612b1f9084615cd2565b612b299190615acf565b612b339085615ae3565b93506001607f1b612b448284615cd2565b612b4e9190615acf565b9150600160821b612b6f846f924924924924924924924924924924926159f7565b612b799084615cd2565b612b839190615acf565b612b8d9085615ae3565b93506001607f1b612b9e8284615cd2565b612ba89190615acf565b9150600560801b612bc9846f8e38e38e38e38e38e38e38e38e38e38e6159f7565b612bd39084615cd2565b612bdd9190615acf565b612be79085615ae3565b93506001607f1b612bf88284615cd2565b612c029190615acf565b9150600360811b612c23846f8ba2e8ba2e8ba2e8ba2e8ba2e8ba2e8b6159f7565b612c2d9084615cd2565b612c379190615acf565b612c419085615ae3565b93506001607f1b612c528284615cd2565b612c5c9190615acf565b9150600760801b612c7d846f89d89d89d89d89d89d89d89d89d89d896159f7565b612c879084615cd2565b612c919190615acf565b612c9b9085615ae3565b93506001607f1b612cac8284615cd2565b612cb69190615acf565b9150600160831b612cd7846f888888888888888888888888888888886159f7565b612ce19084615cd2565b612ceb9190615acf565b6114dd9085615ae3565b600080600160801b8310612d39576000612d1b612d166001607f1b86615acf565b6146d0565b60ff811694851c94909150612d35906001607f1b90615cd2565b9150505b6001607f1b831115612dae57607f5b60ff811615612dac576001607f1b612d608580615cd2565b612d6a9190615acf565b9350600160801b8410612d9c57600193841c93612d879082615f3f565b60ff166001901b82612d999190615ae3565b91505b612da581615f50565b9050612d48565b505b6f05b9de1d10bf4103d647b0955897ba80612dd96f03f80fe03f80fe03f80fe03f80fe03f883615cd2565b6102059190615acf565b6000808080612df66001607c1b86615a55565b91508190506001607f1b612e0a8280615cd2565b612e149190615acf565b9050612e28816710e1b3be415a0000615cd2565b612e329084615ae3565b92506001607f1b612e438383615cd2565b612e4d9190615acf565b9050612e61816705a0913f6b1e0000615cd2565b612e6b9084615ae3565b92506001607f1b612e7c8383615cd2565b612e869190615acf565b9050612e9a81670168244fdac78000615cd2565b612ea49084615ae3565b92506001607f1b612eb58383615cd2565b612ebf9190615acf565b9050612ed281664807432bc18000615cd2565b612edc9084615ae3565b92506001607f1b612eed8383615cd2565b612ef79190615acf565b9050612f0a81660c0135dca04000615cd2565b612f149084615ae3565b92506001607f1b612f258383615cd2565b612f2f9190615acf565b9050612f42816601b707b1cdc000615cd2565b612f4c9084615ae3565b92506001607f1b612f5d8383615cd2565b612f679190615acf565b9050612f79816536e0f639b800615cd2565b612f839084615ae3565b92506001607f1b612f948383615cd2565b612f9e9190615acf565b9050612fb081650618fee9f800615cd2565b612fba9084615ae3565b92506001607f1b612fcb8383615cd2565b612fd59190615acf565b9050612fe681649c197dcc00615cd2565b612ff09084615ae3565b92506001607f1b6130018383615cd2565b61300b9190615acf565b905061301c81640e30dce400615cd2565b6130269084615ae3565b92506001607f1b6130378383615cd2565b6130419190615acf565b90506130528164012ebd1300615cd2565b61305c9084615ae3565b92506001607f1b61306d8383615cd2565b6130779190615acf565b9050613087816317499f00615cd2565b6130919084615ae3565b92506001607f1b6130a28383615cd2565b6130ac9190615acf565b90506130bc816301a9d480615cd2565b6130c69084615ae3565b92506001607f1b6130d78383615cd2565b6130e19190615acf565b90506130f081621c6380615cd2565b6130fa9084615ae3565b92506001607f1b61310b8383615cd2565b6131159190615acf565b9050613124816201c638615cd2565b61312e9084615ae3565b92506001607f1b61313f8383615cd2565b6131499190615acf565b905061315781611ab8615cd2565b6131619084615ae3565b92506001607f1b6131728383615cd2565b61317c9190615acf565b905061318a8161017c615cd2565b6131949084615ae3565b92506001607f1b6131a58383615cd2565b6131af9190615acf565b90506131bc816014615cd2565b6131c69084615ae3565b92506001607f1b6131d78383615cd2565b6131e19190615acf565b90506131ee816001615cd2565b6131f89084615ae3565b92506001607f1b826132126721c3677c82b4000086615acf565b61321c9190615ae3565b6132269190615ae3565b92506001607c1b85161561326e5770018ebef9eac820ae8682b9793ac6d1e776613261847001c3d6a24ed82218787d624d3e5eba95f9615cd2565b61326b9190615acf565b92505b6001607d1b8516156132b4577001368b2fc6f9609fe7aceb46aa619baed46132a78470018ebef9eac820ae8682b9793ac6d1e778615cd2565b6132b19190615acf565b92505b6001607e1b8516156132f9576fbc5ab1b16779be3575bd8f0520a9f21f6132ec847001368b2fc6f9609fe7aceb46aa619baed5615cd2565b6132f69190615acf565b92505b6001607f1b85161561333d576f454aaa8efe072e7f6ddbab84b40a55c9613330846fbc5ab1b16779be3575bd8f0520a9f21e615cd2565b61333a9190615acf565b92505b600160801b851615613381576f0960aadc109e7a3bf4578099615711ea613374846f454aaa8efe072e7f6ddbab84b40a55c5615cd2565b61337e9190615acf565b92505b600160811b8516156133c4576e2bf84208204f5977f9a8cf01fdce3d6133b7846f0960aadc109e7a3bf4578099615711d7615cd2565b6133c19190615acf565b92505b600160821b851615613405576d03c6ab775dd0b95b4cbee7e65d116133f8846e2bf84208204f5977f9a8cf01fdc307615cd2565b6134029190615acf565b92505b50909392505050565b6000816001641c35fedd1560601b031061342a57506020919050565b816001646c3390ecc9605e1b031061344457506021919050565b816001640cf801476160611b031061345e57506022919050565b8160016431bdb23e1d605f1b031061347857506023919050565b8160016502fb1d8fe083605b1b031061349357506024919050565b8160016505b771955b37605a1b03106134ae57506025919050565b816001650af67a93bb5160591b03106134c957506026919050565b8160016515060c256cb360581b03106134e457506027919050565b816001651428a2f98d7360581b03106134ff57506028919050565b816001654d515663970960561b031061351a57506029919050565b81600165944620b0e70f60551b03106135355750602a919050565b81600166011c592761c66760541b03106135515750602b919050565b8160016602214d10d014eb60531b031061356d5750602c919050565b81600166020ade36b7dbef60531b03106135895750602d919050565b8160016603eab73b3bbfe360521b03106135a55750602e919050565b816001660782ee3593f6d760511b03106135c15750602f919050565b816001661ccf4b44bb4821604f1b03106135dd57506030919050565b8160016606e7f88ad8a77760511b03106135f957506031919050565b8160016669f3d1c921891d604d1b031061361557506032919050565b81600166cb2ff529eb71e5604c1b031061363157506033919050565b81600166c2d415c3db974b604c1b031061364d57506034919050565b8160016702eb40f9f620fda7604a1b031061366a57506035919050565b8160016705990681d961a1eb60491b031061368757506036919050565b81600167055e12902701414760491b03106136a457506037919050565b8160016714962dee9dc9764160471b03106136c157506038919050565b8160016704ef57b9b560fab560491b03106136de57506039919050565b8160016712ed7b32a58f552b60471b03106136fb5750603a919050565b816001679131271922eaa60760441b03106137185750603b919050565b816001678b380f3558668c4760441b03106137355750603c919050565b816001680215f77c045fbe885760421b03106137535750603d919050565b816001600160831b03106137695750603e919050565b816001670f577eded5773a1160471b03106137865750603f919050565b816001680eb5ec597592befbf5603f1b03106137a457506040919050565b816001681c35fedd14b861eb05603e1b03106137c257506041919050565b816001683619c87664579bc94b603d1b03106137e057506042919050565b8160016867c00a3b07ffc01fd7603c1b03106137fe57506043919050565b81600168c6f6c8f8739773a7a5603b1b031061381c57506044919050565b81600168bec763f8209b7a72b1603b1b031061383a57506045919050565b8160016902dbb8caad9b7097b91b60391b031061385957506046919050565b81600169057b3d49dda84556d6f760381b031061387857506047919050565b81600169054183095b2c8ececf3160381b031061389757506048919050565b816001690a14517cc6b9457111ef60371b03106138b657506049919050565b8160016913545598e5c23276ccf160361b03106138d55750604a919050565b816001692511882c39c3adea96ff60351b03106138f45750604b919050565b81600169471649d87199aa99075760341b03106139135750604c919050565b817004429a21a029d4c1457cfbffffffffffff106139335750604d919050565b81700415bc6d6fb7dd71af2cb3ffffffffffff106139535750604e919050565b817003eab73b3bbfe282243ce1ffffffffffff106139735750604f919050565b817003c1771ac9fb6b4c18e229ffffffffffff1061399357506050919050565b81700399e96897690418f785257fffffffffff106139b357506051919050565b81700373fc456c53bb779bf0ea9fffffffffff106139d357506052919050565b8170034f9e8e490c48e67e6ab8bfffffffffff106139f357506053919050565b8170032cbfd4a7adc790560b3337ffffffffff10613a1357506054919050565b8170030b50570f6e5d2acca94613ffffffffff10613a3357506055919050565b817002eb40f9f620fda6b56c2861ffffffffff10613a5357506056919050565b817002cc8340ecb0d0f520a6af58ffffffffff10613a7357506057919050565b817002af09481380a0a35cf1ba02ffffffffff10613a9357506058919050565b81700292c5bdd3b92ec810287b1b3fffffffff10613ab357506059919050565b81700277abdcdab07d5a77ac6d6b9fffffffff10613ad35750605a919050565b8170025daf6654b1eaa55fd64df5efffffffff10613af35750605b919050565b81700244c49c648baa98192dce88b7ffffffff10613b135750605c919050565b8170022ce03cd5619a311b2471268bffffffff10613b335750605d919050565b81700215f77c045fbe885654a44a0fffffffff10613b535750605e919050565b816001600160811b0310613b695750605f919050565b817001eaefdbdaaee7421fc4d3ede5ffffffff10613b8957506060919050565b817001d6bd8b2eb257df7e8ca57b09bfffffff10613ba957506061919050565b817001c35fedd14b861eb0443f7f133fffffff10613bc957506062919050565b817001b0ce43b322bcde4a56e8ada5afffffff10613be957506063919050565b8170019f0028ec1fff007f5a195a39dfffffff10613c0957506064919050565b8170018ded91f0e72ee74f49b15ba527ffffff10613c2957506065919050565b8170017d8ec7f04136f4e5615fd41a63ffffff10613c4957506066919050565b8170016ddc6556cdb84bdc8d12d22e6fffffff10613c6957506067919050565b8170015ecf52776a1155b5bd8395814f7fffff10613c8957506068919050565b8170015060c256cb23b3b3cc3754cf40ffffff10613ca957506069919050565b817001428a2f98d728ae223ddab715be3fffff10613cc95750606a919050565b8170013545598e5c23276ccf0ede68034fffff10613ce95750606b919050565b817001288c4161ce1d6f54b7f61081194fffff10613d095750606c919050565b8170011c592761c666aa641d5a01a40f17ffff10613d295750606d919050565b81700110a688680a7530515f3e6e6cfdcdffff10613d495750606e919050565b817001056f1b5bedf75c6bcb2ce8aed428ffff10613d695750606f919050565b816ffaadceceeff8a0890f3875f008277fff10613d8857506070919050565b816ff05dc6b27edad306388a600f6ba0bfff10613da757506071919050565b816fe67a5a25da41063de1495d5b18cdbfff10613dc657506072919050565b816fdcff115b14eedde6fc3aa5353f2e4fff10613de557506073919050565b816fd3e7a3924312399f9aae2e0f868f8fff10613e0457506074919050565b816fcb2ff529eb71e41582cccd5a1ee26fff10613e2357506075919050565b816fc2d415c3db974ab32a51840c0b67edff10613e4257506076919050565b816fbad03e7d883f69ad5b0a186184e06bff10613e6157506077919050565b816fb320d03b2c343d4829abd6075f0cc5ff10613e8057506078919050565b816fabc25204e02828d73c6e80bcdb1a95bf10613e9f57506079919050565b816fa4b16f74ee4bb2040a1ec6c15fbbf2df10613ebe5750607a919050565b816f9deaf736ac1f569deb1b5ae3f36c130f10613edd5750607b919050565b816f976bd9952c7aa957f5937d790ef6503710613efc5750607c919050565b816f9131271922eaa6064b73a22d0bd4f2bf10613f1b5750607d919050565b816f8b380f3558668c46c91c49a2f8e967b910613f3a5750607e919050565b816f857ddf0117efa215952912839f6473e6106100835750607f919050565b6000828160ff8416613f6b8380615cd2565b901c9150613f88826b0d10b13981d2a0bc5e5fdcab601e1b615cd2565b613f929082615ae3565b905060ff8416613fa28684615cd2565b901c9150613fbf826b045ae5bdd5f0e03eca1ff439601e1b615cd2565b613fc99082615ae3565b905060ff8416613fd98684615cd2565b901c9150613ff6826e45ae5bdd5f0e03eca1ff4390000000615cd2565b6140009082615ae3565b905060ff84166140108684615cd2565b901c915061402c826adefabf91302cd95b9ffda5601c1b615cd2565b6140369082615ae3565b905060ff84166140468684615cd2565b901c9150614062826a4a53953065644873dfff37601b1b615cd2565b61406c9082615ae3565b905060ff841661407c8684615cd2565b901c9150614098826d54f1cf12bd04e516b6da88000000615cd2565b6140a29082615ae3565b905060ff84166140b28684615cd2565b901c91506140ce826d0a9e39e257a09ca2d6db51000000615cd2565b6140d89082615ae3565b905060ff84166140e88684615cd2565b901c9150614104826d012e066e7b839fa050c309000000615cd2565b61410e9082615ae3565b905060ff841661411e8684615cd2565b901c9150614139826c1e33d7d926c329a1ad1a800000615cd2565b6141439082615ae3565b905060ff84166141538684615cd2565b901c915061416e826c02bee513bdb4a6b19b5f800000615cd2565b6141789082615ae3565b905060ff84166141888684615cd2565b901c91506141a2826b3a9316fa79b88eccf2a00000615cd2565b6141ac9082615ae3565b905060ff84166141bc8684615cd2565b901c91506141d6826b048177ebe1fa812375200000615cd2565b6141e09082615ae3565b905060ff84166141f08684615cd2565b901c9150614209826a5263fe90242dcbacf00000615cd2565b6142139082615ae3565b905060ff84166142238684615cd2565b901c915061423c826a057e22099c030d94100000615cd2565b6142469082615ae3565b905060ff84166142568684615cd2565b901c915061426e826957e22099c030d9410000615cd2565b6142789082615ae3565b905060ff84166142888684615cd2565b901c91506142a08269052b6b54569976310000615cd2565b6142aa9082615ae3565b905060ff84166142ba8684615cd2565b901c91506142d182684985f67696bf748000615cd2565b6142db9082615ae3565b905060ff84166142eb8684615cd2565b901c9150614302826803dea12ea99e498000615cd2565b61430c9082615ae3565b905060ff841661431c8684615cd2565b901c9150614332826731880f2214b6e000615cd2565b61433c9082615ae3565b905060ff841661434c8684615cd2565b901c91506143628267025bcff56eb36000615cd2565b61436c9082615ae3565b905060ff841661437c8684615cd2565b901c915061439182661b722e10ab1000615cd2565b61439b9082615ae3565b905060ff84166143ab8684615cd2565b901c91506143c0826601317c70077000615cd2565b6143ca9082615ae3565b905060ff84166143da8684615cd2565b901c91506143ee82650cba84aafa00615cd2565b6143f89082615ae3565b905060ff84166144088684615cd2565b901c915061441b826482573a0a00615cd2565b6144259082615ae3565b905060ff84166144358684615cd2565b901c9150614448826405035ad900615cd2565b6144529082615ae3565b905060ff84166144628684615cd2565b901c915061447482632f881b00615cd2565b61447e9082615ae3565b905060ff841661448e8684615cd2565b901c91506144a0826301b29340615cd2565b6144aa9082615ae3565b905060ff84166144ba8684615cd2565b901c91506144cb82620efc40615cd2565b6144d59082615ae3565b905060ff84166144e58684615cd2565b901c91506144f582617fe0615cd2565b6144ff9082615ae3565b905060ff841661450f8684615cd2565b901c915061451f82610420615cd2565b6145299082615ae3565b905060ff84166145398684615cd2565b901c9150614548826021615cd2565b6145529082615ae3565b905060ff84166145628684615cd2565b901c9150614571826001615cd2565b61457b9082615ae3565b9050600160ff85161b8561459e6b0d10b13981d2a0bc5e5fdcab601f1b84615acf565b6145a89190615ae3565b610bc59190615ae3565b6145ba6150bc565b6040518060600160405280604051806040016040528060208152602001600181525081526020016000151581526020016001815250905090565b6145fc6150bc565b826020015115801561461057508160200151155b80156146235750614621825161273d565b155b61462c57600080fd5b600061463c85518551855161473c565b9050600061464982614806565b90508061466157614658614844565b92505050610205565b85602001518015614685575061468585600081515182510160028151069392505050565b156146ae5761465860405160608101604090815284825260016020830152810183905285614886565b6040516060810160409081529281526000602082015291820152949350505050565b600080610100831015614703575b60018311156146fe57600192831c926146f79082615f6a565b90506146de565b610197565b60805b60ff81161561473557600160ff82161b841061472a5760ff81169390931c92908117905b60011c607f16614706565b5092915050565b606083518351835160405183815282602082015281604082015283606082018560208b0160046101c2fa84606001848184018660208c0160046101c2fa91508401838382018160208b0160046101c2fa915081801561479a5761479c565bfe5b5083018360608401828560056105465a03fa915081801561479a575083606084015b602082146147e9576000815114600181146147d957506147e9565b50601f19909101906020016147be565b601f19019081529290930160600160405250979650505050505050565b60006148118261273d565b1561481e57506000919050565b60006020830151905061483081614a0e565b915060086020845103028201915050919050565b61484c6150bc565b6040518060600160405280604051806040016040528060208152602001600081525081526020016000151581526020016000815250905090565b61488e6150bc565b82604001511580156148a257508160400151155b156148af57611ced614844565b82604001516148bf575080610197565b81604001516148cf575081610197565b60606000806148e086866000614bff565b90508560200151806148f3575084602001515b156149bd578560200151801561490a575084602001515b15614955576000811261493257614928865186518860400151614d3f565b9093509150614949565b614943855187518760400151614d3f565b90935091505b600160208501526149ff565b80600114156149805761496a86518651614e64565b90935091506020860151151560208501526149ff565b8060001914156149ab5761499685518751614e64565b909350915060208601511560208501526149ff565b6149b3614844565b9350505050610197565b600081126149e0576149d6865186518860400151614d3f565b90935091506149f7565b6149f1855187518760400151614d3f565b90935091505b600060208501525b50908252604082015292915050565b6000811560018114614bf457600160801b600160401b600160201b620100006101006010600460026000198b019081041790810417908104179081041790810417908104179081041790810417600101926040517ff8f9cbfae6cc78fbefe7cdc3a1793dfcf4f0e8bbd8cec470b6a28a7a5a3e1efd81527ff5ecf1b3e9debc68e1d9cfabc5997135bfb7a7a3938b7b606b5b4b3f2f1f0ffe60208201527ff6e4ed9ff2d6b458eadcdf97bd91692de2d4da8fd2d0ac50c6ae9a827252361660408201527fc8c0b887b0a8a4489c948c7f847c6125746c645c544c444038302820181008ff60608201527ff7cae577eec2a03cf3bad76fb589591debb2dd67e0aa9834bea6925f6a4a2e0e60808201527fe39ed557db96902cd38ed14fad815115c786af479b7e8324736353433727170760a08201527fc976c13bb96e881cb166a933a55e490d9d56952b8d4e801485467d236242260660c08201527f753a6d1b65325d0c552a4d1345224105391a310b29122104190a11030902010060e082015261010081016040527e818283848586878898a8b8c8d8e8f929395969799a9b9d9e9faaeb6bedeeff600160f81b8082880204818160ff0385015104600160ff1b86116101000201965060001985018516614bea576001870196505b5050505050614bf9565b600091505b50919050565b600060018215614c785784602001518015614c1b575083602001515b15614c295750600019614c78565b8460200151158015614c415750836020015115156001145b15614c50576001915050610205565b846020015115156001148015614c6857508360200151155b15614c7857600019915050610205565b836040015185604001511115614c8f579050610205565b846040015184604001511115614cb357614cab81600019615e90565b915050610205565b600080808080895151905060208a510194506020895101935060005b81811015614d2e5780860151935080850151925082841115614cfa5786975050505050505050610205565b83831115614d1c57614d0e87600019615e90565b975050505050505050610205565b614d27602082615ae3565b9050614ccf565b5060009a9950505050505050505050565b60606000606059600060001988518901885189018a5160208601018b515b8015614dff5783518c518e5103821160018114614d9d578782018452600188148288141660018114614d925760009850614d97565b600198505b50614dec565b8451888184010185528881038803831160018114614dde576000821160008b11178985141660018114614dd35760009a50614dd8565b60019a505b50614de3565b600199505b50602086039550505b5050601f19938401939182019101614d5d565b50841560018114614e135760018252614e1a565b6020870196505b50859650846020028c510187526020875101870160405260208701516001816101008d061c14600182141715614e515760018b019a505b50959b989a509798505050505050505050565b6060600081816000195987518751808203828b01828b0184860160208101865b8015614f0a57845186821160018114614ec1578c8203855260018d14600083141660018114614eb65760009d50614ebb565b60019d505b50614ef7565b85518d81840303865260018e148d8214168e820184101760018114614ee95760009e50614eee565b60019e505b50602087039650505b5050601f19948501949283019201614e84565b506020820191505b600082511415614f3357602088019750602087039650602082019150614f12565b879a50868b528060405250505050505050506000614f5084614806565b93989397509295505050505050565b6040518060e001604052806000815260200160006001600160a01b0316815260200160006001600160a01b03168152602001600081526020016000815260200160008152602001600081525090565b604051806101000160405280606081526020016060815260200160608152602001600081526020016000815260200160008152602001614fec6150bc565b8152602001614ff96150bc565b905290565b828054828255906000526020600020908101928215615039579160200282015b8281111561503957825182559160200191906001019061501e565b506150459291506150df565b5090565b82805461505590615aa8565b90600052602060002090601f0160209004810192826150775760008555615039565b82601f1061509057805160ff1916838001178555615039565b82800160010185558215615039579182018281111561503957825182559160200191906001019061501e565b604051806060016040528060608152602001600015158152602001600081525090565b5b8082111561504557600081556001016150e0565b805b811461510157600080fd5b50565b8035610197816150f4565b60006001600160a01b038216610197565b6150f68161510f565b803561019781615120565b60008060006060848603121561514c5761514c600080fd5b60006151588686615104565b935050602061516986828701615104565b925050604061517a86828701615129565b9150509250925092565b60006020828403121561519957615199600080fd5b60006151a58484615104565b949350505050565b805b82525050565b6151af8161510f565b60e0820181516151ce84826151ad565b5060208201516151e160208501826151b5565b5060408201516151f460408501826151b5565b50606082015161520760608501826151ad565b50608082015161521a60808501826151ad565b5060a082015161522d60a08501826151ad565b5060c082015161524060c08501826151ad565b50505050565b60e0810161019782846151be565b600061526083836151ad565b505060200190565b6000615278826000815192915050565b80845260209384019383018060005b838110156152ac57815161529b8882615254565b975060208301925050600101615287565b509495945050505050565b60006152c7826000815192915050565b80845260209384019383018060005b838110156152ac5781516152ea8882615254565b9750602083019250506001016152d6565b60005b838110156153165780820151838201526020016152fe565b838111156152405750506000910152565b601f01601f191690565b6000615341826000815192915050565b8084526020840193506153588185602086016152fb565b61536181615327565b9093019392505050565b8015156151af565b6000606083018251848203855261538a8282615331565b915050602083015161539f602086018261536b565b5060408301516153b260408601826151ad565b509392505050565b60006101008301825184820385526153d28282615268565b915050602083015184820360208601526153ec8282615268565b9150506040830151848203604086015261540682826152b7565b915050606083015161541b60608601826151ad565b50608083015161542e60808601826151ad565b5060a083015161544160a08601826151ad565b5060c083015184820360c08601526154598282615373565b91505060e083015184820360e0860152610bc58282615373565b6020808252810161020581846153ba565b6040810161549282856151ad565b61020560208301846151ad565b6020810161019782846151ad565b6000602082840312156154c2576154c2600080fd5b60006151a58484615129565b60006154de826000815192915050565b80845260209384019383018060005b838110156152ac5781516155018882615254565b9750602083019250506001016154ed565b6040808252810161552381856154ce565b905061020560208301846151ad565b634e487b7160e01b600052604160045260246000fd5b61555182615327565b81018181106001600160401b038211171561556e5761556e615532565b6040525050565b60006155846000604051905090565b90506155908282615548565b919050565b60006001600160401b038211156155ae576155ae615532565b5060209081020190565b60006155cb6155c684615595565b615575565b838152905060208082019084028301858111156155ea576155ea600080fd5b835b8181101561560e57806155ff8882615104565b845250602092830192016155ec565b5050509392505050565b600082601f83011261562c5761562c600080fd5b81356151a58482602086016155b8565b600061564a6155c684615595565b8381529050602080820190840283018581111561566957615669600080fd5b835b8181101561560e578061567e8882615104565b8452506020928301920161566b565b600082601f8301126156a1576156a1600080fd5b81356151a584826020860161563c565b600061014082840312156156c7576156c7600080fd5b6156d2610140615575565b905060006156e08484615129565b82525060208201356001600160401b038111156156ff576156ff600080fd5b61570b84828501615618565b60208301525060408201356001600160401b0381111561572d5761572d600080fd5b61573984828501615618565b60408301525060608201356001600160401b0381111561575b5761575b600080fd5b6157678482850161568d565b606083015250608061577b84828501615104565b60808301525060a061578f84828501615104565b60a08301525060c06157a384828501615104565b60c08301525060e06157b784828501615104565b60e0830152506101006157cc84828501615104565b610100830152506101206157e284828501615104565b6101208301525092915050565b60006001600160401b0382111561580857615808615532565b61581182615327565b60200192915050565b82818337506000910152565b60006158346155c6846157ef565b90508281526020810184848401111561584f5761584f600080fd5b6153b284828561581a565b600082601f83011261586e5761586e600080fd5b81356151a5848260208601615826565b8015156150f6565b80356101978161587e565b6000606082840312156158a6576158a6600080fd5b6158b06060615575565b905081356001600160401b038111156158cb576158cb600080fd5b6158d78482850161585a565b82525060206158e884848301615886565b60208301525060406158fc84828501615104565b60408301525092915050565b60008060006060848603121561592057615920600080fd5b83356001600160401b0381111561593957615939600080fd5b615945868287016156b1565b93505060208401356001600160401b0381111561596457615964600080fd5b61597086828701615891565b92505060408401356001600160401b0381111561598f5761598f600080fd5b61517a86828701615891565b6000806000606084860312156159b3576159b3600080fd5b60006159bf8686615104565b93505060206159d086828701615104565b925050604061517a86828701615104565b634e487b7160e01b600052601160045260246000fd5b6000825b925082821015615a0d57615a0d6159e1565b500390565b60038152600060208201624e4d5960e81b815291505b5060200190565b6020808252810161019781615a12565b634e487b7160e01b600052601260045260246000fd5b600082615a6457615a64615a3f565b500690565b6002815260006020820161324d60f01b81529150615a28565b6020808252810161019781615a69565b634e487b7160e01b600052602260045260246000fd5b600281046001821680615abc57607f821691505b60208210811415614bf957614bf9615a92565b600082615ade57615ade615a3f565b500490565b60008219821115615af657615af66159e1565b500190565b6000600019821415615b0f57615b0f6159e1565b5060010190565b634e487b7160e01b600052603260045260246000fd5b600061526083836151b5565b6000615b48826000815192915050565b80845260209384019383018060005b838110156152ac578151615b6b8882615b2c565b975060208301925050600101615b57565b6000610197615b888381565b90565b6151af81615b7c565b60808101615ba282876151ad565b8181036020830152615bb48186615b38565b9050615bc360408301856151b5565b610bc56060830184615b8b565b600081519050610197816150f4565b60008060408385031215615bf557615bf5600080fd5b6000615c018585615bd0565b9250506020615c1285828601615bd0565b9150509250929050565b60608101615c2a82866151b5565b615c3760208301856151b5565b6151a560408301846151ad565b6000615c54826000815192915050565b615c628185602086016152fb565b9290920192915050565b60006102058284615c44565b6000815190506101978161587e565b600060208284031215615c9c57615c9c600080fd5b60006151a58484615c78565b600381526000602082016229aa2360e91b81529150615a28565b6020808252810161019781615ca8565b6000816000190483118215151615615cec57615cec6159e1565b500290565b6012815260006020820171149bdd5d19481b9bdd081a5b98db1d59195960721b81529150615a28565b6020808252810161019781615cf1565b6020810161019782846151b5565b600060208284031215615d4d57615d4d600080fd5b60006151a58484615bd0565b6001600160801b0381166151af565b60a082018151615d7884826151ad565b506020820151615d8b6020850182615d59565b506040820151615d9e60408501826151ad565b506060820151615db160608501826151ad565b50608082015161524060808501826151ad565b60a081016101978284615d68565b608082018151615de284826151ad565b506020820151615df560208501826151b5565b506040820151615e086040850182615d59565b5060608201516152406060850182615d59565b608081016101978284615dd2565b60008151905061019781615120565b600060208284031215615e4d57615e4d600080fd5b60006151a58484615e29565b6040810161549282856151b5565b600281526000602082016114d560f21b81529150615a28565b6020808252810161019781615e67565b6000826001600160ff1b030482116000841360008413161615615eb557615eb56159e1565b81600160ff1b0583126000841260008413161615615ed557615ed56159e1565b82600160ff1b0582126000841360008412161615615ef557615ef56159e1565b826001600160ff1b030582126000841260008412161615615cec57615cec6159e1565b604080825281016155238185615331565b634e487b7160e01b600052600160045260246000fd5b600060ff8216915060ff83166159fb565b60ff16600081615f6257615f626159e1565b506000190190565b600060ff8216915060ff831692508260ff03821115615af657615af66159e156fea26469706673582212205fc7149fde252edc2736a57ae62b46e6f3adb30e90ca34ee4f8051e646ccb72464736f6c634300080a0033",
    "linkReferences": {},
    "deployedLinkReferences": {}
}